{
	"contracts/EduTokenSale.sol": {
		"EduTokenSale": {
			"abi": [
				{
					"inputs": [
						{
							"internalType": "address",
							"name": "_initialOwner",
							"type": "address"
						},
						{
							"internalType": "address",
							"name": "_tokenAddress",
							"type": "address"
						},
						{
							"internalType": "address",
							"name": "_treasuryManager",
							"type": "address"
						},
						{
							"internalType": "address",
							"name": "_complianceOfficer",
							"type": "address"
						},
						{
							"internalType": "uint256",
							"name": "_rate",
							"type": "uint256"
						},
						{
							"internalType": "uint256",
							"name": "_saleStart",
							"type": "uint256"
						},
						{
							"internalType": "uint256",
							"name": "_saleEnd",
							"type": "uint256"
						},
						{
							"internalType": "uint256",
							"name": "_minContributionWei",
							"type": "uint256"
						},
						{
							"internalType": "uint256",
							"name": "_maxContributionWei",
							"type": "uint256"
						},
						{
							"internalType": "uint256",
							"name": "_hardCapTokens",
							"type": "uint256"
						}
					],
					"stateMutability": "nonpayable",
					"type": "constructor"
				},
				{
					"inputs": [],
					"name": "EnforcedPause",
					"type": "error"
				},
				{
					"inputs": [],
					"name": "ExpectedPause",
					"type": "error"
				},
				{
					"inputs": [
						{
							"internalType": "address",
							"name": "owner",
							"type": "address"
						}
					],
					"name": "OwnableInvalidOwner",
					"type": "error"
				},
				{
					"inputs": [
						{
							"internalType": "address",
							"name": "account",
							"type": "address"
						}
					],
					"name": "OwnableUnauthorizedAccount",
					"type": "error"
				},
				{
					"anonymous": false,
					"inputs": [
						{
							"indexed": true,
							"internalType": "address",
							"name": "_newComplianceOfficer",
							"type": "address"
						}
					],
					"name": "ComplianceOfficerUpdated",
					"type": "event"
				},
				{
					"anonymous": false,
					"inputs": [
						{
							"indexed": true,
							"internalType": "address",
							"name": "_toAddress",
							"type": "address"
						},
						{
							"indexed": false,
							"internalType": "uint256",
							"name": "_amountWei",
							"type": "uint256"
						}
					],
					"name": "FundsWithdrawn",
					"type": "event"
				},
				{
					"anonymous": false,
					"inputs": [
						{
							"indexed": true,
							"internalType": "address",
							"name": "previousOwner",
							"type": "address"
						},
						{
							"indexed": true,
							"internalType": "address",
							"name": "newOwner",
							"type": "address"
						}
					],
					"name": "OwnershipTransferred",
					"type": "event"
				},
				{
					"anonymous": false,
					"inputs": [
						{
							"indexed": false,
							"internalType": "address",
							"name": "account",
							"type": "address"
						}
					],
					"name": "Paused",
					"type": "event"
				},
				{
					"anonymous": false,
					"inputs": [
						{
							"indexed": true,
							"internalType": "address",
							"name": "_byAddress",
							"type": "address"
						}
					],
					"name": "SalePaused",
					"type": "event"
				},
				{
					"anonymous": false,
					"inputs": [
						{
							"indexed": true,
							"internalType": "address",
							"name": "_byAddress",
							"type": "address"
						}
					],
					"name": "SaleUnpaused",
					"type": "event"
				},
				{
					"anonymous": false,
					"inputs": [
						{
							"indexed": true,
							"internalType": "address",
							"name": "_buyerAddress",
							"type": "address"
						},
						{
							"indexed": false,
							"internalType": "uint256",
							"name": "_ethAmountWei",
							"type": "uint256"
						},
						{
							"indexed": false,
							"internalType": "uint256",
							"name": "_tokenAmount",
							"type": "uint256"
						}
					],
					"name": "TokensPurchased",
					"type": "event"
				},
				{
					"anonymous": false,
					"inputs": [
						{
							"indexed": true,
							"internalType": "address",
							"name": "_newTreasuryManager",
							"type": "address"
						}
					],
					"name": "TreasuryManagerUpdated",
					"type": "event"
				},
				{
					"anonymous": false,
					"inputs": [
						{
							"indexed": false,
							"internalType": "address",
							"name": "account",
							"type": "address"
						}
					],
					"name": "Unpaused",
					"type": "event"
				},
				{
					"anonymous": false,
					"inputs": [
						{
							"indexed": true,
							"internalType": "address",
							"name": "_walletAddress",
							"type": "address"
						},
						{
							"indexed": false,
							"internalType": "bool",
							"name": "_status",
							"type": "bool"
						}
					],
					"name": "WhitelistUpdated",
					"type": "event"
				},
				{
					"inputs": [],
					"name": "buyTokens",
					"outputs": [],
					"stateMutability": "payable",
					"type": "function"
				},
				{
					"inputs": [],
					"name": "complianceOfficer",
					"outputs": [
						{
							"internalType": "address",
							"name": "",
							"type": "address"
						}
					],
					"stateMutability": "view",
					"type": "function"
				},
				{
					"inputs": [
						{
							"internalType": "address",
							"name": "",
							"type": "address"
						}
					],
					"name": "contributionOf",
					"outputs": [
						{
							"internalType": "uint256",
							"name": "",
							"type": "uint256"
						}
					],
					"stateMutability": "view",
					"type": "function"
				},
				{
					"inputs": [],
					"name": "eduToken",
					"outputs": [
						{
							"internalType": "contract EduToken",
							"name": "",
							"type": "address"
						}
					],
					"stateMutability": "view",
					"type": "function"
				},
				{
					"inputs": [],
					"name": "hardCapTokens",
					"outputs": [
						{
							"internalType": "uint256",
							"name": "",
							"type": "uint256"
						}
					],
					"stateMutability": "view",
					"type": "function"
				},
				{
					"inputs": [],
					"name": "isSaleActive",
					"outputs": [
						{
							"internalType": "bool",
							"name": "",
							"type": "bool"
						}
					],
					"stateMutability": "view",
					"type": "function"
				},
				{
					"inputs": [
						{
							"internalType": "address",
							"name": "",
							"type": "address"
						}
					],
					"name": "isWhitelisted",
					"outputs": [
						{
							"internalType": "bool",
							"name": "",
							"type": "bool"
						}
					],
					"stateMutability": "view",
					"type": "function"
				},
				{
					"inputs": [],
					"name": "maxContributionWei",
					"outputs": [
						{
							"internalType": "uint256",
							"name": "",
							"type": "uint256"
						}
					],
					"stateMutability": "view",
					"type": "function"
				},
				{
					"inputs": [],
					"name": "minContributionWei",
					"outputs": [
						{
							"internalType": "uint256",
							"name": "",
							"type": "uint256"
						}
					],
					"stateMutability": "view",
					"type": "function"
				},
				{
					"inputs": [],
					"name": "owner",
					"outputs": [
						{
							"internalType": "address",
							"name": "",
							"type": "address"
						}
					],
					"stateMutability": "view",
					"type": "function"
				},
				{
					"inputs": [],
					"name": "pauseSale",
					"outputs": [],
					"stateMutability": "nonpayable",
					"type": "function"
				},
				{
					"inputs": [],
					"name": "paused",
					"outputs": [
						{
							"internalType": "bool",
							"name": "",
							"type": "bool"
						}
					],
					"stateMutability": "view",
					"type": "function"
				},
				{
					"inputs": [],
					"name": "rate",
					"outputs": [
						{
							"internalType": "uint256",
							"name": "",
							"type": "uint256"
						}
					],
					"stateMutability": "view",
					"type": "function"
				},
				{
					"inputs": [],
					"name": "renounceOwnership",
					"outputs": [],
					"stateMutability": "nonpayable",
					"type": "function"
				},
				{
					"inputs": [],
					"name": "saleEnd",
					"outputs": [
						{
							"internalType": "uint256",
							"name": "",
							"type": "uint256"
						}
					],
					"stateMutability": "view",
					"type": "function"
				},
				{
					"inputs": [],
					"name": "saleStart",
					"outputs": [
						{
							"internalType": "uint256",
							"name": "",
							"type": "uint256"
						}
					],
					"stateMutability": "view",
					"type": "function"
				},
				{
					"inputs": [
						{
							"internalType": "address",
							"name": "_newComplianceOfficer",
							"type": "address"
						}
					],
					"name": "setComplianceOfficer",
					"outputs": [],
					"stateMutability": "nonpayable",
					"type": "function"
				},
				{
					"inputs": [
						{
							"internalType": "address",
							"name": "_newTreasuryManager",
							"type": "address"
						}
					],
					"name": "setTreasuryManager",
					"outputs": [],
					"stateMutability": "nonpayable",
					"type": "function"
				},
				{
					"inputs": [
						{
							"internalType": "address",
							"name": "_walletAddress",
							"type": "address"
						},
						{
							"internalType": "bool",
							"name": "_status",
							"type": "bool"
						}
					],
					"name": "setWhitelist",
					"outputs": [],
					"stateMutability": "nonpayable",
					"type": "function"
				},
				{
					"inputs": [],
					"name": "totalTokensSold",
					"outputs": [
						{
							"internalType": "uint256",
							"name": "",
							"type": "uint256"
						}
					],
					"stateMutability": "view",
					"type": "function"
				},
				{
					"inputs": [
						{
							"internalType": "address",
							"name": "newOwner",
							"type": "address"
						}
					],
					"name": "transferOwnership",
					"outputs": [],
					"stateMutability": "nonpayable",
					"type": "function"
				},
				{
					"inputs": [],
					"name": "treasuryManager",
					"outputs": [
						{
							"internalType": "address",
							"name": "",
							"type": "address"
						}
					],
					"stateMutability": "view",
					"type": "function"
				},
				{
					"inputs": [],
					"name": "unpauseSale",
					"outputs": [],
					"stateMutability": "nonpayable",
					"type": "function"
				},
				{
					"inputs": [
						{
							"internalType": "uint256",
							"name": "_amountWei",
							"type": "uint256"
						}
					],
					"name": "withdrawFunds",
					"outputs": [],
					"stateMutability": "nonpayable",
					"type": "function"
				}
			],
			"devdoc": {
				"errors": {
					"EnforcedPause()": [
						{
							"details": "The operation failed because the contract is paused."
						}
					],
					"ExpectedPause()": [
						{
							"details": "The operation failed because the contract is not paused."
						}
					],
					"OwnableInvalidOwner(address)": [
						{
							"details": "The owner is not a valid owner account. (eg. `address(0)`)"
						}
					],
					"OwnableUnauthorizedAccount(address)": [
						{
							"details": "The caller account is not authorized to perform an operation."
						}
					]
				},
				"events": {
					"Paused(address)": {
						"details": "Emitted when the pause is triggered by `account`."
					},
					"Unpaused(address)": {
						"details": "Emitted when the pause is lifted by `account`."
					}
				},
				"kind": "dev",
				"methods": {
					"owner()": {
						"details": "Returns the address of the current owner."
					},
					"paused()": {
						"details": "Returns true if the contract is paused, and false otherwise."
					},
					"renounceOwnership()": {
						"details": "Leaves the contract without owner. It will not be possible to call `onlyOwner` functions. Can only be called by the current owner. NOTE: Renouncing ownership will leave the contract without an owner, thereby disabling any functionality that is only available to the owner."
					},
					"transferOwnership(address)": {
						"details": "Transfers ownership of the contract to a new account (`newOwner`). Can only be called by the current owner."
					}
				},
				"version": 1
			},
			"evm": {
				"assembly": "    /* \"contracts/EduTokenSale.sol\":197:5230  contract EduTokenSale is Ownable, Pausable {... */\n  mstore(0x40, 0xa0)\n    /* \"contracts/EduTokenSale.sol\":1655:2808  constructor(... */\n  callvalue\n  dup1\n  iszero\n  tag_1\n  jumpi\n  revert(0x00, 0x00)\ntag_1:\n  pop\n  mload(0x40)\n  sub(codesize, bytecodeSize)\n  dup1\n  bytecodeSize\n  dup4\n  codecopy\n  dup2\n  dup2\n  add\n  0x40\n  mstore\n  dup2\n  add\n  swap1\n  tag_2\n  swap2\n  swap1\n  tag_3\n  jump\t// in\ntag_2:\n    /* \"contracts/EduTokenSale.sol\":2007:2020  _initialOwner */\n  dup10\n    /* \"@openzeppelin/contracts/access/Ownable.sol\":1297:1298  0 */\n  0x00\n    /* \"@openzeppelin/contracts/access/Ownable.sol\":1273:1299  initialOwner == address(0) */\n  0xffffffffffffffffffffffffffffffffffffffff\n  and\n    /* \"@openzeppelin/contracts/access/Ownable.sol\":1273:1285  initialOwner */\n  dup2\n    /* \"@openzeppelin/contracts/access/Ownable.sol\":1273:1299  initialOwner == address(0) */\n  0xffffffffffffffffffffffffffffffffffffffff\n  and\n  sub\n    /* \"@openzeppelin/contracts/access/Ownable.sol\":1269:1364  if (initialOwner == address(0)) {... */\n  tag_7\n  jumpi\n    /* \"@openzeppelin/contracts/access/Ownable.sol\":1350:1351  0 */\n  0x00\n    /* \"@openzeppelin/contracts/access/Ownable.sol\":1322:1353  OwnableInvalidOwner(address(0)) */\n  mload(0x40)\n  0x1e4fbdf700000000000000000000000000000000000000000000000000000000\n  dup2\n  mstore\n  0x04\n  add\n  tag_8\n  swap2\n  swap1\n  tag_9\n  jump\t// in\ntag_8:\n  mload(0x40)\n  dup1\n  swap2\n  sub\n  swap1\n  revert\n    /* \"@openzeppelin/contracts/access/Ownable.sol\":1269:1364  if (initialOwner == address(0)) {... */\ntag_7:\n    /* \"@openzeppelin/contracts/access/Ownable.sol\":1373:1405  _transferOwnership(initialOwner) */\n  tag_10\n    /* \"@openzeppelin/contracts/access/Ownable.sol\":1392:1404  initialOwner */\n  dup2\n    /* \"@openzeppelin/contracts/access/Ownable.sol\":1373:1391  _transferOwnership */\n  shl(0x20, tag_11)\n    /* \"@openzeppelin/contracts/access/Ownable.sol\":1373:1405  _transferOwnership(initialOwner) */\n  0x20\n  shr\n  jump\t// in\ntag_10:\n    /* \"@openzeppelin/contracts/access/Ownable.sol\":1225:1412  constructor(address initialOwner) {... */\n  pop\n    /* \"contracts/EduTokenSale.sol\":2066:2067  0 */\n  0x00\n    /* \"contracts/EduTokenSale.sol\":2041:2068  _tokenAddress != address(0) */\n  0xffffffffffffffffffffffffffffffffffffffff\n  and\n    /* \"contracts/EduTokenSale.sol\":2041:2054  _tokenAddress */\n  dup10\n    /* \"contracts/EduTokenSale.sol\":2041:2068  _tokenAddress != address(0) */\n  0xffffffffffffffffffffffffffffffffffffffff\n  and\n  sub\n    /* \"contracts/EduTokenSale.sol\":2033:2086  require(_tokenAddress != address(0), \"Invalid token\") */\n  tag_13\n  jumpi\n  mload(0x40)\n  0x08c379a000000000000000000000000000000000000000000000000000000000\n  dup2\n  mstore\n  0x04\n  add\n  tag_14\n  swap1\n  tag_15\n  jump\t// in\ntag_14:\n  mload(0x40)\n  dup1\n  swap2\n  sub\n  swap1\n  revert\ntag_13:\n    /* \"contracts/EduTokenSale.sol\":2133:2134  0 */\n  0x00\n    /* \"contracts/EduTokenSale.sol\":2105:2135  _treasuryManager != address(0) */\n  0xffffffffffffffffffffffffffffffffffffffff\n  and\n    /* \"contracts/EduTokenSale.sol\":2105:2121  _treasuryManager */\n  dup9\n    /* \"contracts/EduTokenSale.sol\":2105:2135  _treasuryManager != address(0) */\n  0xffffffffffffffffffffffffffffffffffffffff\n  and\n  sub\n    /* \"contracts/EduTokenSale.sol\":2097:2156  require(_treasuryManager != address(0), \"Invalid treasury\") */\n  tag_16\n  jumpi\n  mload(0x40)\n  0x08c379a000000000000000000000000000000000000000000000000000000000\n  dup2\n  mstore\n  0x04\n  add\n  tag_17\n  swap1\n  tag_18\n  jump\t// in\ntag_17:\n  mload(0x40)\n  dup1\n  swap2\n  sub\n  swap1\n  revert\ntag_16:\n    /* \"contracts/EduTokenSale.sol\":2205:2206  0 */\n  0x00\n    /* \"contracts/EduTokenSale.sol\":2175:2207  _complianceOfficer != address(0) */\n  0xffffffffffffffffffffffffffffffffffffffff\n  and\n    /* \"contracts/EduTokenSale.sol\":2175:2193  _complianceOfficer */\n  dup8\n    /* \"contracts/EduTokenSale.sol\":2175:2207  _complianceOfficer != address(0) */\n  0xffffffffffffffffffffffffffffffffffffffff\n  and\n  sub\n    /* \"contracts/EduTokenSale.sol\":2167:2230  require(_complianceOfficer != address(0), \"Invalid compliance\") */\n  tag_19\n  jumpi\n  mload(0x40)\n  0x08c379a000000000000000000000000000000000000000000000000000000000\n  dup2\n  mstore\n  0x04\n  add\n  tag_20\n  swap1\n  tag_21\n  jump\t// in\ntag_20:\n  mload(0x40)\n  dup1\n  swap2\n  sub\n  swap1\n  revert\ntag_19:\n    /* \"contracts/EduTokenSale.sol\":2260:2270  _saleStart */\n  dup5\n    /* \"contracts/EduTokenSale.sol\":2249:2257  _saleEnd */\n  dup5\n    /* \"contracts/EduTokenSale.sol\":2249:2270  _saleEnd > _saleStart */\n  gt\n    /* \"contracts/EduTokenSale.sol\":2241:2294  require(_saleEnd > _saleStart, \"Invalid sale window\") */\n  tag_22\n  jumpi\n  mload(0x40)\n  0x08c379a000000000000000000000000000000000000000000000000000000000\n  dup2\n  mstore\n  0x04\n  add\n  tag_23\n  swap1\n  tag_24\n  jump\t// in\ntag_23:\n  mload(0x40)\n  dup1\n  swap2\n  sub\n  swap1\n  revert\ntag_22:\n    /* \"contracts/EduTokenSale.sol\":2336:2355  _minContributionWei */\n  dup3\n    /* \"contracts/EduTokenSale.sol\":2313:2332  _maxContributionWei */\n  dup3\n    /* \"contracts/EduTokenSale.sol\":2313:2355  _maxContributionWei >= _minContributionWei */\n  lt\n  iszero\n    /* \"contracts/EduTokenSale.sol\":2305:2386  require(_maxContributionWei >= _minContributionWei, \"Invalid contribution range\") */\n  tag_25\n  jumpi\n  mload(0x40)\n  0x08c379a000000000000000000000000000000000000000000000000000000000\n  dup2\n  mstore\n  0x04\n  add\n  tag_26\n  swap1\n  tag_27\n  jump\t// in\ntag_26:\n  mload(0x40)\n  dup1\n  swap2\n  sub\n  swap1\n  revert\ntag_25:\n    /* \"contracts/EduTokenSale.sol\":2413:2414  0 */\n  0x00\n    /* \"contracts/EduTokenSale.sol\":2405:2410  _rate */\n  dup7\n    /* \"contracts/EduTokenSale.sol\":2405:2414  _rate > 0 */\n  gt\n    /* \"contracts/EduTokenSale.sol\":2397:2431  require(_rate > 0, \"Invalid rate\") */\n  tag_28\n  jumpi\n  mload(0x40)\n  0x08c379a000000000000000000000000000000000000000000000000000000000\n  dup2\n  mstore\n  0x04\n  add\n  tag_29\n  swap1\n  tag_30\n  jump\t// in\ntag_29:\n  mload(0x40)\n  dup1\n  swap2\n  sub\n  swap1\n  revert\ntag_28:\n    /* \"contracts/EduTokenSale.sol\":2464:2477  _tokenAddress */\n  dup9\n    /* \"contracts/EduTokenSale.sol\":2444:2478  eduToken = EduToken(_tokenAddress) */\n  0xffffffffffffffffffffffffffffffffffffffff\n  and\n  0x80\n  dup2\n  0xffffffffffffffffffffffffffffffffffffffff\n  and\n  dup2\n  mstore\n  pop\n  pop\n    /* \"contracts/EduTokenSale.sol\":2507:2523  _treasuryManager */\n  dup8\n    /* \"contracts/EduTokenSale.sol\":2489:2504  treasuryManager */\n  0x01\n  0x00\n    /* \"contracts/EduTokenSale.sol\":2489:2523  treasuryManager = _treasuryManager */\n  0x0100\n  exp\n  dup2\n  sload\n  dup2\n  0xffffffffffffffffffffffffffffffffffffffff\n  mul\n  not\n  and\n  swap1\n  dup4\n  0xffffffffffffffffffffffffffffffffffffffff\n  and\n  mul\n  or\n  swap1\n  sstore\n  pop\n    /* \"contracts/EduTokenSale.sol\":2554:2572  _complianceOfficer */\n  dup7\n    /* \"contracts/EduTokenSale.sol\":2534:2551  complianceOfficer */\n  0x02\n  0x00\n    /* \"contracts/EduTokenSale.sol\":2534:2572  complianceOfficer = _complianceOfficer */\n  0x0100\n  exp\n  dup2\n  sload\n  dup2\n  0xffffffffffffffffffffffffffffffffffffffff\n  mul\n  not\n  and\n  swap1\n  dup4\n  0xffffffffffffffffffffffffffffffffffffffff\n  and\n  mul\n  or\n  swap1\n  sstore\n  pop\n    /* \"contracts/EduTokenSale.sol\":2590:2595  _rate */\n  dup6\n    /* \"contracts/EduTokenSale.sol\":2583:2587  rate */\n  0x03\n    /* \"contracts/EduTokenSale.sol\":2583:2595  rate = _rate */\n  dup2\n  swap1\n  sstore\n  pop\n    /* \"contracts/EduTokenSale.sol\":2618:2628  _saleStart */\n  dup5\n    /* \"contracts/EduTokenSale.sol\":2606:2615  saleStart */\n  0x04\n    /* \"contracts/EduTokenSale.sol\":2606:2628  saleStart = _saleStart */\n  dup2\n  swap1\n  sstore\n  pop\n    /* \"contracts/EduTokenSale.sol\":2649:2657  _saleEnd */\n  dup4\n    /* \"contracts/EduTokenSale.sol\":2639:2646  saleEnd */\n  0x05\n    /* \"contracts/EduTokenSale.sol\":2639:2657  saleEnd = _saleEnd */\n  dup2\n  swap1\n  sstore\n  pop\n    /* \"contracts/EduTokenSale.sol\":2689:2708  _minContributionWei */\n  dup3\n    /* \"contracts/EduTokenSale.sol\":2668:2686  minContributionWei */\n  0x06\n    /* \"contracts/EduTokenSale.sol\":2668:2708  minContributionWei = _minContributionWei */\n  dup2\n  swap1\n  sstore\n  pop\n    /* \"contracts/EduTokenSale.sol\":2740:2759  _maxContributionWei */\n  dup2\n    /* \"contracts/EduTokenSale.sol\":2719:2737  maxContributionWei */\n  0x07\n    /* \"contracts/EduTokenSale.sol\":2719:2759  maxContributionWei = _maxContributionWei */\n  dup2\n  swap1\n  sstore\n  pop\n    /* \"contracts/EduTokenSale.sol\":2786:2800  _hardCapTokens */\n  dup1\n    /* \"contracts/EduTokenSale.sol\":2770:2783  hardCapTokens */\n  0x08\n    /* \"contracts/EduTokenSale.sol\":2770:2800  hardCapTokens = _hardCapTokens */\n  dup2\n  swap1\n  sstore\n  pop\n    /* \"contracts/EduTokenSale.sol\":1655:2808  constructor(... */\n  pop\n  pop\n  pop\n  pop\n  pop\n  pop\n  pop\n  pop\n  pop\n  pop\n    /* \"contracts/EduTokenSale.sol\":197:5230  contract EduTokenSale is Ownable, Pausable {... */\n  jump(tag_31)\n    /* \"@openzeppelin/contracts/access/Ownable.sol\":2912:3099  function _transferOwnership(address newOwner) internal virtual {... */\ntag_11:\n    /* \"@openzeppelin/contracts/access/Ownable.sol\":2985:3001  address oldOwner */\n  0x00\n    /* \"@openzeppelin/contracts/access/Ownable.sol\":3004:3010  _owner */\n  0x00\n  0x00\n  swap1\n  sload\n  swap1\n  0x0100\n  exp\n  swap1\n  div\n  0xffffffffffffffffffffffffffffffffffffffff\n  and\n    /* \"@openzeppelin/contracts/access/Ownable.sol\":2985:3010  address oldOwner = _owner */\n  swap1\n  pop\n    /* \"@openzeppelin/contracts/access/Ownable.sol\":3029:3037  newOwner */\n  dup2\n    /* \"@openzeppelin/contracts/access/Ownable.sol\":3020:3026  _owner */\n  0x00\n  0x00\n    /* \"@openzeppelin/contracts/access/Ownable.sol\":3020:3037  _owner = newOwner */\n  0x0100\n  exp\n  dup2\n  sload\n  dup2\n  0xffffffffffffffffffffffffffffffffffffffff\n  mul\n  not\n  and\n  swap1\n  dup4\n  0xffffffffffffffffffffffffffffffffffffffff\n  and\n  mul\n  or\n  swap1\n  sstore\n  pop\n    /* \"@openzeppelin/contracts/access/Ownable.sol\":3083:3091  newOwner */\n  dup2\n    /* \"@openzeppelin/contracts/access/Ownable.sol\":3052:3092  OwnershipTransferred(oldOwner, newOwner) */\n  0xffffffffffffffffffffffffffffffffffffffff\n  and\n    /* \"@openzeppelin/contracts/access/Ownable.sol\":3073:3081  oldOwner */\n  dup2\n    /* \"@openzeppelin/contracts/access/Ownable.sol\":3052:3092  OwnershipTransferred(oldOwner, newOwner) */\n  0xffffffffffffffffffffffffffffffffffffffff\n  and\n  0x8be0079c531659141344cd1fd0a4f28419497f9722a3daafe3b4186f6b6457e0\n  mload(0x40)\n  mload(0x40)\n  dup1\n  swap2\n  sub\n  swap1\n  log3\n    /* \"@openzeppelin/contracts/access/Ownable.sol\":2975:3099  {... */\n  pop\n    /* \"@openzeppelin/contracts/access/Ownable.sol\":2912:3099  function _transferOwnership(address newOwner) internal virtual {... */\n  pop\n  jump\t// out\n    /* \"#utility.yul\":88:205   */\ntag_34:\n    /* \"#utility.yul\":197:198   */\n  0x00\n    /* \"#utility.yul\":194:195   */\n  0x00\n    /* \"#utility.yul\":187:199   */\n  revert\n    /* \"#utility.yul\":334:460   */\ntag_36:\n    /* \"#utility.yul\":371:378   */\n  0x00\n    /* \"#utility.yul\":411:453   */\n  0xffffffffffffffffffffffffffffffffffffffff\n    /* \"#utility.yul\":404:409   */\n  dup3\n    /* \"#utility.yul\":400:454   */\n  and\n    /* \"#utility.yul\":389:454   */\n  swap1\n  pop\n    /* \"#utility.yul\":334:460   */\n  swap2\n  swap1\n  pop\n  jump\t// out\n    /* \"#utility.yul\":466:562   */\ntag_37:\n    /* \"#utility.yul\":503:510   */\n  0x00\n    /* \"#utility.yul\":532:556   */\n  tag_63\n    /* \"#utility.yul\":550:555   */\n  dup3\n    /* \"#utility.yul\":532:556   */\n  tag_36\n  jump\t// in\ntag_63:\n    /* \"#utility.yul\":521:556   */\n  swap1\n  pop\n    /* \"#utility.yul\":466:562   */\n  swap2\n  swap1\n  pop\n  jump\t// out\n    /* \"#utility.yul\":568:690   */\ntag_38:\n    /* \"#utility.yul\":641:665   */\n  tag_65\n    /* \"#utility.yul\":659:664   */\n  dup2\n    /* \"#utility.yul\":641:665   */\n  tag_37\n  jump\t// in\ntag_65:\n    /* \"#utility.yul\":634:639   */\n  dup2\n    /* \"#utility.yul\":631:666   */\n  eq\n    /* \"#utility.yul\":621:684   */\n  tag_66\n  jumpi\n    /* \"#utility.yul\":680:681   */\n  0x00\n    /* \"#utility.yul\":677:678   */\n  0x00\n    /* \"#utility.yul\":670:682   */\n  revert\n    /* \"#utility.yul\":621:684   */\ntag_66:\n    /* \"#utility.yul\":568:690   */\n  pop\n  jump\t// out\n    /* \"#utility.yul\":696:839   */\ntag_39:\n    /* \"#utility.yul\":753:758   */\n  0x00\n    /* \"#utility.yul\":784:790   */\n  dup2\n    /* \"#utility.yul\":778:791   */\n  mload\n    /* \"#utility.yul\":769:791   */\n  swap1\n  pop\n    /* \"#utility.yul\":800:833   */\n  tag_68\n    /* \"#utility.yul\":827:832   */\n  dup2\n    /* \"#utility.yul\":800:833   */\n  tag_38\n  jump\t// in\ntag_68:\n    /* \"#utility.yul\":696:839   */\n  swap3\n  swap2\n  pop\n  pop\n  jump\t// out\n    /* \"#utility.yul\":845:922   */\ntag_40:\n    /* \"#utility.yul\":882:889   */\n  0x00\n    /* \"#utility.yul\":911:916   */\n  dup2\n    /* \"#utility.yul\":900:916   */\n  swap1\n  pop\n    /* \"#utility.yul\":845:922   */\n  swap2\n  swap1\n  pop\n  jump\t// out\n    /* \"#utility.yul\":928:1050   */\ntag_41:\n    /* \"#utility.yul\":1001:1025   */\n  tag_71\n    /* \"#utility.yul\":1019:1024   */\n  dup2\n    /* \"#utility.yul\":1001:1025   */\n  tag_40\n  jump\t// in\ntag_71:\n    /* \"#utility.yul\":994:999   */\n  dup2\n    /* \"#utility.yul\":991:1026   */\n  eq\n    /* \"#utility.yul\":981:1044   */\n  tag_72\n  jumpi\n    /* \"#utility.yul\":1040:1041   */\n  0x00\n    /* \"#utility.yul\":1037:1038   */\n  0x00\n    /* \"#utility.yul\":1030:1042   */\n  revert\n    /* \"#utility.yul\":981:1044   */\ntag_72:\n    /* \"#utility.yul\":928:1050   */\n  pop\n  jump\t// out\n    /* \"#utility.yul\":1056:1199   */\ntag_42:\n    /* \"#utility.yul\":1113:1118   */\n  0x00\n    /* \"#utility.yul\":1144:1150   */\n  dup2\n    /* \"#utility.yul\":1138:1151   */\n  mload\n    /* \"#utility.yul\":1129:1151   */\n  swap1\n  pop\n    /* \"#utility.yul\":1160:1193   */\n  tag_74\n    /* \"#utility.yul\":1187:1192   */\n  dup2\n    /* \"#utility.yul\":1160:1193   */\n  tag_41\n  jump\t// in\ntag_74:\n    /* \"#utility.yul\":1056:1199   */\n  swap3\n  swap2\n  pop\n  pop\n  jump\t// out\n    /* \"#utility.yul\":1205:2967   */\ntag_3:\n    /* \"#utility.yul\":1356:1362   */\n  0x00\n    /* \"#utility.yul\":1364:1370   */\n  0x00\n    /* \"#utility.yul\":1372:1378   */\n  0x00\n    /* \"#utility.yul\":1380:1386   */\n  0x00\n    /* \"#utility.yul\":1388:1394   */\n  0x00\n    /* \"#utility.yul\":1396:1402   */\n  0x00\n    /* \"#utility.yul\":1404:1410   */\n  0x00\n    /* \"#utility.yul\":1412:1418   */\n  0x00\n    /* \"#utility.yul\":1420:1426   */\n  0x00\n    /* \"#utility.yul\":1428:1434   */\n  0x00\n    /* \"#utility.yul\":1477:1480   */\n  0x0140\n    /* \"#utility.yul\":1465:1474   */\n  dup12\n    /* \"#utility.yul\":1456:1463   */\n  dup14\n    /* \"#utility.yul\":1452:1475   */\n  sub\n    /* \"#utility.yul\":1448:1481   */\n  slt\n    /* \"#utility.yul\":1445:1565   */\n  iszero\n  tag_76\n  jumpi\n    /* \"#utility.yul\":1484:1563   */\n  tag_77\n  tag_34\n  jump\t// in\ntag_77:\n    /* \"#utility.yul\":1445:1565   */\ntag_76:\n    /* \"#utility.yul\":1604:1605   */\n  0x00\n    /* \"#utility.yul\":1629:1693   */\n  tag_78\n    /* \"#utility.yul\":1685:1692   */\n  dup14\n    /* \"#utility.yul\":1676:1682   */\n  dup3\n    /* \"#utility.yul\":1665:1674   */\n  dup15\n    /* \"#utility.yul\":1661:1683   */\n  add\n    /* \"#utility.yul\":1629:1693   */\n  tag_39\n  jump\t// in\ntag_78:\n    /* \"#utility.yul\":1619:1693   */\n  swap11\n  pop\n    /* \"#utility.yul\":1575:1703   */\n  pop\n    /* \"#utility.yul\":1742:1744   */\n  0x20\n    /* \"#utility.yul\":1768:1832   */\n  tag_79\n    /* \"#utility.yul\":1824:1831   */\n  dup14\n    /* \"#utility.yul\":1815:1821   */\n  dup3\n    /* \"#utility.yul\":1804:1813   */\n  dup15\n    /* \"#utility.yul\":1800:1822   */\n  add\n    /* \"#utility.yul\":1768:1832   */\n  tag_39\n  jump\t// in\ntag_79:\n    /* \"#utility.yul\":1758:1832   */\n  swap10\n  pop\n    /* \"#utility.yul\":1713:1842   */\n  pop\n    /* \"#utility.yul\":1881:1883   */\n  0x40\n    /* \"#utility.yul\":1907:1971   */\n  tag_80\n    /* \"#utility.yul\":1963:1970   */\n  dup14\n    /* \"#utility.yul\":1954:1960   */\n  dup3\n    /* \"#utility.yul\":1943:1952   */\n  dup15\n    /* \"#utility.yul\":1939:1961   */\n  add\n    /* \"#utility.yul\":1907:1971   */\n  tag_39\n  jump\t// in\ntag_80:\n    /* \"#utility.yul\":1897:1971   */\n  swap9\n  pop\n    /* \"#utility.yul\":1852:1981   */\n  pop\n    /* \"#utility.yul\":2020:2022   */\n  0x60\n    /* \"#utility.yul\":2046:2110   */\n  tag_81\n    /* \"#utility.yul\":2102:2109   */\n  dup14\n    /* \"#utility.yul\":2093:2099   */\n  dup3\n    /* \"#utility.yul\":2082:2091   */\n  dup15\n    /* \"#utility.yul\":2078:2100   */\n  add\n    /* \"#utility.yul\":2046:2110   */\n  tag_39\n  jump\t// in\ntag_81:\n    /* \"#utility.yul\":2036:2110   */\n  swap8\n  pop\n    /* \"#utility.yul\":1991:2120   */\n  pop\n    /* \"#utility.yul\":2159:2162   */\n  0x80\n    /* \"#utility.yul\":2186:2250   */\n  tag_82\n    /* \"#utility.yul\":2242:2249   */\n  dup14\n    /* \"#utility.yul\":2233:2239   */\n  dup3\n    /* \"#utility.yul\":2222:2231   */\n  dup15\n    /* \"#utility.yul\":2218:2240   */\n  add\n    /* \"#utility.yul\":2186:2250   */\n  tag_42\n  jump\t// in\ntag_82:\n    /* \"#utility.yul\":2176:2250   */\n  swap7\n  pop\n    /* \"#utility.yul\":2130:2260   */\n  pop\n    /* \"#utility.yul\":2299:2302   */\n  0xa0\n    /* \"#utility.yul\":2326:2390   */\n  tag_83\n    /* \"#utility.yul\":2382:2389   */\n  dup14\n    /* \"#utility.yul\":2373:2379   */\n  dup3\n    /* \"#utility.yul\":2362:2371   */\n  dup15\n    /* \"#utility.yul\":2358:2380   */\n  add\n    /* \"#utility.yul\":2326:2390   */\n  tag_42\n  jump\t// in\ntag_83:\n    /* \"#utility.yul\":2316:2390   */\n  swap6\n  pop\n    /* \"#utility.yul\":2270:2400   */\n  pop\n    /* \"#utility.yul\":2439:2442   */\n  0xc0\n    /* \"#utility.yul\":2466:2530   */\n  tag_84\n    /* \"#utility.yul\":2522:2529   */\n  dup14\n    /* \"#utility.yul\":2513:2519   */\n  dup3\n    /* \"#utility.yul\":2502:2511   */\n  dup15\n    /* \"#utility.yul\":2498:2520   */\n  add\n    /* \"#utility.yul\":2466:2530   */\n  tag_42\n  jump\t// in\ntag_84:\n    /* \"#utility.yul\":2456:2530   */\n  swap5\n  pop\n    /* \"#utility.yul\":2410:2540   */\n  pop\n    /* \"#utility.yul\":2579:2582   */\n  0xe0\n    /* \"#utility.yul\":2606:2670   */\n  tag_85\n    /* \"#utility.yul\":2662:2669   */\n  dup14\n    /* \"#utility.yul\":2653:2659   */\n  dup3\n    /* \"#utility.yul\":2642:2651   */\n  dup15\n    /* \"#utility.yul\":2638:2660   */\n  add\n    /* \"#utility.yul\":2606:2670   */\n  tag_42\n  jump\t// in\ntag_85:\n    /* \"#utility.yul\":2596:2670   */\n  swap4\n  pop\n    /* \"#utility.yul\":2550:2680   */\n  pop\n    /* \"#utility.yul\":2719:2722   */\n  0x0100\n    /* \"#utility.yul\":2746:2810   */\n  tag_86\n    /* \"#utility.yul\":2802:2809   */\n  dup14\n    /* \"#utility.yul\":2793:2799   */\n  dup3\n    /* \"#utility.yul\":2782:2791   */\n  dup15\n    /* \"#utility.yul\":2778:2800   */\n  add\n    /* \"#utility.yul\":2746:2810   */\n  tag_42\n  jump\t// in\ntag_86:\n    /* \"#utility.yul\":2736:2810   */\n  swap3\n  pop\n    /* \"#utility.yul\":2690:2820   */\n  pop\n    /* \"#utility.yul\":2859:2862   */\n  0x0120\n    /* \"#utility.yul\":2886:2950   */\n  tag_87\n    /* \"#utility.yul\":2942:2949   */\n  dup14\n    /* \"#utility.yul\":2933:2939   */\n  dup3\n    /* \"#utility.yul\":2922:2931   */\n  dup15\n    /* \"#utility.yul\":2918:2940   */\n  add\n    /* \"#utility.yul\":2886:2950   */\n  tag_42\n  jump\t// in\ntag_87:\n    /* \"#utility.yul\":2876:2950   */\n  swap2\n  pop\n    /* \"#utility.yul\":2830:2960   */\n  pop\n    /* \"#utility.yul\":1205:2967   */\n  swap3\n  swap6\n  swap9\n  swap12\n  swap2\n  swap5\n  swap8\n  swap11\n  pop\n  swap3\n  swap6\n  swap9\n  pop\n  jump\t// out\n    /* \"#utility.yul\":2973:3091   */\ntag_43:\n    /* \"#utility.yul\":3060:3084   */\n  tag_89\n    /* \"#utility.yul\":3078:3083   */\n  dup2\n    /* \"#utility.yul\":3060:3084   */\n  tag_37\n  jump\t// in\ntag_89:\n    /* \"#utility.yul\":3055:3058   */\n  dup3\n    /* \"#utility.yul\":3048:3085   */\n  mstore\n    /* \"#utility.yul\":2973:3091   */\n  pop\n  pop\n  jump\t// out\n    /* \"#utility.yul\":3097:3319   */\ntag_9:\n    /* \"#utility.yul\":3190:3194   */\n  0x00\n    /* \"#utility.yul\":3228:3230   */\n  0x20\n    /* \"#utility.yul\":3217:3226   */\n  dup3\n    /* \"#utility.yul\":3213:3231   */\n  add\n    /* \"#utility.yul\":3205:3231   */\n  swap1\n  pop\n    /* \"#utility.yul\":3241:3312   */\n  tag_91\n    /* \"#utility.yul\":3309:3310   */\n  0x00\n    /* \"#utility.yul\":3298:3307   */\n  dup4\n    /* \"#utility.yul\":3294:3311   */\n  add\n    /* \"#utility.yul\":3285:3291   */\n  dup5\n    /* \"#utility.yul\":3241:3312   */\n  tag_43\n  jump\t// in\ntag_91:\n    /* \"#utility.yul\":3097:3319   */\n  swap3\n  swap2\n  pop\n  pop\n  jump\t// out\n    /* \"#utility.yul\":3325:3494   */\ntag_44:\n    /* \"#utility.yul\":3409:3420   */\n  0x00\n    /* \"#utility.yul\":3443:3449   */\n  dup3\n    /* \"#utility.yul\":3438:3441   */\n  dup3\n    /* \"#utility.yul\":3431:3450   */\n  mstore\n    /* \"#utility.yul\":3483:3487   */\n  0x20\n    /* \"#utility.yul\":3478:3481   */\n  dup3\n    /* \"#utility.yul\":3474:3488   */\n  add\n    /* \"#utility.yul\":3459:3488   */\n  swap1\n  pop\n    /* \"#utility.yul\":3325:3494   */\n  swap3\n  swap2\n  pop\n  pop\n  jump\t// out\n    /* \"#utility.yul\":3500:3663   */\ntag_45:\n    /* \"#utility.yul\":3640:3655   */\n  0x496e76616c696420746f6b656e00000000000000000000000000000000000000\n    /* \"#utility.yul\":3636:3637   */\n  0x00\n    /* \"#utility.yul\":3628:3634   */\n  dup3\n    /* \"#utility.yul\":3624:3638   */\n  add\n    /* \"#utility.yul\":3617:3656   */\n  mstore\n    /* \"#utility.yul\":3500:3663   */\n  pop\n  jump\t// out\n    /* \"#utility.yul\":3669:4035   */\ntag_46:\n    /* \"#utility.yul\":3811:3814   */\n  0x00\n    /* \"#utility.yul\":3832:3899   */\n  tag_95\n    /* \"#utility.yul\":3896:3898   */\n  0x0d\n    /* \"#utility.yul\":3891:3894   */\n  dup4\n    /* \"#utility.yul\":3832:3899   */\n  tag_44\n  jump\t// in\ntag_95:\n    /* \"#utility.yul\":3825:3899   */\n  swap2\n  pop\n    /* \"#utility.yul\":3908:4001   */\n  tag_96\n    /* \"#utility.yul\":3997:4000   */\n  dup3\n    /* \"#utility.yul\":3908:4001   */\n  tag_45\n  jump\t// in\ntag_96:\n    /* \"#utility.yul\":4026:4028   */\n  0x20\n    /* \"#utility.yul\":4021:4024   */\n  dup3\n    /* \"#utility.yul\":4017:4029   */\n  add\n    /* \"#utility.yul\":4010:4029   */\n  swap1\n  pop\n    /* \"#utility.yul\":3669:4035   */\n  swap2\n  swap1\n  pop\n  jump\t// out\n    /* \"#utility.yul\":4041:4460   */\ntag_15:\n    /* \"#utility.yul\":4207:4211   */\n  0x00\n    /* \"#utility.yul\":4245:4247   */\n  0x20\n    /* \"#utility.yul\":4234:4243   */\n  dup3\n    /* \"#utility.yul\":4230:4248   */\n  add\n    /* \"#utility.yul\":4222:4248   */\n  swap1\n  pop\n    /* \"#utility.yul\":4294:4303   */\n  dup2\n    /* \"#utility.yul\":4288:4292   */\n  dup2\n    /* \"#utility.yul\":4284:4304   */\n  sub\n    /* \"#utility.yul\":4280:4281   */\n  0x00\n    /* \"#utility.yul\":4269:4278   */\n  dup4\n    /* \"#utility.yul\":4265:4282   */\n  add\n    /* \"#utility.yul\":4258:4305   */\n  mstore\n    /* \"#utility.yul\":4322:4453   */\n  tag_98\n    /* \"#utility.yul\":4448:4452   */\n  dup2\n    /* \"#utility.yul\":4322:4453   */\n  tag_46\n  jump\t// in\ntag_98:\n    /* \"#utility.yul\":4314:4453   */\n  swap1\n  pop\n    /* \"#utility.yul\":4041:4460   */\n  swap2\n  swap1\n  pop\n  jump\t// out\n    /* \"#utility.yul\":4466:4632   */\ntag_47:\n    /* \"#utility.yul\":4606:4624   */\n  0x496e76616c696420747265617375727900000000000000000000000000000000\n    /* \"#utility.yul\":4602:4603   */\n  0x00\n    /* \"#utility.yul\":4594:4600   */\n  dup3\n    /* \"#utility.yul\":4590:4604   */\n  add\n    /* \"#utility.yul\":4583:4625   */\n  mstore\n    /* \"#utility.yul\":4466:4632   */\n  pop\n  jump\t// out\n    /* \"#utility.yul\":4638:5004   */\ntag_48:\n    /* \"#utility.yul\":4780:4783   */\n  0x00\n    /* \"#utility.yul\":4801:4868   */\n  tag_101\n    /* \"#utility.yul\":4865:4867   */\n  0x10\n    /* \"#utility.yul\":4860:4863   */\n  dup4\n    /* \"#utility.yul\":4801:4868   */\n  tag_44\n  jump\t// in\ntag_101:\n    /* \"#utility.yul\":4794:4868   */\n  swap2\n  pop\n    /* \"#utility.yul\":4877:4970   */\n  tag_102\n    /* \"#utility.yul\":4966:4969   */\n  dup3\n    /* \"#utility.yul\":4877:4970   */\n  tag_47\n  jump\t// in\ntag_102:\n    /* \"#utility.yul\":4995:4997   */\n  0x20\n    /* \"#utility.yul\":4990:4993   */\n  dup3\n    /* \"#utility.yul\":4986:4998   */\n  add\n    /* \"#utility.yul\":4979:4998   */\n  swap1\n  pop\n    /* \"#utility.yul\":4638:5004   */\n  swap2\n  swap1\n  pop\n  jump\t// out\n    /* \"#utility.yul\":5010:5429   */\ntag_18:\n    /* \"#utility.yul\":5176:5180   */\n  0x00\n    /* \"#utility.yul\":5214:5216   */\n  0x20\n    /* \"#utility.yul\":5203:5212   */\n  dup3\n    /* \"#utility.yul\":5199:5217   */\n  add\n    /* \"#utility.yul\":5191:5217   */\n  swap1\n  pop\n    /* \"#utility.yul\":5263:5272   */\n  dup2\n    /* \"#utility.yul\":5257:5261   */\n  dup2\n    /* \"#utility.yul\":5253:5273   */\n  sub\n    /* \"#utility.yul\":5249:5250   */\n  0x00\n    /* \"#utility.yul\":5238:5247   */\n  dup4\n    /* \"#utility.yul\":5234:5251   */\n  add\n    /* \"#utility.yul\":5227:5274   */\n  mstore\n    /* \"#utility.yul\":5291:5422   */\n  tag_104\n    /* \"#utility.yul\":5417:5421   */\n  dup2\n    /* \"#utility.yul\":5291:5422   */\n  tag_48\n  jump\t// in\ntag_104:\n    /* \"#utility.yul\":5283:5422   */\n  swap1\n  pop\n    /* \"#utility.yul\":5010:5429   */\n  swap2\n  swap1\n  pop\n  jump\t// out\n    /* \"#utility.yul\":5435:5603   */\ntag_49:\n    /* \"#utility.yul\":5575:5595   */\n  0x496e76616c696420636f6d706c69616e63650000000000000000000000000000\n    /* \"#utility.yul\":5571:5572   */\n  0x00\n    /* \"#utility.yul\":5563:5569   */\n  dup3\n    /* \"#utility.yul\":5559:5573   */\n  add\n    /* \"#utility.yul\":5552:5596   */\n  mstore\n    /* \"#utility.yul\":5435:5603   */\n  pop\n  jump\t// out\n    /* \"#utility.yul\":5609:5975   */\ntag_50:\n    /* \"#utility.yul\":5751:5754   */\n  0x00\n    /* \"#utility.yul\":5772:5839   */\n  tag_107\n    /* \"#utility.yul\":5836:5838   */\n  0x12\n    /* \"#utility.yul\":5831:5834   */\n  dup4\n    /* \"#utility.yul\":5772:5839   */\n  tag_44\n  jump\t// in\ntag_107:\n    /* \"#utility.yul\":5765:5839   */\n  swap2\n  pop\n    /* \"#utility.yul\":5848:5941   */\n  tag_108\n    /* \"#utility.yul\":5937:5940   */\n  dup3\n    /* \"#utility.yul\":5848:5941   */\n  tag_49\n  jump\t// in\ntag_108:\n    /* \"#utility.yul\":5966:5968   */\n  0x20\n    /* \"#utility.yul\":5961:5964   */\n  dup3\n    /* \"#utility.yul\":5957:5969   */\n  add\n    /* \"#utility.yul\":5950:5969   */\n  swap1\n  pop\n    /* \"#utility.yul\":5609:5975   */\n  swap2\n  swap1\n  pop\n  jump\t// out\n    /* \"#utility.yul\":5981:6400   */\ntag_21:\n    /* \"#utility.yul\":6147:6151   */\n  0x00\n    /* \"#utility.yul\":6185:6187   */\n  0x20\n    /* \"#utility.yul\":6174:6183   */\n  dup3\n    /* \"#utility.yul\":6170:6188   */\n  add\n    /* \"#utility.yul\":6162:6188   */\n  swap1\n  pop\n    /* \"#utility.yul\":6234:6243   */\n  dup2\n    /* \"#utility.yul\":6228:6232   */\n  dup2\n    /* \"#utility.yul\":6224:6244   */\n  sub\n    /* \"#utility.yul\":6220:6221   */\n  0x00\n    /* \"#utility.yul\":6209:6218   */\n  dup4\n    /* \"#utility.yul\":6205:6222   */\n  add\n    /* \"#utility.yul\":6198:6245   */\n  mstore\n    /* \"#utility.yul\":6262:6393   */\n  tag_110\n    /* \"#utility.yul\":6388:6392   */\n  dup2\n    /* \"#utility.yul\":6262:6393   */\n  tag_50\n  jump\t// in\ntag_110:\n    /* \"#utility.yul\":6254:6393   */\n  swap1\n  pop\n    /* \"#utility.yul\":5981:6400   */\n  swap2\n  swap1\n  pop\n  jump\t// out\n    /* \"#utility.yul\":6406:6575   */\ntag_51:\n    /* \"#utility.yul\":6546:6567   */\n  0x496e76616c69642073616c652077696e646f7700000000000000000000000000\n    /* \"#utility.yul\":6542:6543   */\n  0x00\n    /* \"#utility.yul\":6534:6540   */\n  dup3\n    /* \"#utility.yul\":6530:6544   */\n  add\n    /* \"#utility.yul\":6523:6568   */\n  mstore\n    /* \"#utility.yul\":6406:6575   */\n  pop\n  jump\t// out\n    /* \"#utility.yul\":6581:6947   */\ntag_52:\n    /* \"#utility.yul\":6723:6726   */\n  0x00\n    /* \"#utility.yul\":6744:6811   */\n  tag_113\n    /* \"#utility.yul\":6808:6810   */\n  0x13\n    /* \"#utility.yul\":6803:6806   */\n  dup4\n    /* \"#utility.yul\":6744:6811   */\n  tag_44\n  jump\t// in\ntag_113:\n    /* \"#utility.yul\":6737:6811   */\n  swap2\n  pop\n    /* \"#utility.yul\":6820:6913   */\n  tag_114\n    /* \"#utility.yul\":6909:6912   */\n  dup3\n    /* \"#utility.yul\":6820:6913   */\n  tag_51\n  jump\t// in\ntag_114:\n    /* \"#utility.yul\":6938:6940   */\n  0x20\n    /* \"#utility.yul\":6933:6936   */\n  dup3\n    /* \"#utility.yul\":6929:6941   */\n  add\n    /* \"#utility.yul\":6922:6941   */\n  swap1\n  pop\n    /* \"#utility.yul\":6581:6947   */\n  swap2\n  swap1\n  pop\n  jump\t// out\n    /* \"#utility.yul\":6953:7372   */\ntag_24:\n    /* \"#utility.yul\":7119:7123   */\n  0x00\n    /* \"#utility.yul\":7157:7159   */\n  0x20\n    /* \"#utility.yul\":7146:7155   */\n  dup3\n    /* \"#utility.yul\":7142:7160   */\n  add\n    /* \"#utility.yul\":7134:7160   */\n  swap1\n  pop\n    /* \"#utility.yul\":7206:7215   */\n  dup2\n    /* \"#utility.yul\":7200:7204   */\n  dup2\n    /* \"#utility.yul\":7196:7216   */\n  sub\n    /* \"#utility.yul\":7192:7193   */\n  0x00\n    /* \"#utility.yul\":7181:7190   */\n  dup4\n    /* \"#utility.yul\":7177:7194   */\n  add\n    /* \"#utility.yul\":7170:7217   */\n  mstore\n    /* \"#utility.yul\":7234:7365   */\n  tag_116\n    /* \"#utility.yul\":7360:7364   */\n  dup2\n    /* \"#utility.yul\":7234:7365   */\n  tag_52\n  jump\t// in\ntag_116:\n    /* \"#utility.yul\":7226:7365   */\n  swap1\n  pop\n    /* \"#utility.yul\":6953:7372   */\n  swap2\n  swap1\n  pop\n  jump\t// out\n    /* \"#utility.yul\":7378:7554   */\ntag_53:\n    /* \"#utility.yul\":7518:7546   */\n  0x496e76616c696420636f6e747269627574696f6e2072616e6765000000000000\n    /* \"#utility.yul\":7514:7515   */\n  0x00\n    /* \"#utility.yul\":7506:7512   */\n  dup3\n    /* \"#utility.yul\":7502:7516   */\n  add\n    /* \"#utility.yul\":7495:7547   */\n  mstore\n    /* \"#utility.yul\":7378:7554   */\n  pop\n  jump\t// out\n    /* \"#utility.yul\":7560:7926   */\ntag_54:\n    /* \"#utility.yul\":7702:7705   */\n  0x00\n    /* \"#utility.yul\":7723:7790   */\n  tag_119\n    /* \"#utility.yul\":7787:7789   */\n  0x1a\n    /* \"#utility.yul\":7782:7785   */\n  dup4\n    /* \"#utility.yul\":7723:7790   */\n  tag_44\n  jump\t// in\ntag_119:\n    /* \"#utility.yul\":7716:7790   */\n  swap2\n  pop\n    /* \"#utility.yul\":7799:7892   */\n  tag_120\n    /* \"#utility.yul\":7888:7891   */\n  dup3\n    /* \"#utility.yul\":7799:7892   */\n  tag_53\n  jump\t// in\ntag_120:\n    /* \"#utility.yul\":7917:7919   */\n  0x20\n    /* \"#utility.yul\":7912:7915   */\n  dup3\n    /* \"#utility.yul\":7908:7920   */\n  add\n    /* \"#utility.yul\":7901:7920   */\n  swap1\n  pop\n    /* \"#utility.yul\":7560:7926   */\n  swap2\n  swap1\n  pop\n  jump\t// out\n    /* \"#utility.yul\":7932:8351   */\ntag_27:\n    /* \"#utility.yul\":8098:8102   */\n  0x00\n    /* \"#utility.yul\":8136:8138   */\n  0x20\n    /* \"#utility.yul\":8125:8134   */\n  dup3\n    /* \"#utility.yul\":8121:8139   */\n  add\n    /* \"#utility.yul\":8113:8139   */\n  swap1\n  pop\n    /* \"#utility.yul\":8185:8194   */\n  dup2\n    /* \"#utility.yul\":8179:8183   */\n  dup2\n    /* \"#utility.yul\":8175:8195   */\n  sub\n    /* \"#utility.yul\":8171:8172   */\n  0x00\n    /* \"#utility.yul\":8160:8169   */\n  dup4\n    /* \"#utility.yul\":8156:8173   */\n  add\n    /* \"#utility.yul\":8149:8196   */\n  mstore\n    /* \"#utility.yul\":8213:8344   */\n  tag_122\n    /* \"#utility.yul\":8339:8343   */\n  dup2\n    /* \"#utility.yul\":8213:8344   */\n  tag_54\n  jump\t// in\ntag_122:\n    /* \"#utility.yul\":8205:8344   */\n  swap1\n  pop\n    /* \"#utility.yul\":7932:8351   */\n  swap2\n  swap1\n  pop\n  jump\t// out\n    /* \"#utility.yul\":8357:8519   */\ntag_55:\n    /* \"#utility.yul\":8497:8511   */\n  0x496e76616c696420726174650000000000000000000000000000000000000000\n    /* \"#utility.yul\":8493:8494   */\n  0x00\n    /* \"#utility.yul\":8485:8491   */\n  dup3\n    /* \"#utility.yul\":8481:8495   */\n  add\n    /* \"#utility.yul\":8474:8512   */\n  mstore\n    /* \"#utility.yul\":8357:8519   */\n  pop\n  jump\t// out\n    /* \"#utility.yul\":8525:8891   */\ntag_56:\n    /* \"#utility.yul\":8667:8670   */\n  0x00\n    /* \"#utility.yul\":8688:8755   */\n  tag_125\n    /* \"#utility.yul\":8752:8754   */\n  0x0c\n    /* \"#utility.yul\":8747:8750   */\n  dup4\n    /* \"#utility.yul\":8688:8755   */\n  tag_44\n  jump\t// in\ntag_125:\n    /* \"#utility.yul\":8681:8755   */\n  swap2\n  pop\n    /* \"#utility.yul\":8764:8857   */\n  tag_126\n    /* \"#utility.yul\":8853:8856   */\n  dup3\n    /* \"#utility.yul\":8764:8857   */\n  tag_55\n  jump\t// in\ntag_126:\n    /* \"#utility.yul\":8882:8884   */\n  0x20\n    /* \"#utility.yul\":8877:8880   */\n  dup3\n    /* \"#utility.yul\":8873:8885   */\n  add\n    /* \"#utility.yul\":8866:8885   */\n  swap1\n  pop\n    /* \"#utility.yul\":8525:8891   */\n  swap2\n  swap1\n  pop\n  jump\t// out\n    /* \"#utility.yul\":8897:9316   */\ntag_30:\n    /* \"#utility.yul\":9063:9067   */\n  0x00\n    /* \"#utility.yul\":9101:9103   */\n  0x20\n    /* \"#utility.yul\":9090:9099   */\n  dup3\n    /* \"#utility.yul\":9086:9104   */\n  add\n    /* \"#utility.yul\":9078:9104   */\n  swap1\n  pop\n    /* \"#utility.yul\":9150:9159   */\n  dup2\n    /* \"#utility.yul\":9144:9148   */\n  dup2\n    /* \"#utility.yul\":9140:9160   */\n  sub\n    /* \"#utility.yul\":9136:9137   */\n  0x00\n    /* \"#utility.yul\":9125:9134   */\n  dup4\n    /* \"#utility.yul\":9121:9138   */\n  add\n    /* \"#utility.yul\":9114:9161   */\n  mstore\n    /* \"#utility.yul\":9178:9309   */\n  tag_128\n    /* \"#utility.yul\":9304:9308   */\n  dup2\n    /* \"#utility.yul\":9178:9309   */\n  tag_56\n  jump\t// in\ntag_128:\n    /* \"#utility.yul\":9170:9309   */\n  swap1\n  pop\n    /* \"#utility.yul\":8897:9316   */\n  swap2\n  swap1\n  pop\n  jump\t// out\n    /* \"contracts/EduTokenSale.sol\":197:5230  contract EduTokenSale is Ownable, Pausable {... */\ntag_31:\n  mload(0x80)\n  codecopy(0x00, dataOffset(sub_0), dataSize(sub_0))\n  0x00\n  assignImmutable(\"0x6ec03fc6a2303ff0283996b05577f38ea45b37619214a3bde5dbe5d42345eefa\")\n  return(0x00, dataSize(sub_0))\nstop\n\nsub_0: assembly {\n        /* \"contracts/EduTokenSale.sol\":197:5230  contract EduTokenSale is Ownable, Pausable {... */\n      mstore(0x40, 0x80)\n      jumpi(tag_1, lt(calldatasize, 0x04))\n      shr(0xe0, calldataload(0x00))\n      dup1\n      0x8d878889\n      gt\n      tag_26\n      jumpi\n      dup1\n      0xc4a56fc8\n      gt\n      tag_27\n      jumpi\n      dup1\n      0xc4a56fc8\n      eq\n      tag_20\n      jumpi\n      dup1\n      0xd0febe4c\n      eq\n      tag_21\n      jumpi\n      dup1\n      0xd7805ece\n      eq\n      tag_22\n      jumpi\n      dup1\n      0xe5f6186d\n      eq\n      tag_23\n      jumpi\n      dup1\n      0xf2fde38b\n      eq\n      tag_24\n      jumpi\n      dup1\n      0xfe47a9f2\n      eq\n      tag_25\n      jumpi\n      jump(tag_1)\n    tag_27:\n      dup1\n      0x8d878889\n      eq\n      tag_14\n      jumpi\n      dup1\n      0x8da5cb5b\n      eq\n      tag_15\n      jumpi\n      dup1\n      0x91294ed1\n      eq\n      tag_16\n      jumpi\n      dup1\n      0xab0bcc41\n      eq\n      tag_17\n      jumpi\n      dup1\n      0xbb33d729\n      eq\n      tag_18\n      jumpi\n      dup1\n      0xc10b9358\n      eq\n      tag_19\n      jumpi\n      jump(tag_1)\n    tag_26:\n      dup1\n      0x547c191a\n      gt\n      tag_28\n      jumpi\n      dup1\n      0x547c191a\n      eq\n      tag_8\n      jumpi\n      dup1\n      0x55367ba9\n      eq\n      tag_9\n      jumpi\n      dup1\n      0x564566a8\n      eq\n      tag_10\n      jumpi\n      dup1\n      0x5c975abb\n      eq\n      tag_11\n      jumpi\n      dup1\n      0x63b20117\n      eq\n      tag_12\n      jumpi\n      dup1\n      0x715018a6\n      eq\n      tag_13\n      jumpi\n      jump(tag_1)\n    tag_28:\n      dup1\n      0x155dd5ee\n      eq\n      tag_2\n      jumpi\n      dup1\n      0x2c4e722e\n      eq\n      tag_3\n      jumpi\n      dup1\n      0x3af32abf\n      eq\n      tag_4\n      jumpi\n      dup1\n      0x3cea70d9\n      eq\n      tag_5\n      jumpi\n      dup1\n      0x4b749535\n      eq\n      tag_6\n      jumpi\n      dup1\n      0x53d6fd59\n      eq\n      tag_7\n      jumpi\n    tag_1:\n      revert(0x00, 0x00)\n        /* \"contracts/EduTokenSale.sol\":4885:5227  function withdrawFunds(uint256 _amountWei) external onlyTreasuryOrOwner {... */\n    tag_2:\n      callvalue\n      dup1\n      iszero\n      tag_29\n      jumpi\n      revert(0x00, 0x00)\n    tag_29:\n      pop\n      tag_30\n      0x04\n      dup1\n      calldatasize\n      sub\n      dup2\n      add\n      swap1\n      tag_31\n      swap2\n      swap1\n      tag_32\n      jump\t// in\n    tag_31:\n      tag_33\n      jump\t// in\n    tag_30:\n      stop\n        /* \"contracts/EduTokenSale.sol\":402:421  uint256 public rate */\n    tag_3:\n      callvalue\n      dup1\n      iszero\n      tag_34\n      jumpi\n      revert(0x00, 0x00)\n    tag_34:\n      pop\n      tag_35\n      tag_36\n      jump\t// in\n    tag_35:\n      mload(0x40)\n      tag_37\n      swap2\n      swap1\n      tag_38\n      jump\t// in\n    tag_37:\n      mload(0x40)\n      dup1\n      swap2\n      sub\n      swap1\n      return\n        /* \"contracts/EduTokenSale.sol\":642:687  mapping(address => bool) public isWhitelisted */\n    tag_4:\n      callvalue\n      dup1\n      iszero\n      tag_39\n      jumpi\n      revert(0x00, 0x00)\n    tag_39:\n      pop\n      tag_40\n      0x04\n      dup1\n      calldatasize\n      sub\n      dup2\n      add\n      swap1\n      tag_41\n      swap2\n      swap1\n      tag_42\n      jump\t// in\n    tag_41:\n      tag_43\n      jump\t// in\n    tag_40:\n      mload(0x40)\n      tag_44\n      swap2\n      swap1\n      tag_45\n      jump\t// in\n    tag_44:\n      mload(0x40)\n      dup1\n      swap2\n      sub\n      swap1\n      return\n        /* \"contracts/EduTokenSale.sol\":324:354  address public treasuryManager */\n    tag_5:\n      callvalue\n      dup1\n      iszero\n      tag_46\n      jumpi\n      revert(0x00, 0x00)\n    tag_46:\n      pop\n      tag_47\n      tag_48\n      jump\t// in\n    tag_47:\n      mload(0x40)\n      tag_49\n      swap2\n      swap1\n      tag_50\n      jump\t// in\n    tag_49:\n      mload(0x40)\n      dup1\n      swap2\n      sub\n      swap1\n      return\n        /* \"contracts/EduTokenSale.sol\":568:596  uint256 public hardCapTokens */\n    tag_6:\n      callvalue\n      dup1\n      iszero\n      tag_51\n      jumpi\n      revert(0x00, 0x00)\n    tag_51:\n      pop\n      tag_52\n      tag_53\n      jump\t// in\n    tag_52:\n      mload(0x40)\n      tag_54\n      swap2\n      swap1\n      tag_38\n      jump\t// in\n    tag_54:\n      mload(0x40)\n      dup1\n      swap2\n      sub\n      swap1\n      return\n        /* \"contracts/EduTokenSale.sol\":2852:3058  function setWhitelist(address _walletAddress, bool _status) external onlyComplianceOrOwner {... */\n    tag_7:\n      callvalue\n      dup1\n      iszero\n      tag_55\n      jumpi\n      revert(0x00, 0x00)\n    tag_55:\n      pop\n      tag_56\n      0x04\n      dup1\n      calldatasize\n      sub\n      dup2\n      add\n      swap1\n      tag_57\n      swap2\n      swap1\n      tag_58\n      jump\t// in\n    tag_57:\n      tag_59\n      jump\t// in\n    tag_56:\n      stop\n        /* \"contracts/EduTokenSale.sol\":3338:3618  function setComplianceOfficer(address _newComplianceOfficer) external onlyOwner {... */\n    tag_8:\n      callvalue\n      dup1\n      iszero\n      tag_60\n      jumpi\n      revert(0x00, 0x00)\n    tag_60:\n      pop\n      tag_61\n      0x04\n      dup1\n      calldatasize\n      sub\n      dup2\n      add\n      swap1\n      tag_62\n      swap2\n      swap1\n      tag_42\n      jump\t// in\n    tag_62:\n      tag_63\n      jump\t// in\n    tag_61:\n      stop\n        /* \"contracts/EduTokenSale.sol\":3626:3731  function pauseSale() external onlyOwner {... */\n    tag_9:\n      callvalue\n      dup1\n      iszero\n      tag_64\n      jumpi\n      revert(0x00, 0x00)\n    tag_64:\n      pop\n      tag_65\n      tag_66\n      jump\t// in\n    tag_65:\n      stop\n        /* \"contracts/EduTokenSale.sol\":3858:4008  function isSaleActive() external view returns (bool) {... */\n    tag_10:\n      callvalue\n      dup1\n      iszero\n      tag_67\n      jumpi\n      revert(0x00, 0x00)\n    tag_67:\n      pop\n      tag_68\n      tag_69\n      jump\t// in\n    tag_68:\n      mload(0x40)\n      tag_70\n      swap2\n      swap1\n      tag_45\n      jump\t// in\n    tag_70:\n      mload(0x40)\n      dup1\n      swap2\n      sub\n      swap1\n      return\n        /* \"@openzeppelin/contracts/utils/Pausable.sol\":1726:1810  function paused() public view virtual returns (bool) {... */\n    tag_11:\n      callvalue\n      dup1\n      iszero\n      tag_71\n      jumpi\n      revert(0x00, 0x00)\n    tag_71:\n      pop\n      tag_72\n      tag_73\n      jump\t// in\n    tag_72:\n      mload(0x40)\n      tag_74\n      swap2\n      swap1\n      tag_45\n      jump\t// in\n    tag_74:\n      mload(0x40)\n      dup1\n      swap2\n      sub\n      swap1\n      return\n        /* \"contracts/EduTokenSale.sol\":603:633  uint256 public totalTokensSold */\n    tag_12:\n      callvalue\n      dup1\n      iszero\n      tag_75\n      jumpi\n      revert(0x00, 0x00)\n    tag_75:\n      pop\n      tag_76\n      tag_77\n      jump\t// in\n    tag_76:\n      mload(0x40)\n      tag_78\n      swap2\n      swap1\n      tag_38\n      jump\t// in\n    tag_78:\n      mload(0x40)\n      dup1\n      swap2\n      sub\n      swap1\n      return\n        /* \"@openzeppelin/contracts/access/Ownable.sol\":2293:2394  function renounceOwnership() public virtual onlyOwner {... */\n    tag_13:\n      callvalue\n      dup1\n      iszero\n      tag_79\n      jumpi\n      revert(0x00, 0x00)\n    tag_79:\n      pop\n      tag_80\n      tag_81\n      jump\t// in\n    tag_80:\n      stop\n        /* \"contracts/EduTokenSale.sol\":283:317  EduToken public immutable eduToken */\n    tag_14:\n      callvalue\n      dup1\n      iszero\n      tag_82\n      jumpi\n      revert(0x00, 0x00)\n    tag_82:\n      pop\n      tag_83\n      tag_84\n      jump\t// in\n    tag_83:\n      mload(0x40)\n      tag_85\n      swap2\n      swap1\n      tag_86\n      jump\t// in\n    tag_85:\n      mload(0x40)\n      dup1\n      swap2\n      sub\n      swap1\n      return\n        /* \"@openzeppelin/contracts/access/Ownable.sol\":1638:1723  function owner() public view virtual returns (address) {... */\n    tag_15:\n      callvalue\n      dup1\n      iszero\n      tag_87\n      jumpi\n      revert(0x00, 0x00)\n    tag_87:\n      pop\n      tag_88\n      tag_89\n      jump\t// in\n    tag_88:\n      mload(0x40)\n      tag_90\n      swap2\n      swap1\n      tag_50\n      jump\t// in\n    tag_90:\n      mload(0x40)\n      dup1\n      swap2\n      sub\n      swap1\n      return\n        /* \"contracts/EduTokenSale.sol\":488:521  uint256 public minContributionWei */\n    tag_16:\n      callvalue\n      dup1\n      iszero\n      tag_91\n      jumpi\n      revert(0x00, 0x00)\n    tag_91:\n      pop\n      tag_92\n      tag_93\n      jump\t// in\n    tag_92:\n      mload(0x40)\n      tag_94\n      swap2\n      swap1\n      tag_38\n      jump\t// in\n    tag_94:\n      mload(0x40)\n      dup1\n      swap2\n      sub\n      swap1\n      return\n        /* \"contracts/EduTokenSale.sol\":428:452  uint256 public saleStart */\n    tag_17:\n      callvalue\n      dup1\n      iszero\n      tag_95\n      jumpi\n      revert(0x00, 0x00)\n    tag_95:\n      pop\n      tag_96\n      tag_97\n      jump\t// in\n    tag_96:\n      mload(0x40)\n      tag_98\n      swap2\n      swap1\n      tag_38\n      jump\t// in\n    tag_98:\n      mload(0x40)\n      dup1\n      swap2\n      sub\n      swap1\n      return\n        /* \"contracts/EduTokenSale.sol\":3739:3850  function unpauseSale() external onlyOwner {... */\n    tag_18:\n      callvalue\n      dup1\n      iszero\n      tag_99\n      jumpi\n      revert(0x00, 0x00)\n    tag_99:\n      pop\n      tag_100\n      tag_101\n      jump\t// in\n    tag_100:\n      stop\n        /* \"contracts/EduTokenSale.sol\":459:481  uint256 public saleEnd */\n    tag_19:\n      callvalue\n      dup1\n      iszero\n      tag_102\n      jumpi\n      revert(0x00, 0x00)\n    tag_102:\n      pop\n      tag_103\n      tag_104\n      jump\t// in\n    tag_103:\n      mload(0x40)\n      tag_105\n      swap2\n      swap1\n      tag_38\n      jump\t// in\n    tag_105:\n      mload(0x40)\n      dup1\n      swap2\n      sub\n      swap1\n      return\n        /* \"contracts/EduTokenSale.sol\":361:393  address public complianceOfficer */\n    tag_20:\n      callvalue\n      dup1\n      iszero\n      tag_106\n      jumpi\n      revert(0x00, 0x00)\n    tag_106:\n      pop\n      tag_107\n      tag_108\n      jump\t// in\n    tag_107:\n      mload(0x40)\n      tag_109\n      swap2\n      swap1\n      tag_50\n      jump\t// in\n    tag_109:\n      mload(0x40)\n      dup1\n      swap2\n      sub\n      swap1\n      return\n        /* \"contracts/EduTokenSale.sol\":4016:4877  function buyTokens() external payable whenNotPaused {... */\n    tag_21:\n      tag_110\n      tag_111\n      jump\t// in\n    tag_110:\n      stop\n        /* \"contracts/EduTokenSale.sol\":694:743  mapping(address => uint256) public contributionOf */\n    tag_22:\n      callvalue\n      dup1\n      iszero\n      tag_112\n      jumpi\n      revert(0x00, 0x00)\n    tag_112:\n      pop\n      tag_113\n      0x04\n      dup1\n      calldatasize\n      sub\n      dup2\n      add\n      swap1\n      tag_114\n      swap2\n      swap1\n      tag_42\n      jump\t// in\n    tag_114:\n      tag_115\n      jump\t// in\n    tag_113:\n      mload(0x40)\n      tag_116\n      swap2\n      swap1\n      tag_38\n      jump\t// in\n    tag_116:\n      mload(0x40)\n      dup1\n      swap2\n      sub\n      swap1\n      return\n        /* \"contracts/EduTokenSale.sol\":528:561  uint256 public maxContributionWei */\n    tag_23:\n      callvalue\n      dup1\n      iszero\n      tag_117\n      jumpi\n      revert(0x00, 0x00)\n    tag_117:\n      pop\n      tag_118\n      tag_119\n      jump\t// in\n    tag_118:\n      mload(0x40)\n      tag_120\n      swap2\n      swap1\n      tag_38\n      jump\t// in\n    tag_120:\n      mload(0x40)\n      dup1\n      swap2\n      sub\n      swap1\n      return\n        /* \"@openzeppelin/contracts/access/Ownable.sol\":2543:2758  function transferOwnership(address newOwner) public virtual onlyOwner {... */\n    tag_24:\n      callvalue\n      dup1\n      iszero\n      tag_121\n      jumpi\n      revert(0x00, 0x00)\n    tag_121:\n      pop\n      tag_122\n      0x04\n      dup1\n      calldatasize\n      sub\n      dup2\n      add\n      swap1\n      tag_123\n      swap2\n      swap1\n      tag_42\n      jump\t// in\n    tag_123:\n      tag_124\n      jump\t// in\n    tag_122:\n      stop\n        /* \"contracts/EduTokenSale.sol\":3066:3330  function setTreasuryManager(address _newTreasuryManager) external onlyOwner {... */\n    tag_25:\n      callvalue\n      dup1\n      iszero\n      tag_125\n      jumpi\n      revert(0x00, 0x00)\n    tag_125:\n      pop\n      tag_126\n      0x04\n      dup1\n      calldatasize\n      sub\n      dup2\n      add\n      swap1\n      tag_127\n      swap2\n      swap1\n      tag_42\n      jump\t// in\n    tag_127:\n      tag_128\n      jump\t// in\n    tag_126:\n      stop\n        /* \"contracts/EduTokenSale.sol\":4885:5227  function withdrawFunds(uint256 _amountWei) external onlyTreasuryOrOwner {... */\n    tag_33:\n        /* \"contracts/EduTokenSale.sol\":1381:1396  treasuryManager */\n      0x01\n      0x00\n      swap1\n      sload\n      swap1\n      0x0100\n      exp\n      swap1\n      div\n      0xffffffffffffffffffffffffffffffffffffffff\n      and\n        /* \"contracts/EduTokenSale.sol\":1367:1396  msg.sender == treasuryManager */\n      0xffffffffffffffffffffffffffffffffffffffff\n      and\n        /* \"contracts/EduTokenSale.sol\":1367:1377  msg.sender */\n      caller\n        /* \"contracts/EduTokenSale.sol\":1367:1396  msg.sender == treasuryManager */\n      0xffffffffffffffffffffffffffffffffffffffff\n      and\n      eq\n        /* \"contracts/EduTokenSale.sol\":1367:1421  msg.sender == treasuryManager || msg.sender == owner() */\n      dup1\n      tag_130\n      jumpi\n      pop\n        /* \"contracts/EduTokenSale.sol\":1414:1421  owner() */\n      tag_131\n        /* \"contracts/EduTokenSale.sol\":1414:1419  owner */\n      tag_89\n        /* \"contracts/EduTokenSale.sol\":1414:1421  owner() */\n      jump\t// in\n    tag_131:\n        /* \"contracts/EduTokenSale.sol\":1400:1421  msg.sender == owner() */\n      0xffffffffffffffffffffffffffffffffffffffff\n      and\n        /* \"contracts/EduTokenSale.sol\":1400:1410  msg.sender */\n      caller\n        /* \"contracts/EduTokenSale.sol\":1400:1421  msg.sender == owner() */\n      0xffffffffffffffffffffffffffffffffffffffff\n      and\n      eq\n        /* \"contracts/EduTokenSale.sol\":1367:1421  msg.sender == treasuryManager || msg.sender == owner() */\n    tag_130:\n        /* \"contracts/EduTokenSale.sol\":1359:1440  require(msg.sender == treasuryManager || msg.sender == owner(), \"Not authorized\") */\n      tag_132\n      jumpi\n      mload(0x40)\n      0x08c379a000000000000000000000000000000000000000000000000000000000\n      dup2\n      mstore\n      0x04\n      add\n      tag_133\n      swap1\n      tag_134\n      jump\t// in\n    tag_133:\n      mload(0x40)\n      dup1\n      swap2\n      sub\n      swap1\n      revert\n    tag_132:\n        /* \"contracts/EduTokenSale.sol\":5001:5011  _amountWei */\n      dup1\n        /* \"contracts/EduTokenSale.sol\":4976:4997  address(this).balance */\n      selfbalance\n        /* \"contracts/EduTokenSale.sol\":4976:5011  address(this).balance >= _amountWei */\n      lt\n      iszero\n        /* \"contracts/EduTokenSale.sol\":4968:5032  require(address(this).balance >= _amountWei, \"Insufficient ETH\") */\n      tag_136\n      jumpi\n      mload(0x40)\n      0x08c379a000000000000000000000000000000000000000000000000000000000\n      dup2\n      mstore\n      0x04\n      add\n      tag_137\n      swap1\n      tag_138\n      jump\t// in\n    tag_137:\n      mload(0x40)\n      dup1\n      swap2\n      sub\n      swap1\n      revert\n    tag_136:\n        /* \"contracts/EduTokenSale.sol\":5044:5056  bool success */\n      0x00\n        /* \"contracts/EduTokenSale.sol\":5070:5085  treasuryManager */\n      0x01\n      0x00\n      swap1\n      sload\n      swap1\n      0x0100\n      exp\n      swap1\n      div\n      0xffffffffffffffffffffffffffffffffffffffff\n      and\n        /* \"contracts/EduTokenSale.sol\":5062:5091  payable(treasuryManager).call */\n      0xffffffffffffffffffffffffffffffffffffffff\n      and\n        /* \"contracts/EduTokenSale.sol\":5099:5109  _amountWei */\n      dup3\n        /* \"contracts/EduTokenSale.sol\":5062:5114  payable(treasuryManager).call{value: _amountWei}(\"\") */\n      mload(0x40)\n      tag_139\n      swap1\n      tag_140\n      jump\t// in\n    tag_139:\n      0x00\n      mload(0x40)\n      dup1\n      dup4\n      sub\n      dup2\n      dup6\n      dup8\n      gas\n      call\n      swap3\n      pop\n      pop\n      pop\n      returndatasize\n      dup1\n      0x00\n      dup2\n      eq\n      tag_143\n      jumpi\n      mload(0x40)\n      swap2\n      pop\n      and(add(returndatasize, 0x3f), not(0x1f))\n      dup3\n      add\n      0x40\n      mstore\n      returndatasize\n      dup3\n      mstore\n      returndatasize\n      0x00\n      0x20\n      dup5\n      add\n      returndatacopy\n      jump(tag_142)\n    tag_143:\n      0x60\n      swap2\n      pop\n    tag_142:\n      pop\n        /* \"contracts/EduTokenSale.sol\":5043:5114  (bool success, ) = payable(treasuryManager).call{value: _amountWei}(\"\") */\n      pop\n      swap1\n      pop\n        /* \"contracts/EduTokenSale.sol\":5133:5140  success */\n      dup1\n        /* \"contracts/EduTokenSale.sol\":5125:5160  require(success, \"Withdraw failed\") */\n      tag_144\n      jumpi\n      mload(0x40)\n      0x08c379a000000000000000000000000000000000000000000000000000000000\n      dup2\n      mstore\n      0x04\n      add\n      tag_145\n      swap1\n      tag_146\n      jump\t// in\n    tag_145:\n      mload(0x40)\n      dup1\n      swap2\n      sub\n      swap1\n      revert\n    tag_144:\n        /* \"contracts/EduTokenSale.sol\":5191:5206  treasuryManager */\n      0x01\n      0x00\n      swap1\n      sload\n      swap1\n      0x0100\n      exp\n      swap1\n      div\n      0xffffffffffffffffffffffffffffffffffffffff\n      and\n        /* \"contracts/EduTokenSale.sol\":5176:5219  FundsWithdrawn(treasuryManager, _amountWei) */\n      0xffffffffffffffffffffffffffffffffffffffff\n      and\n      0xeaff4b37086828766ad3268786972c0cd24259d4c87a80f9d3963a3c3d999b0d\n        /* \"contracts/EduTokenSale.sol\":5208:5218  _amountWei */\n      dup4\n        /* \"contracts/EduTokenSale.sol\":5176:5219  FundsWithdrawn(treasuryManager, _amountWei) */\n      mload(0x40)\n      tag_147\n      swap2\n      swap1\n      tag_38\n      jump\t// in\n    tag_147:\n      mload(0x40)\n      dup1\n      swap2\n      sub\n      swap1\n      log2\n        /* \"contracts/EduTokenSale.sol\":4957:5227  {... */\n      pop\n        /* \"contracts/EduTokenSale.sol\":4885:5227  function withdrawFunds(uint256 _amountWei) external onlyTreasuryOrOwner {... */\n      pop\n      jump\t// out\n        /* \"contracts/EduTokenSale.sol\":402:421  uint256 public rate */\n    tag_36:\n      sload(0x03)\n      dup2\n      jump\t// out\n        /* \"contracts/EduTokenSale.sol\":642:687  mapping(address => bool) public isWhitelisted */\n    tag_43:\n      mstore(0x20, 0x0a)\n      dup1\n      0x00\n      mstore\n      keccak256(0x00, 0x40)\n      0x00\n      swap2\n      pop\n      sload\n      swap1\n      0x0100\n      exp\n      swap1\n      div\n      0xff\n      and\n      dup2\n      jump\t// out\n        /* \"contracts/EduTokenSale.sol\":324:354  address public treasuryManager */\n    tag_48:\n      0x01\n      0x00\n      swap1\n      sload\n      swap1\n      0x0100\n      exp\n      swap1\n      div\n      0xffffffffffffffffffffffffffffffffffffffff\n      and\n      dup2\n      jump\t// out\n        /* \"contracts/EduTokenSale.sol\":568:596  uint256 public hardCapTokens */\n    tag_53:\n      sload(0x08)\n      dup2\n      jump\t// out\n        /* \"contracts/EduTokenSale.sol\":2852:3058  function setWhitelist(address _walletAddress, bool _status) external onlyComplianceOrOwner {... */\n    tag_59:\n        /* \"contracts/EduTokenSale.sol\":1534:1551  complianceOfficer */\n      0x02\n      0x00\n      swap1\n      sload\n      swap1\n      0x0100\n      exp\n      swap1\n      div\n      0xffffffffffffffffffffffffffffffffffffffff\n      and\n        /* \"contracts/EduTokenSale.sol\":1520:1551  msg.sender == complianceOfficer */\n      0xffffffffffffffffffffffffffffffffffffffff\n      and\n        /* \"contracts/EduTokenSale.sol\":1520:1530  msg.sender */\n      caller\n        /* \"contracts/EduTokenSale.sol\":1520:1551  msg.sender == complianceOfficer */\n      0xffffffffffffffffffffffffffffffffffffffff\n      and\n      eq\n        /* \"contracts/EduTokenSale.sol\":1520:1576  msg.sender == complianceOfficer || msg.sender == owner() */\n      dup1\n      tag_149\n      jumpi\n      pop\n        /* \"contracts/EduTokenSale.sol\":1569:1576  owner() */\n      tag_150\n        /* \"contracts/EduTokenSale.sol\":1569:1574  owner */\n      tag_89\n        /* \"contracts/EduTokenSale.sol\":1569:1576  owner() */\n      jump\t// in\n    tag_150:\n        /* \"contracts/EduTokenSale.sol\":1555:1576  msg.sender == owner() */\n      0xffffffffffffffffffffffffffffffffffffffff\n      and\n        /* \"contracts/EduTokenSale.sol\":1555:1565  msg.sender */\n      caller\n        /* \"contracts/EduTokenSale.sol\":1555:1576  msg.sender == owner() */\n      0xffffffffffffffffffffffffffffffffffffffff\n      and\n      eq\n        /* \"contracts/EduTokenSale.sol\":1520:1576  msg.sender == complianceOfficer || msg.sender == owner() */\n    tag_149:\n        /* \"contracts/EduTokenSale.sol\":1512:1595  require(msg.sender == complianceOfficer || msg.sender == owner(), \"Not authorized\") */\n      tag_151\n      jumpi\n      mload(0x40)\n      0x08c379a000000000000000000000000000000000000000000000000000000000\n      dup2\n      mstore\n      0x04\n      add\n      tag_152\n      swap1\n      tag_134\n      jump\t// in\n    tag_152:\n      mload(0x40)\n      dup1\n      swap2\n      sub\n      swap1\n      revert\n    tag_151:\n        /* \"contracts/EduTokenSale.sol\":2986:2993  _status */\n      dup1\n        /* \"contracts/EduTokenSale.sol\":2954:2967  isWhitelisted */\n      0x0a\n        /* \"contracts/EduTokenSale.sol\":2954:2983  isWhitelisted[_walletAddress] */\n      0x00\n        /* \"contracts/EduTokenSale.sol\":2968:2982  _walletAddress */\n      dup5\n        /* \"contracts/EduTokenSale.sol\":2954:2983  isWhitelisted[_walletAddress] */\n      0xffffffffffffffffffffffffffffffffffffffff\n      and\n      0xffffffffffffffffffffffffffffffffffffffff\n      and\n      dup2\n      mstore\n      0x20\n      add\n      swap1\n      dup2\n      mstore\n      0x20\n      add\n      0x00\n      keccak256\n      0x00\n        /* \"contracts/EduTokenSale.sol\":2954:2993  isWhitelisted[_walletAddress] = _status */\n      0x0100\n      exp\n      dup2\n      sload\n      dup2\n      0xff\n      mul\n      not\n      and\n      swap1\n      dup4\n      iszero\n      iszero\n      mul\n      or\n      swap1\n      sstore\n      pop\n        /* \"contracts/EduTokenSale.sol\":3026:3040  _walletAddress */\n      dup2\n        /* \"contracts/EduTokenSale.sol\":3009:3050  WhitelistUpdated(_walletAddress, _status) */\n      0xffffffffffffffffffffffffffffffffffffffff\n      and\n      0xf93f9a76c1bf3444d22400a00cb9fe990e6abe9dbb333fda48859cfee864543d\n        /* \"contracts/EduTokenSale.sol\":3042:3049  _status */\n      dup3\n        /* \"contracts/EduTokenSale.sol\":3009:3050  WhitelistUpdated(_walletAddress, _status) */\n      mload(0x40)\n      tag_154\n      swap2\n      swap1\n      tag_45\n      jump\t// in\n    tag_154:\n      mload(0x40)\n      dup1\n      swap2\n      sub\n      swap1\n      log2\n        /* \"contracts/EduTokenSale.sol\":2852:3058  function setWhitelist(address _walletAddress, bool _status) external onlyComplianceOrOwner {... */\n      pop\n      pop\n      jump\t// out\n        /* \"contracts/EduTokenSale.sol\":3338:3618  function setComplianceOfficer(address _newComplianceOfficer) external onlyOwner {... */\n    tag_63:\n        /* \"@openzeppelin/contracts/access/Ownable.sol\":1531:1544  _checkOwner() */\n      tag_156\n        /* \"@openzeppelin/contracts/access/Ownable.sol\":1531:1542  _checkOwner */\n      tag_157\n        /* \"@openzeppelin/contracts/access/Ownable.sol\":1531:1544  _checkOwner() */\n      jump\t// in\n    tag_156:\n        /* \"contracts/EduTokenSale.sol\":3470:3471  0 */\n      0x00\n        /* \"contracts/EduTokenSale.sol\":3437:3472  _newComplianceOfficer != address(0) */\n      0xffffffffffffffffffffffffffffffffffffffff\n      and\n        /* \"contracts/EduTokenSale.sol\":3437:3458  _newComplianceOfficer */\n      dup2\n        /* \"contracts/EduTokenSale.sol\":3437:3472  _newComplianceOfficer != address(0) */\n      0xffffffffffffffffffffffffffffffffffffffff\n      and\n      sub\n        /* \"contracts/EduTokenSale.sol\":3429:3495  require(_newComplianceOfficer != address(0), \"Invalid compliance\") */\n      tag_159\n      jumpi\n      mload(0x40)\n      0x08c379a000000000000000000000000000000000000000000000000000000000\n      dup2\n      mstore\n      0x04\n      add\n      tag_160\n      swap1\n      tag_161\n      jump\t// in\n    tag_160:\n      mload(0x40)\n      dup1\n      swap2\n      sub\n      swap1\n      revert\n    tag_159:\n        /* \"contracts/EduTokenSale.sol\":3526:3547  _newComplianceOfficer */\n      dup1\n        /* \"contracts/EduTokenSale.sol\":3506:3523  complianceOfficer */\n      0x02\n      0x00\n        /* \"contracts/EduTokenSale.sol\":3506:3547  complianceOfficer = _newComplianceOfficer */\n      0x0100\n      exp\n      dup2\n      sload\n      dup2\n      0xffffffffffffffffffffffffffffffffffffffff\n      mul\n      not\n      and\n      swap1\n      dup4\n      0xffffffffffffffffffffffffffffffffffffffff\n      and\n      mul\n      or\n      swap1\n      sstore\n      pop\n        /* \"contracts/EduTokenSale.sol\":3588:3609  _newComplianceOfficer */\n      dup1\n        /* \"contracts/EduTokenSale.sol\":3563:3610  ComplianceOfficerUpdated(_newComplianceOfficer) */\n      0xffffffffffffffffffffffffffffffffffffffff\n      and\n      0x18a9ec34afbceac1ea30fd2b9b5d78e31a0840f468234b6714209860ff5d184f\n      mload(0x40)\n      mload(0x40)\n      dup1\n      swap2\n      sub\n      swap1\n      log2\n        /* \"contracts/EduTokenSale.sol\":3338:3618  function setComplianceOfficer(address _newComplianceOfficer) external onlyOwner {... */\n      pop\n      jump\t// out\n        /* \"contracts/EduTokenSale.sol\":3626:3731  function pauseSale() external onlyOwner {... */\n    tag_66:\n        /* \"@openzeppelin/contracts/access/Ownable.sol\":1531:1544  _checkOwner() */\n      tag_163\n        /* \"@openzeppelin/contracts/access/Ownable.sol\":1531:1542  _checkOwner */\n      tag_157\n        /* \"@openzeppelin/contracts/access/Ownable.sol\":1531:1544  _checkOwner() */\n      jump\t// in\n    tag_163:\n        /* \"contracts/EduTokenSale.sol\":3677:3685  _pause() */\n      tag_165\n        /* \"contracts/EduTokenSale.sol\":3677:3683  _pause */\n      tag_166\n        /* \"contracts/EduTokenSale.sol\":3677:3685  _pause() */\n      jump\t// in\n    tag_165:\n        /* \"contracts/EduTokenSale.sol\":3712:3722  msg.sender */\n      caller\n        /* \"contracts/EduTokenSale.sol\":3701:3723  SalePaused(msg.sender) */\n      0xffffffffffffffffffffffffffffffffffffffff\n      and\n      0xd5e13ff83aeff77a13ff79d42763d4321ee52cd9176d6a6942a44abb945a39a9\n      mload(0x40)\n      mload(0x40)\n      dup1\n      swap2\n      sub\n      swap1\n      log2\n        /* \"contracts/EduTokenSale.sol\":3626:3731  function pauseSale() external onlyOwner {... */\n      jump\t// out\n        /* \"contracts/EduTokenSale.sol\":3858:4008  function isSaleActive() external view returns (bool) {... */\n    tag_69:\n        /* \"contracts/EduTokenSale.sol\":3905:3909  bool */\n      0x00\n        /* \"contracts/EduTokenSale.sol\":3930:3938  paused() */\n      tag_168\n        /* \"contracts/EduTokenSale.sol\":3930:3936  paused */\n      tag_73\n        /* \"contracts/EduTokenSale.sol\":3930:3938  paused() */\n      jump\t// in\n    tag_168:\n        /* \"contracts/EduTokenSale.sol\":3929:3938  !paused() */\n      iszero\n        /* \"contracts/EduTokenSale.sol\":3929:3970  !paused() && block.timestamp >= saleStart */\n      dup1\n      iszero\n      tag_169\n      jumpi\n      pop\n        /* \"contracts/EduTokenSale.sol\":3961:3970  saleStart */\n      sload(0x04)\n        /* \"contracts/EduTokenSale.sol\":3942:3957  block.timestamp */\n      timestamp\n        /* \"contracts/EduTokenSale.sol\":3942:3970  block.timestamp >= saleStart */\n      lt\n      iszero\n        /* \"contracts/EduTokenSale.sol\":3929:3970  !paused() && block.timestamp >= saleStart */\n    tag_169:\n        /* \"contracts/EduTokenSale.sol\":3929:4000  !paused() && block.timestamp >= saleStart && block.timestamp <= saleEnd */\n      dup1\n      iszero\n      tag_170\n      jumpi\n      pop\n        /* \"contracts/EduTokenSale.sol\":3993:4000  saleEnd */\n      sload(0x05)\n        /* \"contracts/EduTokenSale.sol\":3974:3989  block.timestamp */\n      timestamp\n        /* \"contracts/EduTokenSale.sol\":3974:4000  block.timestamp <= saleEnd */\n      gt\n      iszero\n        /* \"contracts/EduTokenSale.sol\":3929:4000  !paused() && block.timestamp >= saleStart && block.timestamp <= saleEnd */\n    tag_170:\n        /* \"contracts/EduTokenSale.sol\":3922:4000  return !paused() && block.timestamp >= saleStart && block.timestamp <= saleEnd */\n      swap1\n      pop\n        /* \"contracts/EduTokenSale.sol\":3858:4008  function isSaleActive() external view returns (bool) {... */\n      swap1\n      jump\t// out\n        /* \"@openzeppelin/contracts/utils/Pausable.sol\":1726:1810  function paused() public view virtual returns (bool) {... */\n    tag_73:\n        /* \"@openzeppelin/contracts/utils/Pausable.sol\":1773:1777  bool */\n      0x00\n        /* \"@openzeppelin/contracts/utils/Pausable.sol\":1796:1803  _paused */\n      0x00\n      0x14\n      swap1\n      sload\n      swap1\n      0x0100\n      exp\n      swap1\n      div\n      0xff\n      and\n        /* \"@openzeppelin/contracts/utils/Pausable.sol\":1789:1803  return _paused */\n      swap1\n      pop\n        /* \"@openzeppelin/contracts/utils/Pausable.sol\":1726:1810  function paused() public view virtual returns (bool) {... */\n      swap1\n      jump\t// out\n        /* \"contracts/EduTokenSale.sol\":603:633  uint256 public totalTokensSold */\n    tag_77:\n      sload(0x09)\n      dup2\n      jump\t// out\n        /* \"@openzeppelin/contracts/access/Ownable.sol\":2293:2394  function renounceOwnership() public virtual onlyOwner {... */\n    tag_81:\n        /* \"@openzeppelin/contracts/access/Ownable.sol\":1531:1544  _checkOwner() */\n      tag_173\n        /* \"@openzeppelin/contracts/access/Ownable.sol\":1531:1542  _checkOwner */\n      tag_157\n        /* \"@openzeppelin/contracts/access/Ownable.sol\":1531:1544  _checkOwner() */\n      jump\t// in\n    tag_173:\n        /* \"@openzeppelin/contracts/access/Ownable.sol\":2357:2387  _transferOwnership(address(0)) */\n      tag_175\n        /* \"@openzeppelin/contracts/access/Ownable.sol\":2384:2385  0 */\n      0x00\n        /* \"@openzeppelin/contracts/access/Ownable.sol\":2357:2375  _transferOwnership */\n      tag_176\n        /* \"@openzeppelin/contracts/access/Ownable.sol\":2357:2387  _transferOwnership(address(0)) */\n      jump\t// in\n    tag_175:\n        /* \"@openzeppelin/contracts/access/Ownable.sol\":2293:2394  function renounceOwnership() public virtual onlyOwner {... */\n      jump\t// out\n        /* \"contracts/EduTokenSale.sol\":283:317  EduToken public immutable eduToken */\n    tag_84:\n      immutable(\"0x6ec03fc6a2303ff0283996b05577f38ea45b37619214a3bde5dbe5d42345eefa\")\n      dup2\n      jump\t// out\n        /* \"@openzeppelin/contracts/access/Ownable.sol\":1638:1723  function owner() public view virtual returns (address) {... */\n    tag_89:\n        /* \"@openzeppelin/contracts/access/Ownable.sol\":1684:1691  address */\n      0x00\n        /* \"@openzeppelin/contracts/access/Ownable.sol\":1710:1716  _owner */\n      0x00\n      0x00\n      swap1\n      sload\n      swap1\n      0x0100\n      exp\n      swap1\n      div\n      0xffffffffffffffffffffffffffffffffffffffff\n      and\n        /* \"@openzeppelin/contracts/access/Ownable.sol\":1703:1716  return _owner */\n      swap1\n      pop\n        /* \"@openzeppelin/contracts/access/Ownable.sol\":1638:1723  function owner() public view virtual returns (address) {... */\n      swap1\n      jump\t// out\n        /* \"contracts/EduTokenSale.sol\":488:521  uint256 public minContributionWei */\n    tag_93:\n      sload(0x06)\n      dup2\n      jump\t// out\n        /* \"contracts/EduTokenSale.sol\":428:452  uint256 public saleStart */\n    tag_97:\n      sload(0x04)\n      dup2\n      jump\t// out\n        /* \"contracts/EduTokenSale.sol\":3739:3850  function unpauseSale() external onlyOwner {... */\n    tag_101:\n        /* \"@openzeppelin/contracts/access/Ownable.sol\":1531:1544  _checkOwner() */\n      tag_179\n        /* \"@openzeppelin/contracts/access/Ownable.sol\":1531:1542  _checkOwner */\n      tag_157\n        /* \"@openzeppelin/contracts/access/Ownable.sol\":1531:1544  _checkOwner() */\n      jump\t// in\n    tag_179:\n        /* \"contracts/EduTokenSale.sol\":3792:3802  _unpause() */\n      tag_181\n        /* \"contracts/EduTokenSale.sol\":3792:3800  _unpause */\n      tag_182\n        /* \"contracts/EduTokenSale.sol\":3792:3802  _unpause() */\n      jump\t// in\n    tag_181:\n        /* \"contracts/EduTokenSale.sol\":3831:3841  msg.sender */\n      caller\n        /* \"contracts/EduTokenSale.sol\":3818:3842  SaleUnpaused(msg.sender) */\n      0xffffffffffffffffffffffffffffffffffffffff\n      and\n      0xa3b142bf6879b63da2acae6c3cba67984f0c343ef0b43e6e3f349bfe1f470cf2\n      mload(0x40)\n      mload(0x40)\n      dup1\n      swap2\n      sub\n      swap1\n      log2\n        /* \"contracts/EduTokenSale.sol\":3739:3850  function unpauseSale() external onlyOwner {... */\n      jump\t// out\n        /* \"contracts/EduTokenSale.sol\":459:481  uint256 public saleEnd */\n    tag_104:\n      sload(0x05)\n      dup2\n      jump\t// out\n        /* \"contracts/EduTokenSale.sol\":361:393  address public complianceOfficer */\n    tag_108:\n      0x02\n      0x00\n      swap1\n      sload\n      swap1\n      0x0100\n      exp\n      swap1\n      div\n      0xffffffffffffffffffffffffffffffffffffffff\n      and\n      dup2\n      jump\t// out\n        /* \"contracts/EduTokenSale.sol\":4016:4877  function buyTokens() external payable whenNotPaused {... */\n    tag_111:\n        /* \"@openzeppelin/contracts/utils/Pausable.sol\":1350:1369  _requireNotPaused() */\n      tag_184\n        /* \"@openzeppelin/contracts/utils/Pausable.sol\":1350:1367  _requireNotPaused */\n      tag_185\n        /* \"@openzeppelin/contracts/utils/Pausable.sol\":1350:1369  _requireNotPaused() */\n      jump\t// in\n    tag_184:\n        /* \"contracts/EduTokenSale.sol\":4106:4115  saleStart */\n      sload(0x04)\n        /* \"contracts/EduTokenSale.sol\":4087:4102  block.timestamp */\n      timestamp\n        /* \"contracts/EduTokenSale.sol\":4087:4115  block.timestamp >= saleStart */\n      lt\n      iszero\n        /* \"contracts/EduTokenSale.sol\":4087:4145  block.timestamp >= saleStart && block.timestamp <= saleEnd */\n      dup1\n      iszero\n      tag_187\n      jumpi\n      pop\n        /* \"contracts/EduTokenSale.sol\":4138:4145  saleEnd */\n      sload(0x05)\n        /* \"contracts/EduTokenSale.sol\":4119:4134  block.timestamp */\n      timestamp\n        /* \"contracts/EduTokenSale.sol\":4119:4145  block.timestamp <= saleEnd */\n      gt\n      iszero\n        /* \"contracts/EduTokenSale.sol\":4087:4145  block.timestamp >= saleStart && block.timestamp <= saleEnd */\n    tag_187:\n        /* \"contracts/EduTokenSale.sol\":4079:4165  require(block.timestamp >= saleStart && block.timestamp <= saleEnd, \"Sale not active\") */\n      tag_188\n      jumpi\n      mload(0x40)\n      0x08c379a000000000000000000000000000000000000000000000000000000000\n      dup2\n      mstore\n      0x04\n      add\n      tag_189\n      swap1\n      tag_190\n      jump\t// in\n    tag_189:\n      mload(0x40)\n      dup1\n      swap2\n      sub\n      swap1\n      revert\n    tag_188:\n        /* \"contracts/EduTokenSale.sol\":4184:4197  isWhitelisted */\n      0x0a\n        /* \"contracts/EduTokenSale.sol\":4184:4209  isWhitelisted[msg.sender] */\n      0x00\n        /* \"contracts/EduTokenSale.sol\":4198:4208  msg.sender */\n      caller\n        /* \"contracts/EduTokenSale.sol\":4184:4209  isWhitelisted[msg.sender] */\n      0xffffffffffffffffffffffffffffffffffffffff\n      and\n      0xffffffffffffffffffffffffffffffffffffffff\n      and\n      dup2\n      mstore\n      0x20\n      add\n      swap1\n      dup2\n      mstore\n      0x20\n      add\n      0x00\n      keccak256\n      0x00\n      swap1\n      sload\n      swap1\n      0x0100\n      exp\n      swap1\n      div\n      0xff\n      and\n        /* \"contracts/EduTokenSale.sol\":4176:4229  require(isWhitelisted[msg.sender], \"Not whitelisted\") */\n      tag_191\n      jumpi\n      mload(0x40)\n      0x08c379a000000000000000000000000000000000000000000000000000000000\n      dup2\n      mstore\n      0x04\n      add\n      tag_192\n      swap1\n      tag_193\n      jump\t// in\n    tag_192:\n      mload(0x40)\n      dup1\n      swap2\n      sub\n      swap1\n      revert\n    tag_191:\n        /* \"contracts/EduTokenSale.sol\":4261:4279  minContributionWei */\n      sload(0x06)\n        /* \"contracts/EduTokenSale.sol\":4248:4257  msg.value */\n      callvalue\n        /* \"contracts/EduTokenSale.sol\":4248:4279  msg.value >= minContributionWei */\n      lt\n      iszero\n        /* \"contracts/EduTokenSale.sol\":4240:4306  require(msg.value >= minContributionWei, \"Below min contribution\") */\n      tag_194\n      jumpi\n      mload(0x40)\n      0x08c379a000000000000000000000000000000000000000000000000000000000\n      dup2\n      mstore\n      0x04\n      add\n      tag_195\n      swap1\n      tag_196\n      jump\t// in\n    tag_195:\n      mload(0x40)\n      dup1\n      swap2\n      sub\n      swap1\n      revert\n    tag_194:\n        /* \"contracts/EduTokenSale.sol\":4319:4342  uint256 newContribution */\n      0x00\n        /* \"contracts/EduTokenSale.sol\":4374:4383  msg.value */\n      callvalue\n        /* \"contracts/EduTokenSale.sol\":4345:4359  contributionOf */\n      0x0b\n        /* \"contracts/EduTokenSale.sol\":4345:4371  contributionOf[msg.sender] */\n      0x00\n        /* \"contracts/EduTokenSale.sol\":4360:4370  msg.sender */\n      caller\n        /* \"contracts/EduTokenSale.sol\":4345:4371  contributionOf[msg.sender] */\n      0xffffffffffffffffffffffffffffffffffffffff\n      and\n      0xffffffffffffffffffffffffffffffffffffffff\n      and\n      dup2\n      mstore\n      0x20\n      add\n      swap1\n      dup2\n      mstore\n      0x20\n      add\n      0x00\n      keccak256\n      sload\n        /* \"contracts/EduTokenSale.sol\":4345:4383  contributionOf[msg.sender] + msg.value */\n      tag_197\n      swap2\n      swap1\n      tag_198\n      jump\t// in\n    tag_197:\n        /* \"contracts/EduTokenSale.sol\":4319:4383  uint256 newContribution = contributionOf[msg.sender] + msg.value */\n      swap1\n      pop\n        /* \"contracts/EduTokenSale.sol\":4421:4439  maxContributionWei */\n      sload(0x07)\n        /* \"contracts/EduTokenSale.sol\":4402:4417  newContribution */\n      dup2\n        /* \"contracts/EduTokenSale.sol\":4402:4439  newContribution <= maxContributionWei */\n      gt\n      iszero\n        /* \"contracts/EduTokenSale.sol\":4394:4466  require(newContribution <= maxContributionWei, \"Above max contribution\") */\n      tag_199\n      jumpi\n      mload(0x40)\n      0x08c379a000000000000000000000000000000000000000000000000000000000\n      dup2\n      mstore\n      0x04\n      add\n      tag_200\n      swap1\n      tag_201\n      jump\t// in\n    tag_200:\n      mload(0x40)\n      dup1\n      swap2\n      sub\n      swap1\n      revert\n    tag_199:\n        /* \"contracts/EduTokenSale.sol\":4479:4498  uint256 tokenAmount */\n      0x00\n        /* \"contracts/EduTokenSale.sol\":4513:4517  rate */\n      sload(0x03)\n        /* \"contracts/EduTokenSale.sol\":4501:4510  msg.value */\n      callvalue\n        /* \"contracts/EduTokenSale.sol\":4501:4517  msg.value * rate */\n      tag_202\n      swap2\n      swap1\n      tag_203\n      jump\t// in\n    tag_202:\n        /* \"contracts/EduTokenSale.sol\":4479:4517  uint256 tokenAmount = msg.value * rate */\n      swap1\n      pop\n        /* \"contracts/EduTokenSale.sol\":4569:4582  hardCapTokens */\n      sload(0x08)\n        /* \"contracts/EduTokenSale.sol\":4554:4565  tokenAmount */\n      dup2\n        /* \"contracts/EduTokenSale.sol\":4536:4551  totalTokensSold */\n      sload(0x09)\n        /* \"contracts/EduTokenSale.sol\":4536:4565  totalTokensSold + tokenAmount */\n      tag_204\n      swap2\n      swap1\n      tag_198\n      jump\t// in\n    tag_204:\n        /* \"contracts/EduTokenSale.sol\":4536:4582  totalTokensSold + tokenAmount <= hardCapTokens */\n      gt\n      iszero\n        /* \"contracts/EduTokenSale.sol\":4528:4604  require(totalTokensSold + tokenAmount <= hardCapTokens, \"Hard cap exceeded\") */\n      tag_205\n      jumpi\n      mload(0x40)\n      0x08c379a000000000000000000000000000000000000000000000000000000000\n      dup2\n      mstore\n      0x04\n      add\n      tag_206\n      swap1\n      tag_207\n      jump\t// in\n    tag_206:\n      mload(0x40)\n      dup1\n      swap2\n      sub\n      swap1\n      revert\n    tag_205:\n        /* \"contracts/EduTokenSale.sol\":4646:4661  newContribution */\n      dup2\n        /* \"contracts/EduTokenSale.sol\":4617:4631  contributionOf */\n      0x0b\n        /* \"contracts/EduTokenSale.sol\":4617:4643  contributionOf[msg.sender] */\n      0x00\n        /* \"contracts/EduTokenSale.sol\":4632:4642  msg.sender */\n      caller\n        /* \"contracts/EduTokenSale.sol\":4617:4643  contributionOf[msg.sender] */\n      0xffffffffffffffffffffffffffffffffffffffff\n      and\n      0xffffffffffffffffffffffffffffffffffffffff\n      and\n      dup2\n      mstore\n      0x20\n      add\n      swap1\n      dup2\n      mstore\n      0x20\n      add\n      0x00\n      keccak256\n        /* \"contracts/EduTokenSale.sol\":4617:4661  contributionOf[msg.sender] = newContribution */\n      dup2\n      swap1\n      sstore\n      pop\n        /* \"contracts/EduTokenSale.sol\":4691:4702  tokenAmount */\n      dup1\n        /* \"contracts/EduTokenSale.sol\":4672:4687  totalTokensSold */\n      0x09\n      0x00\n        /* \"contracts/EduTokenSale.sol\":4672:4702  totalTokensSold += tokenAmount */\n      dup3\n      dup3\n      sload\n      tag_208\n      swap2\n      swap1\n      tag_198\n      jump\t// in\n    tag_208:\n      swap3\n      pop\n      pop\n      dup2\n      swap1\n      sstore\n      pop\n        /* \"contracts/EduTokenSale.sol\":4762:4770  eduToken */\n      immutable(\"0x6ec03fc6a2303ff0283996b05577f38ea45b37619214a3bde5dbe5d42345eefa\")\n        /* \"contracts/EduTokenSale.sol\":4762:4775  eduToken.mint */\n      0xffffffffffffffffffffffffffffffffffffffff\n      and\n      0x40c10f19\n        /* \"contracts/EduTokenSale.sol\":4776:4786  msg.sender */\n      caller\n        /* \"contracts/EduTokenSale.sol\":4788:4799  tokenAmount */\n      dup4\n        /* \"contracts/EduTokenSale.sol\":4762:4800  eduToken.mint(msg.sender, tokenAmount) */\n      mload(0x40)\n      dup4\n      0xffffffff\n      and\n      0xe0\n      shl\n      dup2\n      mstore\n      0x04\n      add\n      tag_209\n      swap3\n      swap2\n      swap1\n      tag_210\n      jump\t// in\n    tag_209:\n      0x00\n      mload(0x40)\n      dup1\n      dup4\n      sub\n      dup2\n      0x00\n      dup8\n      dup1\n      extcodesize\n      iszero\n      dup1\n      iszero\n      tag_211\n      jumpi\n      revert(0x00, 0x00)\n    tag_211:\n      pop\n      gas\n      call\n      iszero\n      dup1\n      iszero\n      tag_213\n      jumpi\n      returndatacopy(0x00, 0x00, returndatasize)\n      revert(0x00, returndatasize)\n    tag_213:\n      pop\n      pop\n      pop\n      pop\n        /* \"contracts/EduTokenSale.sol\":4834:4844  msg.sender */\n      caller\n        /* \"contracts/EduTokenSale.sol\":4818:4869  TokensPurchased(msg.sender, msg.value, tokenAmount) */\n      0xffffffffffffffffffffffffffffffffffffffff\n      and\n      0x8fafebcaf9d154343dad25669bfa277f4fbacd7ac6b0c4fed522580e040a0f33\n        /* \"contracts/EduTokenSale.sol\":4846:4855  msg.value */\n      callvalue\n        /* \"contracts/EduTokenSale.sol\":4857:4868  tokenAmount */\n      dup4\n        /* \"contracts/EduTokenSale.sol\":4818:4869  TokensPurchased(msg.sender, msg.value, tokenAmount) */\n      mload(0x40)\n      tag_214\n      swap3\n      swap2\n      swap1\n      tag_215\n      jump\t// in\n    tag_214:\n      mload(0x40)\n      dup1\n      swap2\n      sub\n      swap1\n      log2\n        /* \"contracts/EduTokenSale.sol\":4068:4877  {... */\n      pop\n      pop\n        /* \"contracts/EduTokenSale.sol\":4016:4877  function buyTokens() external payable whenNotPaused {... */\n      jump\t// out\n        /* \"contracts/EduTokenSale.sol\":694:743  mapping(address => uint256) public contributionOf */\n    tag_115:\n      mstore(0x20, 0x0b)\n      dup1\n      0x00\n      mstore\n      keccak256(0x00, 0x40)\n      0x00\n      swap2\n      pop\n      swap1\n      pop\n      sload\n      dup2\n      jump\t// out\n        /* \"contracts/EduTokenSale.sol\":528:561  uint256 public maxContributionWei */\n    tag_119:\n      sload(0x07)\n      dup2\n      jump\t// out\n        /* \"@openzeppelin/contracts/access/Ownable.sol\":2543:2758  function transferOwnership(address newOwner) public virtual onlyOwner {... */\n    tag_124:\n        /* \"@openzeppelin/contracts/access/Ownable.sol\":1531:1544  _checkOwner() */\n      tag_217\n        /* \"@openzeppelin/contracts/access/Ownable.sol\":1531:1542  _checkOwner */\n      tag_157\n        /* \"@openzeppelin/contracts/access/Ownable.sol\":1531:1544  _checkOwner() */\n      jump\t// in\n    tag_217:\n        /* \"@openzeppelin/contracts/access/Ownable.sol\":2647:2648  0 */\n      0x00\n        /* \"@openzeppelin/contracts/access/Ownable.sol\":2627:2649  newOwner == address(0) */\n      0xffffffffffffffffffffffffffffffffffffffff\n      and\n        /* \"@openzeppelin/contracts/access/Ownable.sol\":2627:2635  newOwner */\n      dup2\n        /* \"@openzeppelin/contracts/access/Ownable.sol\":2627:2649  newOwner == address(0) */\n      0xffffffffffffffffffffffffffffffffffffffff\n      and\n      sub\n        /* \"@openzeppelin/contracts/access/Ownable.sol\":2623:2714  if (newOwner == address(0)) {... */\n      tag_219\n      jumpi\n        /* \"@openzeppelin/contracts/access/Ownable.sol\":2700:2701  0 */\n      0x00\n        /* \"@openzeppelin/contracts/access/Ownable.sol\":2672:2703  OwnableInvalidOwner(address(0)) */\n      mload(0x40)\n      0x1e4fbdf700000000000000000000000000000000000000000000000000000000\n      dup2\n      mstore\n      0x04\n      add\n      tag_220\n      swap2\n      swap1\n      tag_50\n      jump\t// in\n    tag_220:\n      mload(0x40)\n      dup1\n      swap2\n      sub\n      swap1\n      revert\n        /* \"@openzeppelin/contracts/access/Ownable.sol\":2623:2714  if (newOwner == address(0)) {... */\n    tag_219:\n        /* \"@openzeppelin/contracts/access/Ownable.sol\":2723:2751  _transferOwnership(newOwner) */\n      tag_221\n        /* \"@openzeppelin/contracts/access/Ownable.sol\":2742:2750  newOwner */\n      dup2\n        /* \"@openzeppelin/contracts/access/Ownable.sol\":2723:2741  _transferOwnership */\n      tag_176\n        /* \"@openzeppelin/contracts/access/Ownable.sol\":2723:2751  _transferOwnership(newOwner) */\n      jump\t// in\n    tag_221:\n        /* \"@openzeppelin/contracts/access/Ownable.sol\":2543:2758  function transferOwnership(address newOwner) public virtual onlyOwner {... */\n      pop\n      jump\t// out\n        /* \"contracts/EduTokenSale.sol\":3066:3330  function setTreasuryManager(address _newTreasuryManager) external onlyOwner {... */\n    tag_128:\n        /* \"@openzeppelin/contracts/access/Ownable.sol\":1531:1544  _checkOwner() */\n      tag_223\n        /* \"@openzeppelin/contracts/access/Ownable.sol\":1531:1542  _checkOwner */\n      tag_157\n        /* \"@openzeppelin/contracts/access/Ownable.sol\":1531:1544  _checkOwner() */\n      jump\t// in\n    tag_223:\n        /* \"contracts/EduTokenSale.sol\":3192:3193  0 */\n      0x00\n        /* \"contracts/EduTokenSale.sol\":3161:3194  _newTreasuryManager != address(0) */\n      0xffffffffffffffffffffffffffffffffffffffff\n      and\n        /* \"contracts/EduTokenSale.sol\":3161:3180  _newTreasuryManager */\n      dup2\n        /* \"contracts/EduTokenSale.sol\":3161:3194  _newTreasuryManager != address(0) */\n      0xffffffffffffffffffffffffffffffffffffffff\n      and\n      sub\n        /* \"contracts/EduTokenSale.sol\":3153:3215  require(_newTreasuryManager != address(0), \"Invalid treasury\") */\n      tag_225\n      jumpi\n      mload(0x40)\n      0x08c379a000000000000000000000000000000000000000000000000000000000\n      dup2\n      mstore\n      0x04\n      add\n      tag_226\n      swap1\n      tag_227\n      jump\t// in\n    tag_226:\n      mload(0x40)\n      dup1\n      swap2\n      sub\n      swap1\n      revert\n    tag_225:\n        /* \"contracts/EduTokenSale.sol\":3244:3263  _newTreasuryManager */\n      dup1\n        /* \"contracts/EduTokenSale.sol\":3226:3241  treasuryManager */\n      0x01\n      0x00\n        /* \"contracts/EduTokenSale.sol\":3226:3263  treasuryManager = _newTreasuryManager */\n      0x0100\n      exp\n      dup2\n      sload\n      dup2\n      0xffffffffffffffffffffffffffffffffffffffff\n      mul\n      not\n      and\n      swap1\n      dup4\n      0xffffffffffffffffffffffffffffffffffffffff\n      and\n      mul\n      or\n      swap1\n      sstore\n      pop\n        /* \"contracts/EduTokenSale.sol\":3302:3321  _newTreasuryManager */\n      dup1\n        /* \"contracts/EduTokenSale.sol\":3279:3322  TreasuryManagerUpdated(_newTreasuryManager) */\n      0xffffffffffffffffffffffffffffffffffffffff\n      and\n      0xd16d2cf254200e4dc6dc82512e9d11673e06a798c40b90cef7583729b4f7a8d4\n      mload(0x40)\n      mload(0x40)\n      dup1\n      swap2\n      sub\n      swap1\n      log2\n        /* \"contracts/EduTokenSale.sol\":3066:3330  function setTreasuryManager(address _newTreasuryManager) external onlyOwner {... */\n      pop\n      jump\t// out\n        /* \"@openzeppelin/contracts/access/Ownable.sol\":1796:1958  function _checkOwner() internal view virtual {... */\n    tag_157:\n        /* \"@openzeppelin/contracts/access/Ownable.sol\":1866:1878  _msgSender() */\n      tag_229\n        /* \"@openzeppelin/contracts/access/Ownable.sol\":1866:1876  _msgSender */\n      tag_230\n        /* \"@openzeppelin/contracts/access/Ownable.sol\":1866:1878  _msgSender() */\n      jump\t// in\n    tag_229:\n        /* \"@openzeppelin/contracts/access/Ownable.sol\":1855:1878  owner() != _msgSender() */\n      0xffffffffffffffffffffffffffffffffffffffff\n      and\n        /* \"@openzeppelin/contracts/access/Ownable.sol\":1855:1862  owner() */\n      tag_231\n        /* \"@openzeppelin/contracts/access/Ownable.sol\":1855:1860  owner */\n      tag_89\n        /* \"@openzeppelin/contracts/access/Ownable.sol\":1855:1862  owner() */\n      jump\t// in\n    tag_231:\n        /* \"@openzeppelin/contracts/access/Ownable.sol\":1855:1878  owner() != _msgSender() */\n      0xffffffffffffffffffffffffffffffffffffffff\n      and\n      eq\n        /* \"@openzeppelin/contracts/access/Ownable.sol\":1851:1952  if (owner() != _msgSender()) {... */\n      tag_232\n      jumpi\n        /* \"@openzeppelin/contracts/access/Ownable.sol\":1928:1940  _msgSender() */\n      tag_233\n        /* \"@openzeppelin/contracts/access/Ownable.sol\":1928:1938  _msgSender */\n      tag_230\n        /* \"@openzeppelin/contracts/access/Ownable.sol\":1928:1940  _msgSender() */\n      jump\t// in\n    tag_233:\n        /* \"@openzeppelin/contracts/access/Ownable.sol\":1901:1941  OwnableUnauthorizedAccount(_msgSender()) */\n      mload(0x40)\n      0x118cdaa700000000000000000000000000000000000000000000000000000000\n      dup2\n      mstore\n      0x04\n      add\n      tag_234\n      swap2\n      swap1\n      tag_50\n      jump\t// in\n    tag_234:\n      mload(0x40)\n      dup1\n      swap2\n      sub\n      swap1\n      revert\n        /* \"@openzeppelin/contracts/access/Ownable.sol\":1851:1952  if (owner() != _msgSender()) {... */\n    tag_232:\n        /* \"@openzeppelin/contracts/access/Ownable.sol\":1796:1958  function _checkOwner() internal view virtual {... */\n      jump\t// out\n        /* \"@openzeppelin/contracts/utils/Pausable.sol\":2339:2454  function _pause() internal virtual whenNotPaused {... */\n    tag_166:\n        /* \"@openzeppelin/contracts/utils/Pausable.sol\":1350:1369  _requireNotPaused() */\n      tag_236\n        /* \"@openzeppelin/contracts/utils/Pausable.sol\":1350:1367  _requireNotPaused */\n      tag_185\n        /* \"@openzeppelin/contracts/utils/Pausable.sol\":1350:1369  _requireNotPaused() */\n      jump\t// in\n    tag_236:\n        /* \"@openzeppelin/contracts/utils/Pausable.sol\":2408:2412  true */\n      0x01\n        /* \"@openzeppelin/contracts/utils/Pausable.sol\":2398:2405  _paused */\n      0x00\n      0x14\n        /* \"@openzeppelin/contracts/utils/Pausable.sol\":2398:2412  _paused = true */\n      0x0100\n      exp\n      dup2\n      sload\n      dup2\n      0xff\n      mul\n      not\n      and\n      swap1\n      dup4\n      iszero\n      iszero\n      mul\n      or\n      swap1\n      sstore\n      pop\n        /* \"@openzeppelin/contracts/utils/Pausable.sol\":2427:2447  Paused(_msgSender()) */\n      0x62e78cea01bee320cd4e420270b5ea74000d11b0c9f74754ebdbfc544b05a258\n        /* \"@openzeppelin/contracts/utils/Pausable.sol\":2434:2446  _msgSender() */\n      tag_238\n        /* \"@openzeppelin/contracts/utils/Pausable.sol\":2434:2444  _msgSender */\n      tag_230\n        /* \"@openzeppelin/contracts/utils/Pausable.sol\":2434:2446  _msgSender() */\n      jump\t// in\n    tag_238:\n        /* \"@openzeppelin/contracts/utils/Pausable.sol\":2427:2447  Paused(_msgSender()) */\n      mload(0x40)\n      tag_239\n      swap2\n      swap1\n      tag_50\n      jump\t// in\n    tag_239:\n      mload(0x40)\n      dup1\n      swap2\n      sub\n      swap1\n      log1\n        /* \"@openzeppelin/contracts/utils/Pausable.sol\":2339:2454  function _pause() internal virtual whenNotPaused {... */\n      jump\t// out\n        /* \"@openzeppelin/contracts/access/Ownable.sol\":2912:3099  function _transferOwnership(address newOwner) internal virtual {... */\n    tag_176:\n        /* \"@openzeppelin/contracts/access/Ownable.sol\":2985:3001  address oldOwner */\n      0x00\n        /* \"@openzeppelin/contracts/access/Ownable.sol\":3004:3010  _owner */\n      0x00\n      0x00\n      swap1\n      sload\n      swap1\n      0x0100\n      exp\n      swap1\n      div\n      0xffffffffffffffffffffffffffffffffffffffff\n      and\n        /* \"@openzeppelin/contracts/access/Ownable.sol\":2985:3010  address oldOwner = _owner */\n      swap1\n      pop\n        /* \"@openzeppelin/contracts/access/Ownable.sol\":3029:3037  newOwner */\n      dup2\n        /* \"@openzeppelin/contracts/access/Ownable.sol\":3020:3026  _owner */\n      0x00\n      0x00\n        /* \"@openzeppelin/contracts/access/Ownable.sol\":3020:3037  _owner = newOwner */\n      0x0100\n      exp\n      dup2\n      sload\n      dup2\n      0xffffffffffffffffffffffffffffffffffffffff\n      mul\n      not\n      and\n      swap1\n      dup4\n      0xffffffffffffffffffffffffffffffffffffffff\n      and\n      mul\n      or\n      swap1\n      sstore\n      pop\n        /* \"@openzeppelin/contracts/access/Ownable.sol\":3083:3091  newOwner */\n      dup2\n        /* \"@openzeppelin/contracts/access/Ownable.sol\":3052:3092  OwnershipTransferred(oldOwner, newOwner) */\n      0xffffffffffffffffffffffffffffffffffffffff\n      and\n        /* \"@openzeppelin/contracts/access/Ownable.sol\":3073:3081  oldOwner */\n      dup2\n        /* \"@openzeppelin/contracts/access/Ownable.sol\":3052:3092  OwnershipTransferred(oldOwner, newOwner) */\n      0xffffffffffffffffffffffffffffffffffffffff\n      and\n      0x8be0079c531659141344cd1fd0a4f28419497f9722a3daafe3b4186f6b6457e0\n      mload(0x40)\n      mload(0x40)\n      dup1\n      swap2\n      sub\n      swap1\n      log3\n        /* \"@openzeppelin/contracts/access/Ownable.sol\":2975:3099  {... */\n      pop\n        /* \"@openzeppelin/contracts/access/Ownable.sol\":2912:3099  function _transferOwnership(address newOwner) internal virtual {... */\n      pop\n      jump\t// out\n        /* \"@openzeppelin/contracts/utils/Pausable.sol\":2586:2703  function _unpause() internal virtual whenPaused {... */\n    tag_182:\n        /* \"@openzeppelin/contracts/utils/Pausable.sol\":1597:1613  _requirePaused() */\n      tag_242\n        /* \"@openzeppelin/contracts/utils/Pausable.sol\":1597:1611  _requirePaused */\n      tag_243\n        /* \"@openzeppelin/contracts/utils/Pausable.sol\":1597:1613  _requirePaused() */\n      jump\t// in\n    tag_242:\n        /* \"@openzeppelin/contracts/utils/Pausable.sol\":2654:2659  false */\n      0x00\n        /* \"@openzeppelin/contracts/utils/Pausable.sol\":2644:2651  _paused */\n      0x00\n      0x14\n        /* \"@openzeppelin/contracts/utils/Pausable.sol\":2644:2659  _paused = false */\n      0x0100\n      exp\n      dup2\n      sload\n      dup2\n      0xff\n      mul\n      not\n      and\n      swap1\n      dup4\n      iszero\n      iszero\n      mul\n      or\n      swap1\n      sstore\n      pop\n        /* \"@openzeppelin/contracts/utils/Pausable.sol\":2674:2696  Unpaused(_msgSender()) */\n      0x5db9ee0a495bf2e6ff9c91a7834c1ba4fdd244a5e8aa4e537bd38aeae4b073aa\n        /* \"@openzeppelin/contracts/utils/Pausable.sol\":2683:2695  _msgSender() */\n      tag_245\n        /* \"@openzeppelin/contracts/utils/Pausable.sol\":2683:2693  _msgSender */\n      tag_230\n        /* \"@openzeppelin/contracts/utils/Pausable.sol\":2683:2695  _msgSender() */\n      jump\t// in\n    tag_245:\n        /* \"@openzeppelin/contracts/utils/Pausable.sol\":2674:2696  Unpaused(_msgSender()) */\n      mload(0x40)\n      tag_246\n      swap2\n      swap1\n      tag_50\n      jump\t// in\n    tag_246:\n      mload(0x40)\n      dup1\n      swap2\n      sub\n      swap1\n      log1\n        /* \"@openzeppelin/contracts/utils/Pausable.sol\":2586:2703  function _unpause() internal virtual whenPaused {... */\n      jump\t// out\n        /* \"@openzeppelin/contracts/utils/Pausable.sol\":1878:2006  function _requireNotPaused() internal view virtual {... */\n    tag_185:\n        /* \"@openzeppelin/contracts/utils/Pausable.sol\":1943:1951  paused() */\n      tag_248\n        /* \"@openzeppelin/contracts/utils/Pausable.sol\":1943:1949  paused */\n      tag_73\n        /* \"@openzeppelin/contracts/utils/Pausable.sol\":1943:1951  paused() */\n      jump\t// in\n    tag_248:\n        /* \"@openzeppelin/contracts/utils/Pausable.sol\":1939:2000  if (paused()) {... */\n      iszero\n      tag_249\n      jumpi\n        /* \"@openzeppelin/contracts/utils/Pausable.sol\":1974:1989  EnforcedPause() */\n      mload(0x40)\n      0xd93c066500000000000000000000000000000000000000000000000000000000\n      dup2\n      mstore\n      0x04\n      add\n      mload(0x40)\n      dup1\n      swap2\n      sub\n      swap1\n      revert\n        /* \"@openzeppelin/contracts/utils/Pausable.sol\":1939:2000  if (paused()) {... */\n    tag_249:\n        /* \"@openzeppelin/contracts/utils/Pausable.sol\":1878:2006  function _requireNotPaused() internal view virtual {... */\n      jump\t// out\n        /* \"@openzeppelin/contracts/utils/Context.sol\":656:752  function _msgSender() internal view virtual returns (address) {... */\n    tag_230:\n        /* \"@openzeppelin/contracts/utils/Context.sol\":709:716  address */\n      0x00\n        /* \"@openzeppelin/contracts/utils/Context.sol\":735:745  msg.sender */\n      caller\n        /* \"@openzeppelin/contracts/utils/Context.sol\":728:745  return msg.sender */\n      swap1\n      pop\n        /* \"@openzeppelin/contracts/utils/Context.sol\":656:752  function _msgSender() internal view virtual returns (address) {... */\n      swap1\n      jump\t// out\n        /* \"@openzeppelin/contracts/utils/Pausable.sol\":2078:2204  function _requirePaused() internal view virtual {... */\n    tag_243:\n        /* \"@openzeppelin/contracts/utils/Pausable.sol\":2141:2149  paused() */\n      tag_252\n        /* \"@openzeppelin/contracts/utils/Pausable.sol\":2141:2147  paused */\n      tag_73\n        /* \"@openzeppelin/contracts/utils/Pausable.sol\":2141:2149  paused() */\n      jump\t// in\n    tag_252:\n        /* \"@openzeppelin/contracts/utils/Pausable.sol\":2136:2198  if (!paused()) {... */\n      tag_253\n      jumpi\n        /* \"@openzeppelin/contracts/utils/Pausable.sol\":2172:2187  ExpectedPause() */\n      mload(0x40)\n      0x8dfc202b00000000000000000000000000000000000000000000000000000000\n      dup2\n      mstore\n      0x04\n      add\n      mload(0x40)\n      dup1\n      swap2\n      sub\n      swap1\n      revert\n        /* \"@openzeppelin/contracts/utils/Pausable.sol\":2136:2198  if (!paused()) {... */\n    tag_253:\n        /* \"@openzeppelin/contracts/utils/Pausable.sol\":2078:2204  function _requirePaused() internal view virtual {... */\n      jump\t// out\n        /* \"#utility.yul\":88:205   */\n    tag_255:\n        /* \"#utility.yul\":197:198   */\n      0x00\n        /* \"#utility.yul\":194:195   */\n      0x00\n        /* \"#utility.yul\":187:199   */\n      revert\n        /* \"#utility.yul\":334:411   */\n    tag_257:\n        /* \"#utility.yul\":371:378   */\n      0x00\n        /* \"#utility.yul\":400:405   */\n      dup2\n        /* \"#utility.yul\":389:405   */\n      swap1\n      pop\n        /* \"#utility.yul\":334:411   */\n      swap2\n      swap1\n      pop\n      jump\t// out\n        /* \"#utility.yul\":417:539   */\n    tag_258:\n        /* \"#utility.yul\":490:514   */\n      tag_306\n        /* \"#utility.yul\":508:513   */\n      dup2\n        /* \"#utility.yul\":490:514   */\n      tag_257\n      jump\t// in\n    tag_306:\n        /* \"#utility.yul\":483:488   */\n      dup2\n        /* \"#utility.yul\":480:515   */\n      eq\n        /* \"#utility.yul\":470:533   */\n      tag_307\n      jumpi\n        /* \"#utility.yul\":529:530   */\n      0x00\n        /* \"#utility.yul\":526:527   */\n      0x00\n        /* \"#utility.yul\":519:531   */\n      revert\n        /* \"#utility.yul\":470:533   */\n    tag_307:\n        /* \"#utility.yul\":417:539   */\n      pop\n      jump\t// out\n        /* \"#utility.yul\":545:684   */\n    tag_259:\n        /* \"#utility.yul\":591:596   */\n      0x00\n        /* \"#utility.yul\":629:635   */\n      dup2\n        /* \"#utility.yul\":616:636   */\n      calldataload\n        /* \"#utility.yul\":607:636   */\n      swap1\n      pop\n        /* \"#utility.yul\":645:678   */\n      tag_309\n        /* \"#utility.yul\":672:677   */\n      dup2\n        /* \"#utility.yul\":645:678   */\n      tag_258\n      jump\t// in\n    tag_309:\n        /* \"#utility.yul\":545:684   */\n      swap3\n      swap2\n      pop\n      pop\n      jump\t// out\n        /* \"#utility.yul\":690:1019   */\n    tag_32:\n        /* \"#utility.yul\":749:755   */\n      0x00\n        /* \"#utility.yul\":798:800   */\n      0x20\n        /* \"#utility.yul\":786:795   */\n      dup3\n        /* \"#utility.yul\":777:784   */\n      dup5\n        /* \"#utility.yul\":773:796   */\n      sub\n        /* \"#utility.yul\":769:801   */\n      slt\n        /* \"#utility.yul\":766:885   */\n      iszero\n      tag_311\n      jumpi\n        /* \"#utility.yul\":804:883   */\n      tag_312\n      tag_255\n      jump\t// in\n    tag_312:\n        /* \"#utility.yul\":766:885   */\n    tag_311:\n        /* \"#utility.yul\":924:925   */\n      0x00\n        /* \"#utility.yul\":949:1002   */\n      tag_313\n        /* \"#utility.yul\":994:1001   */\n      dup5\n        /* \"#utility.yul\":985:991   */\n      dup3\n        /* \"#utility.yul\":974:983   */\n      dup6\n        /* \"#utility.yul\":970:992   */\n      add\n        /* \"#utility.yul\":949:1002   */\n      tag_259\n      jump\t// in\n    tag_313:\n        /* \"#utility.yul\":939:1002   */\n      swap2\n      pop\n        /* \"#utility.yul\":895:1012   */\n      pop\n        /* \"#utility.yul\":690:1019   */\n      swap3\n      swap2\n      pop\n      pop\n      jump\t// out\n        /* \"#utility.yul\":1025:1143   */\n    tag_260:\n        /* \"#utility.yul\":1112:1136   */\n      tag_315\n        /* \"#utility.yul\":1130:1135   */\n      dup2\n        /* \"#utility.yul\":1112:1136   */\n      tag_257\n      jump\t// in\n    tag_315:\n        /* \"#utility.yul\":1107:1110   */\n      dup3\n        /* \"#utility.yul\":1100:1137   */\n      mstore\n        /* \"#utility.yul\":1025:1143   */\n      pop\n      pop\n      jump\t// out\n        /* \"#utility.yul\":1149:1371   */\n    tag_38:\n        /* \"#utility.yul\":1242:1246   */\n      0x00\n        /* \"#utility.yul\":1280:1282   */\n      0x20\n        /* \"#utility.yul\":1269:1278   */\n      dup3\n        /* \"#utility.yul\":1265:1283   */\n      add\n        /* \"#utility.yul\":1257:1283   */\n      swap1\n      pop\n        /* \"#utility.yul\":1293:1364   */\n      tag_317\n        /* \"#utility.yul\":1361:1362   */\n      0x00\n        /* \"#utility.yul\":1350:1359   */\n      dup4\n        /* \"#utility.yul\":1346:1363   */\n      add\n        /* \"#utility.yul\":1337:1343   */\n      dup5\n        /* \"#utility.yul\":1293:1364   */\n      tag_260\n      jump\t// in\n    tag_317:\n        /* \"#utility.yul\":1149:1371   */\n      swap3\n      swap2\n      pop\n      pop\n      jump\t// out\n        /* \"#utility.yul\":1377:1503   */\n    tag_261:\n        /* \"#utility.yul\":1414:1421   */\n      0x00\n        /* \"#utility.yul\":1454:1496   */\n      0xffffffffffffffffffffffffffffffffffffffff\n        /* \"#utility.yul\":1447:1452   */\n      dup3\n        /* \"#utility.yul\":1443:1497   */\n      and\n        /* \"#utility.yul\":1432:1497   */\n      swap1\n      pop\n        /* \"#utility.yul\":1377:1503   */\n      swap2\n      swap1\n      pop\n      jump\t// out\n        /* \"#utility.yul\":1509:1605   */\n    tag_262:\n        /* \"#utility.yul\":1546:1553   */\n      0x00\n        /* \"#utility.yul\":1575:1599   */\n      tag_320\n        /* \"#utility.yul\":1593:1598   */\n      dup3\n        /* \"#utility.yul\":1575:1599   */\n      tag_261\n      jump\t// in\n    tag_320:\n        /* \"#utility.yul\":1564:1599   */\n      swap1\n      pop\n        /* \"#utility.yul\":1509:1605   */\n      swap2\n      swap1\n      pop\n      jump\t// out\n        /* \"#utility.yul\":1611:1733   */\n    tag_263:\n        /* \"#utility.yul\":1684:1708   */\n      tag_322\n        /* \"#utility.yul\":1702:1707   */\n      dup2\n        /* \"#utility.yul\":1684:1708   */\n      tag_262\n      jump\t// in\n    tag_322:\n        /* \"#utility.yul\":1677:1682   */\n      dup2\n        /* \"#utility.yul\":1674:1709   */\n      eq\n        /* \"#utility.yul\":1664:1727   */\n      tag_323\n      jumpi\n        /* \"#utility.yul\":1723:1724   */\n      0x00\n        /* \"#utility.yul\":1720:1721   */\n      0x00\n        /* \"#utility.yul\":1713:1725   */\n      revert\n        /* \"#utility.yul\":1664:1727   */\n    tag_323:\n        /* \"#utility.yul\":1611:1733   */\n      pop\n      jump\t// out\n        /* \"#utility.yul\":1739:1878   */\n    tag_264:\n        /* \"#utility.yul\":1785:1790   */\n      0x00\n        /* \"#utility.yul\":1823:1829   */\n      dup2\n        /* \"#utility.yul\":1810:1830   */\n      calldataload\n        /* \"#utility.yul\":1801:1830   */\n      swap1\n      pop\n        /* \"#utility.yul\":1839:1872   */\n      tag_325\n        /* \"#utility.yul\":1866:1871   */\n      dup2\n        /* \"#utility.yul\":1839:1872   */\n      tag_263\n      jump\t// in\n    tag_325:\n        /* \"#utility.yul\":1739:1878   */\n      swap3\n      swap2\n      pop\n      pop\n      jump\t// out\n        /* \"#utility.yul\":1884:2213   */\n    tag_42:\n        /* \"#utility.yul\":1943:1949   */\n      0x00\n        /* \"#utility.yul\":1992:1994   */\n      0x20\n        /* \"#utility.yul\":1980:1989   */\n      dup3\n        /* \"#utility.yul\":1971:1978   */\n      dup5\n        /* \"#utility.yul\":1967:1990   */\n      sub\n        /* \"#utility.yul\":1963:1995   */\n      slt\n        /* \"#utility.yul\":1960:2079   */\n      iszero\n      tag_327\n      jumpi\n        /* \"#utility.yul\":1998:2077   */\n      tag_328\n      tag_255\n      jump\t// in\n    tag_328:\n        /* \"#utility.yul\":1960:2079   */\n    tag_327:\n        /* \"#utility.yul\":2118:2119   */\n      0x00\n        /* \"#utility.yul\":2143:2196   */\n      tag_329\n        /* \"#utility.yul\":2188:2195   */\n      dup5\n        /* \"#utility.yul\":2179:2185   */\n      dup3\n        /* \"#utility.yul\":2168:2177   */\n      dup6\n        /* \"#utility.yul\":2164:2186   */\n      add\n        /* \"#utility.yul\":2143:2196   */\n      tag_264\n      jump\t// in\n    tag_329:\n        /* \"#utility.yul\":2133:2196   */\n      swap2\n      pop\n        /* \"#utility.yul\":2089:2206   */\n      pop\n        /* \"#utility.yul\":1884:2213   */\n      swap3\n      swap2\n      pop\n      pop\n      jump\t// out\n        /* \"#utility.yul\":2219:2309   */\n    tag_265:\n        /* \"#utility.yul\":2253:2260   */\n      0x00\n        /* \"#utility.yul\":2296:2301   */\n      dup2\n        /* \"#utility.yul\":2289:2302   */\n      iszero\n        /* \"#utility.yul\":2282:2303   */\n      iszero\n        /* \"#utility.yul\":2271:2303   */\n      swap1\n      pop\n        /* \"#utility.yul\":2219:2309   */\n      swap2\n      swap1\n      pop\n      jump\t// out\n        /* \"#utility.yul\":2315:2424   */\n    tag_266:\n        /* \"#utility.yul\":2396:2417   */\n      tag_332\n        /* \"#utility.yul\":2411:2416   */\n      dup2\n        /* \"#utility.yul\":2396:2417   */\n      tag_265\n      jump\t// in\n    tag_332:\n        /* \"#utility.yul\":2391:2394   */\n      dup3\n        /* \"#utility.yul\":2384:2418   */\n      mstore\n        /* \"#utility.yul\":2315:2424   */\n      pop\n      pop\n      jump\t// out\n        /* \"#utility.yul\":2430:2640   */\n    tag_45:\n        /* \"#utility.yul\":2517:2521   */\n      0x00\n        /* \"#utility.yul\":2555:2557   */\n      0x20\n        /* \"#utility.yul\":2544:2553   */\n      dup3\n        /* \"#utility.yul\":2540:2558   */\n      add\n        /* \"#utility.yul\":2532:2558   */\n      swap1\n      pop\n        /* \"#utility.yul\":2568:2633   */\n      tag_334\n        /* \"#utility.yul\":2630:2631   */\n      0x00\n        /* \"#utility.yul\":2619:2628   */\n      dup4\n        /* \"#utility.yul\":2615:2632   */\n      add\n        /* \"#utility.yul\":2606:2612   */\n      dup5\n        /* \"#utility.yul\":2568:2633   */\n      tag_266\n      jump\t// in\n    tag_334:\n        /* \"#utility.yul\":2430:2640   */\n      swap3\n      swap2\n      pop\n      pop\n      jump\t// out\n        /* \"#utility.yul\":2646:2764   */\n    tag_267:\n        /* \"#utility.yul\":2733:2757   */\n      tag_336\n        /* \"#utility.yul\":2751:2756   */\n      dup2\n        /* \"#utility.yul\":2733:2757   */\n      tag_262\n      jump\t// in\n    tag_336:\n        /* \"#utility.yul\":2728:2731   */\n      dup3\n        /* \"#utility.yul\":2721:2758   */\n      mstore\n        /* \"#utility.yul\":2646:2764   */\n      pop\n      pop\n      jump\t// out\n        /* \"#utility.yul\":2770:2992   */\n    tag_50:\n        /* \"#utility.yul\":2863:2867   */\n      0x00\n        /* \"#utility.yul\":2901:2903   */\n      0x20\n        /* \"#utility.yul\":2890:2899   */\n      dup3\n        /* \"#utility.yul\":2886:2904   */\n      add\n        /* \"#utility.yul\":2878:2904   */\n      swap1\n      pop\n        /* \"#utility.yul\":2914:2985   */\n      tag_338\n        /* \"#utility.yul\":2982:2983   */\n      0x00\n        /* \"#utility.yul\":2971:2980   */\n      dup4\n        /* \"#utility.yul\":2967:2984   */\n      add\n        /* \"#utility.yul\":2958:2964   */\n      dup5\n        /* \"#utility.yul\":2914:2985   */\n      tag_267\n      jump\t// in\n    tag_338:\n        /* \"#utility.yul\":2770:2992   */\n      swap3\n      swap2\n      pop\n      pop\n      jump\t// out\n        /* \"#utility.yul\":2998:3114   */\n    tag_268:\n        /* \"#utility.yul\":3068:3089   */\n      tag_340\n        /* \"#utility.yul\":3083:3088   */\n      dup2\n        /* \"#utility.yul\":3068:3089   */\n      tag_265\n      jump\t// in\n    tag_340:\n        /* \"#utility.yul\":3061:3066   */\n      dup2\n        /* \"#utility.yul\":3058:3090   */\n      eq\n        /* \"#utility.yul\":3048:3108   */\n      tag_341\n      jumpi\n        /* \"#utility.yul\":3104:3105   */\n      0x00\n        /* \"#utility.yul\":3101:3102   */\n      0x00\n        /* \"#utility.yul\":3094:3106   */\n      revert\n        /* \"#utility.yul\":3048:3108   */\n    tag_341:\n        /* \"#utility.yul\":2998:3114   */\n      pop\n      jump\t// out\n        /* \"#utility.yul\":3120:3253   */\n    tag_269:\n        /* \"#utility.yul\":3163:3168   */\n      0x00\n        /* \"#utility.yul\":3201:3207   */\n      dup2\n        /* \"#utility.yul\":3188:3208   */\n      calldataload\n        /* \"#utility.yul\":3179:3208   */\n      swap1\n      pop\n        /* \"#utility.yul\":3217:3247   */\n      tag_343\n        /* \"#utility.yul\":3241:3246   */\n      dup2\n        /* \"#utility.yul\":3217:3247   */\n      tag_268\n      jump\t// in\n    tag_343:\n        /* \"#utility.yul\":3120:3253   */\n      swap3\n      swap2\n      pop\n      pop\n      jump\t// out\n        /* \"#utility.yul\":3259:3727   */\n    tag_58:\n        /* \"#utility.yul\":3324:3330   */\n      0x00\n        /* \"#utility.yul\":3332:3338   */\n      0x00\n        /* \"#utility.yul\":3381:3383   */\n      0x40\n        /* \"#utility.yul\":3369:3378   */\n      dup4\n        /* \"#utility.yul\":3360:3367   */\n      dup6\n        /* \"#utility.yul\":3356:3379   */\n      sub\n        /* \"#utility.yul\":3352:3384   */\n      slt\n        /* \"#utility.yul\":3349:3468   */\n      iszero\n      tag_345\n      jumpi\n        /* \"#utility.yul\":3387:3466   */\n      tag_346\n      tag_255\n      jump\t// in\n    tag_346:\n        /* \"#utility.yul\":3349:3468   */\n    tag_345:\n        /* \"#utility.yul\":3507:3508   */\n      0x00\n        /* \"#utility.yul\":3532:3585   */\n      tag_347\n        /* \"#utility.yul\":3577:3584   */\n      dup6\n        /* \"#utility.yul\":3568:3574   */\n      dup3\n        /* \"#utility.yul\":3557:3566   */\n      dup7\n        /* \"#utility.yul\":3553:3575   */\n      add\n        /* \"#utility.yul\":3532:3585   */\n      tag_264\n      jump\t// in\n    tag_347:\n        /* \"#utility.yul\":3522:3585   */\n      swap3\n      pop\n        /* \"#utility.yul\":3478:3595   */\n      pop\n        /* \"#utility.yul\":3634:3636   */\n      0x20\n        /* \"#utility.yul\":3660:3710   */\n      tag_348\n        /* \"#utility.yul\":3702:3709   */\n      dup6\n        /* \"#utility.yul\":3693:3699   */\n      dup3\n        /* \"#utility.yul\":3682:3691   */\n      dup7\n        /* \"#utility.yul\":3678:3700   */\n      add\n        /* \"#utility.yul\":3660:3710   */\n      tag_269\n      jump\t// in\n    tag_348:\n        /* \"#utility.yul\":3650:3710   */\n      swap2\n      pop\n        /* \"#utility.yul\":3605:3720   */\n      pop\n        /* \"#utility.yul\":3259:3727   */\n      swap3\n      pop\n      swap3\n      swap1\n      pop\n      jump\t// out\n        /* \"#utility.yul\":3733:3793   */\n    tag_270:\n        /* \"#utility.yul\":3761:3764   */\n      0x00\n        /* \"#utility.yul\":3782:3787   */\n      dup2\n        /* \"#utility.yul\":3775:3787   */\n      swap1\n      pop\n        /* \"#utility.yul\":3733:3793   */\n      swap2\n      swap1\n      pop\n      jump\t// out\n        /* \"#utility.yul\":3799:3941   */\n    tag_271:\n        /* \"#utility.yul\":3849:3858   */\n      0x00\n        /* \"#utility.yul\":3882:3935   */\n      tag_351\n        /* \"#utility.yul\":3900:3934   */\n      tag_352\n        /* \"#utility.yul\":3909:3933   */\n      tag_353\n        /* \"#utility.yul\":3927:3932   */\n      dup5\n        /* \"#utility.yul\":3909:3933   */\n      tag_261\n      jump\t// in\n    tag_353:\n        /* \"#utility.yul\":3900:3934   */\n      tag_270\n      jump\t// in\n    tag_352:\n        /* \"#utility.yul\":3882:3935   */\n      tag_261\n      jump\t// in\n    tag_351:\n        /* \"#utility.yul\":3869:3935   */\n      swap1\n      pop\n        /* \"#utility.yul\":3799:3941   */\n      swap2\n      swap1\n      pop\n      jump\t// out\n        /* \"#utility.yul\":3947:4073   */\n    tag_272:\n        /* \"#utility.yul\":3997:4006   */\n      0x00\n        /* \"#utility.yul\":4030:4067   */\n      tag_355\n        /* \"#utility.yul\":4061:4066   */\n      dup3\n        /* \"#utility.yul\":4030:4067   */\n      tag_271\n      jump\t// in\n    tag_355:\n        /* \"#utility.yul\":4017:4067   */\n      swap1\n      pop\n        /* \"#utility.yul\":3947:4073   */\n      swap2\n      swap1\n      pop\n      jump\t// out\n        /* \"#utility.yul\":4079:4222   */\n    tag_273:\n        /* \"#utility.yul\":4146:4155   */\n      0x00\n        /* \"#utility.yul\":4179:4216   */\n      tag_357\n        /* \"#utility.yul\":4210:4215   */\n      dup3\n        /* \"#utility.yul\":4179:4216   */\n      tag_272\n      jump\t// in\n    tag_357:\n        /* \"#utility.yul\":4166:4216   */\n      swap1\n      pop\n        /* \"#utility.yul\":4079:4222   */\n      swap2\n      swap1\n      pop\n      jump\t// out\n        /* \"#utility.yul\":4228:4393   */\n    tag_274:\n        /* \"#utility.yul\":4332:4386   */\n      tag_359\n        /* \"#utility.yul\":4380:4385   */\n      dup2\n        /* \"#utility.yul\":4332:4386   */\n      tag_273\n      jump\t// in\n    tag_359:\n        /* \"#utility.yul\":4327:4330   */\n      dup3\n        /* \"#utility.yul\":4320:4387   */\n      mstore\n        /* \"#utility.yul\":4228:4393   */\n      pop\n      pop\n      jump\t// out\n        /* \"#utility.yul\":4399:4655   */\n    tag_86:\n        /* \"#utility.yul\":4509:4513   */\n      0x00\n        /* \"#utility.yul\":4547:4549   */\n      0x20\n        /* \"#utility.yul\":4536:4545   */\n      dup3\n        /* \"#utility.yul\":4532:4550   */\n      add\n        /* \"#utility.yul\":4524:4550   */\n      swap1\n      pop\n        /* \"#utility.yul\":4560:4648   */\n      tag_361\n        /* \"#utility.yul\":4645:4646   */\n      0x00\n        /* \"#utility.yul\":4634:4643   */\n      dup4\n        /* \"#utility.yul\":4630:4647   */\n      add\n        /* \"#utility.yul\":4621:4627   */\n      dup5\n        /* \"#utility.yul\":4560:4648   */\n      tag_274\n      jump\t// in\n    tag_361:\n        /* \"#utility.yul\":4399:4655   */\n      swap3\n      swap2\n      pop\n      pop\n      jump\t// out\n        /* \"#utility.yul\":4661:4830   */\n    tag_275:\n        /* \"#utility.yul\":4745:4756   */\n      0x00\n        /* \"#utility.yul\":4779:4785   */\n      dup3\n        /* \"#utility.yul\":4774:4777   */\n      dup3\n        /* \"#utility.yul\":4767:4786   */\n      mstore\n        /* \"#utility.yul\":4819:4823   */\n      0x20\n        /* \"#utility.yul\":4814:4817   */\n      dup3\n        /* \"#utility.yul\":4810:4824   */\n      add\n        /* \"#utility.yul\":4795:4824   */\n      swap1\n      pop\n        /* \"#utility.yul\":4661:4830   */\n      swap3\n      swap2\n      pop\n      pop\n      jump\t// out\n        /* \"#utility.yul\":4836:5000   */\n    tag_276:\n        /* \"#utility.yul\":4976:4992   */\n      0x4e6f7420617574686f72697a6564000000000000000000000000000000000000\n        /* \"#utility.yul\":4972:4973   */\n      0x00\n        /* \"#utility.yul\":4964:4970   */\n      dup3\n        /* \"#utility.yul\":4960:4974   */\n      add\n        /* \"#utility.yul\":4953:4993   */\n      mstore\n        /* \"#utility.yul\":4836:5000   */\n      pop\n      jump\t// out\n        /* \"#utility.yul\":5006:5372   */\n    tag_277:\n        /* \"#utility.yul\":5148:5151   */\n      0x00\n        /* \"#utility.yul\":5169:5236   */\n      tag_365\n        /* \"#utility.yul\":5233:5235   */\n      0x0e\n        /* \"#utility.yul\":5228:5231   */\n      dup4\n        /* \"#utility.yul\":5169:5236   */\n      tag_275\n      jump\t// in\n    tag_365:\n        /* \"#utility.yul\":5162:5236   */\n      swap2\n      pop\n        /* \"#utility.yul\":5245:5338   */\n      tag_366\n        /* \"#utility.yul\":5334:5337   */\n      dup3\n        /* \"#utility.yul\":5245:5338   */\n      tag_276\n      jump\t// in\n    tag_366:\n        /* \"#utility.yul\":5363:5365   */\n      0x20\n        /* \"#utility.yul\":5358:5361   */\n      dup3\n        /* \"#utility.yul\":5354:5366   */\n      add\n        /* \"#utility.yul\":5347:5366   */\n      swap1\n      pop\n        /* \"#utility.yul\":5006:5372   */\n      swap2\n      swap1\n      pop\n      jump\t// out\n        /* \"#utility.yul\":5378:5797   */\n    tag_134:\n        /* \"#utility.yul\":5544:5548   */\n      0x00\n        /* \"#utility.yul\":5582:5584   */\n      0x20\n        /* \"#utility.yul\":5571:5580   */\n      dup3\n        /* \"#utility.yul\":5567:5585   */\n      add\n        /* \"#utility.yul\":5559:5585   */\n      swap1\n      pop\n        /* \"#utility.yul\":5631:5640   */\n      dup2\n        /* \"#utility.yul\":5625:5629   */\n      dup2\n        /* \"#utility.yul\":5621:5641   */\n      sub\n        /* \"#utility.yul\":5617:5618   */\n      0x00\n        /* \"#utility.yul\":5606:5615   */\n      dup4\n        /* \"#utility.yul\":5602:5619   */\n      add\n        /* \"#utility.yul\":5595:5642   */\n      mstore\n        /* \"#utility.yul\":5659:5790   */\n      tag_368\n        /* \"#utility.yul\":5785:5789   */\n      dup2\n        /* \"#utility.yul\":5659:5790   */\n      tag_277\n      jump\t// in\n    tag_368:\n        /* \"#utility.yul\":5651:5790   */\n      swap1\n      pop\n        /* \"#utility.yul\":5378:5797   */\n      swap2\n      swap1\n      pop\n      jump\t// out\n        /* \"#utility.yul\":5803:5969   */\n    tag_278:\n        /* \"#utility.yul\":5943:5961   */\n      0x496e73756666696369656e742045544800000000000000000000000000000000\n        /* \"#utility.yul\":5939:5940   */\n      0x00\n        /* \"#utility.yul\":5931:5937   */\n      dup3\n        /* \"#utility.yul\":5927:5941   */\n      add\n        /* \"#utility.yul\":5920:5962   */\n      mstore\n        /* \"#utility.yul\":5803:5969   */\n      pop\n      jump\t// out\n        /* \"#utility.yul\":5975:6341   */\n    tag_279:\n        /* \"#utility.yul\":6117:6120   */\n      0x00\n        /* \"#utility.yul\":6138:6205   */\n      tag_371\n        /* \"#utility.yul\":6202:6204   */\n      0x10\n        /* \"#utility.yul\":6197:6200   */\n      dup4\n        /* \"#utility.yul\":6138:6205   */\n      tag_275\n      jump\t// in\n    tag_371:\n        /* \"#utility.yul\":6131:6205   */\n      swap2\n      pop\n        /* \"#utility.yul\":6214:6307   */\n      tag_372\n        /* \"#utility.yul\":6303:6306   */\n      dup3\n        /* \"#utility.yul\":6214:6307   */\n      tag_278\n      jump\t// in\n    tag_372:\n        /* \"#utility.yul\":6332:6334   */\n      0x20\n        /* \"#utility.yul\":6327:6330   */\n      dup3\n        /* \"#utility.yul\":6323:6335   */\n      add\n        /* \"#utility.yul\":6316:6335   */\n      swap1\n      pop\n        /* \"#utility.yul\":5975:6341   */\n      swap2\n      swap1\n      pop\n      jump\t// out\n        /* \"#utility.yul\":6347:6766   */\n    tag_138:\n        /* \"#utility.yul\":6513:6517   */\n      0x00\n        /* \"#utility.yul\":6551:6553   */\n      0x20\n        /* \"#utility.yul\":6540:6549   */\n      dup3\n        /* \"#utility.yul\":6536:6554   */\n      add\n        /* \"#utility.yul\":6528:6554   */\n      swap1\n      pop\n        /* \"#utility.yul\":6600:6609   */\n      dup2\n        /* \"#utility.yul\":6594:6598   */\n      dup2\n        /* \"#utility.yul\":6590:6610   */\n      sub\n        /* \"#utility.yul\":6586:6587   */\n      0x00\n        /* \"#utility.yul\":6575:6584   */\n      dup4\n        /* \"#utility.yul\":6571:6588   */\n      add\n        /* \"#utility.yul\":6564:6611   */\n      mstore\n        /* \"#utility.yul\":6628:6759   */\n      tag_374\n        /* \"#utility.yul\":6754:6758   */\n      dup2\n        /* \"#utility.yul\":6628:6759   */\n      tag_279\n      jump\t// in\n    tag_374:\n        /* \"#utility.yul\":6620:6759   */\n      swap1\n      pop\n        /* \"#utility.yul\":6347:6766   */\n      swap2\n      swap1\n      pop\n      jump\t// out\n        /* \"#utility.yul\":6772:6919   */\n    tag_280:\n        /* \"#utility.yul\":6873:6884   */\n      0x00\n        /* \"#utility.yul\":6910:6913   */\n      dup2\n        /* \"#utility.yul\":6895:6913   */\n      swap1\n      pop\n        /* \"#utility.yul\":6772:6919   */\n      swap3\n      swap2\n      pop\n      pop\n      jump\t// out\n        /* \"#utility.yul\":6925:7039   */\n    tag_281:\n      pop\n      jump\t// out\n        /* \"#utility.yul\":7045:7443   */\n    tag_282:\n        /* \"#utility.yul\":7204:7207   */\n      0x00\n        /* \"#utility.yul\":7225:7308   */\n      tag_378\n        /* \"#utility.yul\":7306:7307   */\n      0x00\n        /* \"#utility.yul\":7301:7304   */\n      dup4\n        /* \"#utility.yul\":7225:7308   */\n      tag_280\n      jump\t// in\n    tag_378:\n        /* \"#utility.yul\":7218:7308   */\n      swap2\n      pop\n        /* \"#utility.yul\":7317:7410   */\n      tag_379\n        /* \"#utility.yul\":7406:7409   */\n      dup3\n        /* \"#utility.yul\":7317:7410   */\n      tag_281\n      jump\t// in\n    tag_379:\n        /* \"#utility.yul\":7435:7436   */\n      0x00\n        /* \"#utility.yul\":7430:7433   */\n      dup3\n        /* \"#utility.yul\":7426:7437   */\n      add\n        /* \"#utility.yul\":7419:7437   */\n      swap1\n      pop\n        /* \"#utility.yul\":7045:7443   */\n      swap2\n      swap1\n      pop\n      jump\t// out\n        /* \"#utility.yul\":7449:7828   */\n    tag_140:\n        /* \"#utility.yul\":7633:7636   */\n      0x00\n        /* \"#utility.yul\":7655:7802   */\n      tag_381\n        /* \"#utility.yul\":7798:7801   */\n      dup3\n        /* \"#utility.yul\":7655:7802   */\n      tag_282\n      jump\t// in\n    tag_381:\n        /* \"#utility.yul\":7648:7802   */\n      swap2\n      pop\n        /* \"#utility.yul\":7819:7822   */\n      dup2\n        /* \"#utility.yul\":7812:7822   */\n      swap1\n      pop\n        /* \"#utility.yul\":7449:7828   */\n      swap2\n      swap1\n      pop\n      jump\t// out\n        /* \"#utility.yul\":7834:7999   */\n    tag_283:\n        /* \"#utility.yul\":7974:7991   */\n      0x5769746864726177206661696c65640000000000000000000000000000000000\n        /* \"#utility.yul\":7970:7971   */\n      0x00\n        /* \"#utility.yul\":7962:7968   */\n      dup3\n        /* \"#utility.yul\":7958:7972   */\n      add\n        /* \"#utility.yul\":7951:7992   */\n      mstore\n        /* \"#utility.yul\":7834:7999   */\n      pop\n      jump\t// out\n        /* \"#utility.yul\":8005:8371   */\n    tag_284:\n        /* \"#utility.yul\":8147:8150   */\n      0x00\n        /* \"#utility.yul\":8168:8235   */\n      tag_384\n        /* \"#utility.yul\":8232:8234   */\n      0x0f\n        /* \"#utility.yul\":8227:8230   */\n      dup4\n        /* \"#utility.yul\":8168:8235   */\n      tag_275\n      jump\t// in\n    tag_384:\n        /* \"#utility.yul\":8161:8235   */\n      swap2\n      pop\n        /* \"#utility.yul\":8244:8337   */\n      tag_385\n        /* \"#utility.yul\":8333:8336   */\n      dup3\n        /* \"#utility.yul\":8244:8337   */\n      tag_283\n      jump\t// in\n    tag_385:\n        /* \"#utility.yul\":8362:8364   */\n      0x20\n        /* \"#utility.yul\":8357:8360   */\n      dup3\n        /* \"#utility.yul\":8353:8365   */\n      add\n        /* \"#utility.yul\":8346:8365   */\n      swap1\n      pop\n        /* \"#utility.yul\":8005:8371   */\n      swap2\n      swap1\n      pop\n      jump\t// out\n        /* \"#utility.yul\":8377:8796   */\n    tag_146:\n        /* \"#utility.yul\":8543:8547   */\n      0x00\n        /* \"#utility.yul\":8581:8583   */\n      0x20\n        /* \"#utility.yul\":8570:8579   */\n      dup3\n        /* \"#utility.yul\":8566:8584   */\n      add\n        /* \"#utility.yul\":8558:8584   */\n      swap1\n      pop\n        /* \"#utility.yul\":8630:8639   */\n      dup2\n        /* \"#utility.yul\":8624:8628   */\n      dup2\n        /* \"#utility.yul\":8620:8640   */\n      sub\n        /* \"#utility.yul\":8616:8617   */\n      0x00\n        /* \"#utility.yul\":8605:8614   */\n      dup4\n        /* \"#utility.yul\":8601:8618   */\n      add\n        /* \"#utility.yul\":8594:8641   */\n      mstore\n        /* \"#utility.yul\":8658:8789   */\n      tag_387\n        /* \"#utility.yul\":8784:8788   */\n      dup2\n        /* \"#utility.yul\":8658:8789   */\n      tag_284\n      jump\t// in\n    tag_387:\n        /* \"#utility.yul\":8650:8789   */\n      swap1\n      pop\n        /* \"#utility.yul\":8377:8796   */\n      swap2\n      swap1\n      pop\n      jump\t// out\n        /* \"#utility.yul\":8802:8970   */\n    tag_285:\n        /* \"#utility.yul\":8942:8962   */\n      0x496e76616c696420636f6d706c69616e63650000000000000000000000000000\n        /* \"#utility.yul\":8938:8939   */\n      0x00\n        /* \"#utility.yul\":8930:8936   */\n      dup3\n        /* \"#utility.yul\":8926:8940   */\n      add\n        /* \"#utility.yul\":8919:8963   */\n      mstore\n        /* \"#utility.yul\":8802:8970   */\n      pop\n      jump\t// out\n        /* \"#utility.yul\":8976:9342   */\n    tag_286:\n        /* \"#utility.yul\":9118:9121   */\n      0x00\n        /* \"#utility.yul\":9139:9206   */\n      tag_390\n        /* \"#utility.yul\":9203:9205   */\n      0x12\n        /* \"#utility.yul\":9198:9201   */\n      dup4\n        /* \"#utility.yul\":9139:9206   */\n      tag_275\n      jump\t// in\n    tag_390:\n        /* \"#utility.yul\":9132:9206   */\n      swap2\n      pop\n        /* \"#utility.yul\":9215:9308   */\n      tag_391\n        /* \"#utility.yul\":9304:9307   */\n      dup3\n        /* \"#utility.yul\":9215:9308   */\n      tag_285\n      jump\t// in\n    tag_391:\n        /* \"#utility.yul\":9333:9335   */\n      0x20\n        /* \"#utility.yul\":9328:9331   */\n      dup3\n        /* \"#utility.yul\":9324:9336   */\n      add\n        /* \"#utility.yul\":9317:9336   */\n      swap1\n      pop\n        /* \"#utility.yul\":8976:9342   */\n      swap2\n      swap1\n      pop\n      jump\t// out\n        /* \"#utility.yul\":9348:9767   */\n    tag_161:\n        /* \"#utility.yul\":9514:9518   */\n      0x00\n        /* \"#utility.yul\":9552:9554   */\n      0x20\n        /* \"#utility.yul\":9541:9550   */\n      dup3\n        /* \"#utility.yul\":9537:9555   */\n      add\n        /* \"#utility.yul\":9529:9555   */\n      swap1\n      pop\n        /* \"#utility.yul\":9601:9610   */\n      dup2\n        /* \"#utility.yul\":9595:9599   */\n      dup2\n        /* \"#utility.yul\":9591:9611   */\n      sub\n        /* \"#utility.yul\":9587:9588   */\n      0x00\n        /* \"#utility.yul\":9576:9585   */\n      dup4\n        /* \"#utility.yul\":9572:9589   */\n      add\n        /* \"#utility.yul\":9565:9612   */\n      mstore\n        /* \"#utility.yul\":9629:9760   */\n      tag_393\n        /* \"#utility.yul\":9755:9759   */\n      dup2\n        /* \"#utility.yul\":9629:9760   */\n      tag_286\n      jump\t// in\n    tag_393:\n        /* \"#utility.yul\":9621:9760   */\n      swap1\n      pop\n        /* \"#utility.yul\":9348:9767   */\n      swap2\n      swap1\n      pop\n      jump\t// out\n        /* \"#utility.yul\":9773:9938   */\n    tag_287:\n        /* \"#utility.yul\":9913:9930   */\n      0x53616c65206e6f74206163746976650000000000000000000000000000000000\n        /* \"#utility.yul\":9909:9910   */\n      0x00\n        /* \"#utility.yul\":9901:9907   */\n      dup3\n        /* \"#utility.yul\":9897:9911   */\n      add\n        /* \"#utility.yul\":9890:9931   */\n      mstore\n        /* \"#utility.yul\":9773:9938   */\n      pop\n      jump\t// out\n        /* \"#utility.yul\":9944:10310   */\n    tag_288:\n        /* \"#utility.yul\":10086:10089   */\n      0x00\n        /* \"#utility.yul\":10107:10174   */\n      tag_396\n        /* \"#utility.yul\":10171:10173   */\n      0x0f\n        /* \"#utility.yul\":10166:10169   */\n      dup4\n        /* \"#utility.yul\":10107:10174   */\n      tag_275\n      jump\t// in\n    tag_396:\n        /* \"#utility.yul\":10100:10174   */\n      swap2\n      pop\n        /* \"#utility.yul\":10183:10276   */\n      tag_397\n        /* \"#utility.yul\":10272:10275   */\n      dup3\n        /* \"#utility.yul\":10183:10276   */\n      tag_287\n      jump\t// in\n    tag_397:\n        /* \"#utility.yul\":10301:10303   */\n      0x20\n        /* \"#utility.yul\":10296:10299   */\n      dup3\n        /* \"#utility.yul\":10292:10304   */\n      add\n        /* \"#utility.yul\":10285:10304   */\n      swap1\n      pop\n        /* \"#utility.yul\":9944:10310   */\n      swap2\n      swap1\n      pop\n      jump\t// out\n        /* \"#utility.yul\":10316:10735   */\n    tag_190:\n        /* \"#utility.yul\":10482:10486   */\n      0x00\n        /* \"#utility.yul\":10520:10522   */\n      0x20\n        /* \"#utility.yul\":10509:10518   */\n      dup3\n        /* \"#utility.yul\":10505:10523   */\n      add\n        /* \"#utility.yul\":10497:10523   */\n      swap1\n      pop\n        /* \"#utility.yul\":10569:10578   */\n      dup2\n        /* \"#utility.yul\":10563:10567   */\n      dup2\n        /* \"#utility.yul\":10559:10579   */\n      sub\n        /* \"#utility.yul\":10555:10556   */\n      0x00\n        /* \"#utility.yul\":10544:10553   */\n      dup4\n        /* \"#utility.yul\":10540:10557   */\n      add\n        /* \"#utility.yul\":10533:10580   */\n      mstore\n        /* \"#utility.yul\":10597:10728   */\n      tag_399\n        /* \"#utility.yul\":10723:10727   */\n      dup2\n        /* \"#utility.yul\":10597:10728   */\n      tag_288\n      jump\t// in\n    tag_399:\n        /* \"#utility.yul\":10589:10728   */\n      swap1\n      pop\n        /* \"#utility.yul\":10316:10735   */\n      swap2\n      swap1\n      pop\n      jump\t// out\n        /* \"#utility.yul\":10741:10906   */\n    tag_289:\n        /* \"#utility.yul\":10881:10898   */\n      0x4e6f742077686974656c69737465640000000000000000000000000000000000\n        /* \"#utility.yul\":10877:10878   */\n      0x00\n        /* \"#utility.yul\":10869:10875   */\n      dup3\n        /* \"#utility.yul\":10865:10879   */\n      add\n        /* \"#utility.yul\":10858:10899   */\n      mstore\n        /* \"#utility.yul\":10741:10906   */\n      pop\n      jump\t// out\n        /* \"#utility.yul\":10912:11278   */\n    tag_290:\n        /* \"#utility.yul\":11054:11057   */\n      0x00\n        /* \"#utility.yul\":11075:11142   */\n      tag_402\n        /* \"#utility.yul\":11139:11141   */\n      0x0f\n        /* \"#utility.yul\":11134:11137   */\n      dup4\n        /* \"#utility.yul\":11075:11142   */\n      tag_275\n      jump\t// in\n    tag_402:\n        /* \"#utility.yul\":11068:11142   */\n      swap2\n      pop\n        /* \"#utility.yul\":11151:11244   */\n      tag_403\n        /* \"#utility.yul\":11240:11243   */\n      dup3\n        /* \"#utility.yul\":11151:11244   */\n      tag_289\n      jump\t// in\n    tag_403:\n        /* \"#utility.yul\":11269:11271   */\n      0x20\n        /* \"#utility.yul\":11264:11267   */\n      dup3\n        /* \"#utility.yul\":11260:11272   */\n      add\n        /* \"#utility.yul\":11253:11272   */\n      swap1\n      pop\n        /* \"#utility.yul\":10912:11278   */\n      swap2\n      swap1\n      pop\n      jump\t// out\n        /* \"#utility.yul\":11284:11703   */\n    tag_193:\n        /* \"#utility.yul\":11450:11454   */\n      0x00\n        /* \"#utility.yul\":11488:11490   */\n      0x20\n        /* \"#utility.yul\":11477:11486   */\n      dup3\n        /* \"#utility.yul\":11473:11491   */\n      add\n        /* \"#utility.yul\":11465:11491   */\n      swap1\n      pop\n        /* \"#utility.yul\":11537:11546   */\n      dup2\n        /* \"#utility.yul\":11531:11535   */\n      dup2\n        /* \"#utility.yul\":11527:11547   */\n      sub\n        /* \"#utility.yul\":11523:11524   */\n      0x00\n        /* \"#utility.yul\":11512:11521   */\n      dup4\n        /* \"#utility.yul\":11508:11525   */\n      add\n        /* \"#utility.yul\":11501:11548   */\n      mstore\n        /* \"#utility.yul\":11565:11696   */\n      tag_405\n        /* \"#utility.yul\":11691:11695   */\n      dup2\n        /* \"#utility.yul\":11565:11696   */\n      tag_290\n      jump\t// in\n    tag_405:\n        /* \"#utility.yul\":11557:11696   */\n      swap1\n      pop\n        /* \"#utility.yul\":11284:11703   */\n      swap2\n      swap1\n      pop\n      jump\t// out\n        /* \"#utility.yul\":11709:11881   */\n    tag_291:\n        /* \"#utility.yul\":11849:11873   */\n      0x42656c6f77206d696e20636f6e747269627574696f6e00000000000000000000\n        /* \"#utility.yul\":11845:11846   */\n      0x00\n        /* \"#utility.yul\":11837:11843   */\n      dup3\n        /* \"#utility.yul\":11833:11847   */\n      add\n        /* \"#utility.yul\":11826:11874   */\n      mstore\n        /* \"#utility.yul\":11709:11881   */\n      pop\n      jump\t// out\n        /* \"#utility.yul\":11887:12253   */\n    tag_292:\n        /* \"#utility.yul\":12029:12032   */\n      0x00\n        /* \"#utility.yul\":12050:12117   */\n      tag_408\n        /* \"#utility.yul\":12114:12116   */\n      0x16\n        /* \"#utility.yul\":12109:12112   */\n      dup4\n        /* \"#utility.yul\":12050:12117   */\n      tag_275\n      jump\t// in\n    tag_408:\n        /* \"#utility.yul\":12043:12117   */\n      swap2\n      pop\n        /* \"#utility.yul\":12126:12219   */\n      tag_409\n        /* \"#utility.yul\":12215:12218   */\n      dup3\n        /* \"#utility.yul\":12126:12219   */\n      tag_291\n      jump\t// in\n    tag_409:\n        /* \"#utility.yul\":12244:12246   */\n      0x20\n        /* \"#utility.yul\":12239:12242   */\n      dup3\n        /* \"#utility.yul\":12235:12247   */\n      add\n        /* \"#utility.yul\":12228:12247   */\n      swap1\n      pop\n        /* \"#utility.yul\":11887:12253   */\n      swap2\n      swap1\n      pop\n      jump\t// out\n        /* \"#utility.yul\":12259:12678   */\n    tag_196:\n        /* \"#utility.yul\":12425:12429   */\n      0x00\n        /* \"#utility.yul\":12463:12465   */\n      0x20\n        /* \"#utility.yul\":12452:12461   */\n      dup3\n        /* \"#utility.yul\":12448:12466   */\n      add\n        /* \"#utility.yul\":12440:12466   */\n      swap1\n      pop\n        /* \"#utility.yul\":12512:12521   */\n      dup2\n        /* \"#utility.yul\":12506:12510   */\n      dup2\n        /* \"#utility.yul\":12502:12522   */\n      sub\n        /* \"#utility.yul\":12498:12499   */\n      0x00\n        /* \"#utility.yul\":12487:12496   */\n      dup4\n        /* \"#utility.yul\":12483:12500   */\n      add\n        /* \"#utility.yul\":12476:12523   */\n      mstore\n        /* \"#utility.yul\":12540:12671   */\n      tag_411\n        /* \"#utility.yul\":12666:12670   */\n      dup2\n        /* \"#utility.yul\":12540:12671   */\n      tag_292\n      jump\t// in\n    tag_411:\n        /* \"#utility.yul\":12532:12671   */\n      swap1\n      pop\n        /* \"#utility.yul\":12259:12678   */\n      swap2\n      swap1\n      pop\n      jump\t// out\n        /* \"#utility.yul\":12684:12864   */\n    tag_293:\n        /* \"#utility.yul\":12732:12809   */\n      0x4e487b7100000000000000000000000000000000000000000000000000000000\n        /* \"#utility.yul\":12729:12730   */\n      0x00\n        /* \"#utility.yul\":12722:12810   */\n      mstore\n        /* \"#utility.yul\":12829:12833   */\n      0x11\n        /* \"#utility.yul\":12826:12827   */\n      0x04\n        /* \"#utility.yul\":12819:12834   */\n      mstore\n        /* \"#utility.yul\":12853:12857   */\n      0x24\n        /* \"#utility.yul\":12850:12851   */\n      0x00\n        /* \"#utility.yul\":12843:12858   */\n      revert\n        /* \"#utility.yul\":12870:13061   */\n    tag_198:\n        /* \"#utility.yul\":12910:12913   */\n      0x00\n        /* \"#utility.yul\":12929:12949   */\n      tag_414\n        /* \"#utility.yul\":12947:12948   */\n      dup3\n        /* \"#utility.yul\":12929:12949   */\n      tag_257\n      jump\t// in\n    tag_414:\n        /* \"#utility.yul\":12924:12949   */\n      swap2\n      pop\n        /* \"#utility.yul\":12963:12983   */\n      tag_415\n        /* \"#utility.yul\":12981:12982   */\n      dup4\n        /* \"#utility.yul\":12963:12983   */\n      tag_257\n      jump\t// in\n    tag_415:\n        /* \"#utility.yul\":12958:12983   */\n      swap3\n      pop\n        /* \"#utility.yul\":13006:13007   */\n      dup3\n        /* \"#utility.yul\":13003:13004   */\n      dup3\n        /* \"#utility.yul\":12999:13008   */\n      add\n        /* \"#utility.yul\":12992:13008   */\n      swap1\n      pop\n        /* \"#utility.yul\":13027:13030   */\n      dup1\n        /* \"#utility.yul\":13024:13025   */\n      dup3\n        /* \"#utility.yul\":13021:13031   */\n      gt\n        /* \"#utility.yul\":13018:13054   */\n      iszero\n      tag_416\n      jumpi\n        /* \"#utility.yul\":13034:13052   */\n      tag_417\n      tag_293\n      jump\t// in\n    tag_417:\n        /* \"#utility.yul\":13018:13054   */\n    tag_416:\n        /* \"#utility.yul\":12870:13061   */\n      swap3\n      swap2\n      pop\n      pop\n      jump\t// out\n        /* \"#utility.yul\":13067:13239   */\n    tag_294:\n        /* \"#utility.yul\":13207:13231   */\n      0x41626f7665206d617820636f6e747269627574696f6e00000000000000000000\n        /* \"#utility.yul\":13203:13204   */\n      0x00\n        /* \"#utility.yul\":13195:13201   */\n      dup3\n        /* \"#utility.yul\":13191:13205   */\n      add\n        /* \"#utility.yul\":13184:13232   */\n      mstore\n        /* \"#utility.yul\":13067:13239   */\n      pop\n      jump\t// out\n        /* \"#utility.yul\":13245:13611   */\n    tag_295:\n        /* \"#utility.yul\":13387:13390   */\n      0x00\n        /* \"#utility.yul\":13408:13475   */\n      tag_420\n        /* \"#utility.yul\":13472:13474   */\n      0x16\n        /* \"#utility.yul\":13467:13470   */\n      dup4\n        /* \"#utility.yul\":13408:13475   */\n      tag_275\n      jump\t// in\n    tag_420:\n        /* \"#utility.yul\":13401:13475   */\n      swap2\n      pop\n        /* \"#utility.yul\":13484:13577   */\n      tag_421\n        /* \"#utility.yul\":13573:13576   */\n      dup3\n        /* \"#utility.yul\":13484:13577   */\n      tag_294\n      jump\t// in\n    tag_421:\n        /* \"#utility.yul\":13602:13604   */\n      0x20\n        /* \"#utility.yul\":13597:13600   */\n      dup3\n        /* \"#utility.yul\":13593:13605   */\n      add\n        /* \"#utility.yul\":13586:13605   */\n      swap1\n      pop\n        /* \"#utility.yul\":13245:13611   */\n      swap2\n      swap1\n      pop\n      jump\t// out\n        /* \"#utility.yul\":13617:14036   */\n    tag_201:\n        /* \"#utility.yul\":13783:13787   */\n      0x00\n        /* \"#utility.yul\":13821:13823   */\n      0x20\n        /* \"#utility.yul\":13810:13819   */\n      dup3\n        /* \"#utility.yul\":13806:13824   */\n      add\n        /* \"#utility.yul\":13798:13824   */\n      swap1\n      pop\n        /* \"#utility.yul\":13870:13879   */\n      dup2\n        /* \"#utility.yul\":13864:13868   */\n      dup2\n        /* \"#utility.yul\":13860:13880   */\n      sub\n        /* \"#utility.yul\":13856:13857   */\n      0x00\n        /* \"#utility.yul\":13845:13854   */\n      dup4\n        /* \"#utility.yul\":13841:13858   */\n      add\n        /* \"#utility.yul\":13834:13881   */\n      mstore\n        /* \"#utility.yul\":13898:14029   */\n      tag_423\n        /* \"#utility.yul\":14024:14028   */\n      dup2\n        /* \"#utility.yul\":13898:14029   */\n      tag_295\n      jump\t// in\n    tag_423:\n        /* \"#utility.yul\":13890:14029   */\n      swap1\n      pop\n        /* \"#utility.yul\":13617:14036   */\n      swap2\n      swap1\n      pop\n      jump\t// out\n        /* \"#utility.yul\":14042:14452   */\n    tag_203:\n        /* \"#utility.yul\":14082:14089   */\n      0x00\n        /* \"#utility.yul\":14105:14125   */\n      tag_425\n        /* \"#utility.yul\":14123:14124   */\n      dup3\n        /* \"#utility.yul\":14105:14125   */\n      tag_257\n      jump\t// in\n    tag_425:\n        /* \"#utility.yul\":14100:14125   */\n      swap2\n      pop\n        /* \"#utility.yul\":14139:14159   */\n      tag_426\n        /* \"#utility.yul\":14157:14158   */\n      dup4\n        /* \"#utility.yul\":14139:14159   */\n      tag_257\n      jump\t// in\n    tag_426:\n        /* \"#utility.yul\":14134:14159   */\n      swap3\n      pop\n        /* \"#utility.yul\":14194:14195   */\n      dup3\n        /* \"#utility.yul\":14191:14192   */\n      dup3\n        /* \"#utility.yul\":14187:14196   */\n      mul\n        /* \"#utility.yul\":14216:14246   */\n      tag_427\n        /* \"#utility.yul\":14234:14245   */\n      dup2\n        /* \"#utility.yul\":14216:14246   */\n      tag_257\n      jump\t// in\n    tag_427:\n        /* \"#utility.yul\":14205:14246   */\n      swap2\n      pop\n        /* \"#utility.yul\":14395:14396   */\n      dup3\n        /* \"#utility.yul\":14386:14393   */\n      dup3\n        /* \"#utility.yul\":14382:14397   */\n      div\n        /* \"#utility.yul\":14379:14380   */\n      dup5\n        /* \"#utility.yul\":14376:14398   */\n      eq\n        /* \"#utility.yul\":14356:14357   */\n      dup4\n        /* \"#utility.yul\":14349:14358   */\n      iszero\n        /* \"#utility.yul\":14329:14412   */\n      or\n        /* \"#utility.yul\":14306:14445   */\n      tag_428\n      jumpi\n        /* \"#utility.yul\":14425:14443   */\n      tag_429\n      tag_293\n      jump\t// in\n    tag_429:\n        /* \"#utility.yul\":14306:14445   */\n    tag_428:\n        /* \"#utility.yul\":14090:14452   */\n      pop\n        /* \"#utility.yul\":14042:14452   */\n      swap3\n      swap2\n      pop\n      pop\n      jump\t// out\n        /* \"#utility.yul\":14458:14625   */\n    tag_296:\n        /* \"#utility.yul\":14598:14617   */\n      0x4861726420636170206578636565646564000000000000000000000000000000\n        /* \"#utility.yul\":14594:14595   */\n      0x00\n        /* \"#utility.yul\":14586:14592   */\n      dup3\n        /* \"#utility.yul\":14582:14596   */\n      add\n        /* \"#utility.yul\":14575:14618   */\n      mstore\n        /* \"#utility.yul\":14458:14625   */\n      pop\n      jump\t// out\n        /* \"#utility.yul\":14631:14997   */\n    tag_297:\n        /* \"#utility.yul\":14773:14776   */\n      0x00\n        /* \"#utility.yul\":14794:14861   */\n      tag_432\n        /* \"#utility.yul\":14858:14860   */\n      0x11\n        /* \"#utility.yul\":14853:14856   */\n      dup4\n        /* \"#utility.yul\":14794:14861   */\n      tag_275\n      jump\t// in\n    tag_432:\n        /* \"#utility.yul\":14787:14861   */\n      swap2\n      pop\n        /* \"#utility.yul\":14870:14963   */\n      tag_433\n        /* \"#utility.yul\":14959:14962   */\n      dup3\n        /* \"#utility.yul\":14870:14963   */\n      tag_296\n      jump\t// in\n    tag_433:\n        /* \"#utility.yul\":14988:14990   */\n      0x20\n        /* \"#utility.yul\":14983:14986   */\n      dup3\n        /* \"#utility.yul\":14979:14991   */\n      add\n        /* \"#utility.yul\":14972:14991   */\n      swap1\n      pop\n        /* \"#utility.yul\":14631:14997   */\n      swap2\n      swap1\n      pop\n      jump\t// out\n        /* \"#utility.yul\":15003:15422   */\n    tag_207:\n        /* \"#utility.yul\":15169:15173   */\n      0x00\n        /* \"#utility.yul\":15207:15209   */\n      0x20\n        /* \"#utility.yul\":15196:15205   */\n      dup3\n        /* \"#utility.yul\":15192:15210   */\n      add\n        /* \"#utility.yul\":15184:15210   */\n      swap1\n      pop\n        /* \"#utility.yul\":15256:15265   */\n      dup2\n        /* \"#utility.yul\":15250:15254   */\n      dup2\n        /* \"#utility.yul\":15246:15266   */\n      sub\n        /* \"#utility.yul\":15242:15243   */\n      0x00\n        /* \"#utility.yul\":15231:15240   */\n      dup4\n        /* \"#utility.yul\":15227:15244   */\n      add\n        /* \"#utility.yul\":15220:15267   */\n      mstore\n        /* \"#utility.yul\":15284:15415   */\n      tag_435\n        /* \"#utility.yul\":15410:15414   */\n      dup2\n        /* \"#utility.yul\":15284:15415   */\n      tag_297\n      jump\t// in\n    tag_435:\n        /* \"#utility.yul\":15276:15415   */\n      swap1\n      pop\n        /* \"#utility.yul\":15003:15422   */\n      swap2\n      swap1\n      pop\n      jump\t// out\n        /* \"#utility.yul\":15428:15760   */\n    tag_210:\n        /* \"#utility.yul\":15549:15553   */\n      0x00\n        /* \"#utility.yul\":15587:15589   */\n      0x40\n        /* \"#utility.yul\":15576:15585   */\n      dup3\n        /* \"#utility.yul\":15572:15590   */\n      add\n        /* \"#utility.yul\":15564:15590   */\n      swap1\n      pop\n        /* \"#utility.yul\":15600:15671   */\n      tag_437\n        /* \"#utility.yul\":15668:15669   */\n      0x00\n        /* \"#utility.yul\":15657:15666   */\n      dup4\n        /* \"#utility.yul\":15653:15670   */\n      add\n        /* \"#utility.yul\":15644:15650   */\n      dup6\n        /* \"#utility.yul\":15600:15671   */\n      tag_267\n      jump\t// in\n    tag_437:\n        /* \"#utility.yul\":15681:15753   */\n      tag_438\n        /* \"#utility.yul\":15749:15751   */\n      0x20\n        /* \"#utility.yul\":15738:15747   */\n      dup4\n        /* \"#utility.yul\":15734:15752   */\n      add\n        /* \"#utility.yul\":15725:15731   */\n      dup5\n        /* \"#utility.yul\":15681:15753   */\n      tag_260\n      jump\t// in\n    tag_438:\n        /* \"#utility.yul\":15428:15760   */\n      swap4\n      swap3\n      pop\n      pop\n      pop\n      jump\t// out\n        /* \"#utility.yul\":15766:16098   */\n    tag_215:\n        /* \"#utility.yul\":15887:15891   */\n      0x00\n        /* \"#utility.yul\":15925:15927   */\n      0x40\n        /* \"#utility.yul\":15914:15923   */\n      dup3\n        /* \"#utility.yul\":15910:15928   */\n      add\n        /* \"#utility.yul\":15902:15928   */\n      swap1\n      pop\n        /* \"#utility.yul\":15938:16009   */\n      tag_440\n        /* \"#utility.yul\":16006:16007   */\n      0x00\n        /* \"#utility.yul\":15995:16004   */\n      dup4\n        /* \"#utility.yul\":15991:16008   */\n      add\n        /* \"#utility.yul\":15982:15988   */\n      dup6\n        /* \"#utility.yul\":15938:16009   */\n      tag_260\n      jump\t// in\n    tag_440:\n        /* \"#utility.yul\":16019:16091   */\n      tag_441\n        /* \"#utility.yul\":16087:16089   */\n      0x20\n        /* \"#utility.yul\":16076:16085   */\n      dup4\n        /* \"#utility.yul\":16072:16090   */\n      add\n        /* \"#utility.yul\":16063:16069   */\n      dup5\n        /* \"#utility.yul\":16019:16091   */\n      tag_260\n      jump\t// in\n    tag_441:\n        /* \"#utility.yul\":15766:16098   */\n      swap4\n      swap3\n      pop\n      pop\n      pop\n      jump\t// out\n        /* \"#utility.yul\":16104:16270   */\n    tag_298:\n        /* \"#utility.yul\":16244:16262   */\n      0x496e76616c696420747265617375727900000000000000000000000000000000\n        /* \"#utility.yul\":16240:16241   */\n      0x00\n        /* \"#utility.yul\":16232:16238   */\n      dup3\n        /* \"#utility.yul\":16228:16242   */\n      add\n        /* \"#utility.yul\":16221:16263   */\n      mstore\n        /* \"#utility.yul\":16104:16270   */\n      pop\n      jump\t// out\n        /* \"#utility.yul\":16276:16642   */\n    tag_299:\n        /* \"#utility.yul\":16418:16421   */\n      0x00\n        /* \"#utility.yul\":16439:16506   */\n      tag_444\n        /* \"#utility.yul\":16503:16505   */\n      0x10\n        /* \"#utility.yul\":16498:16501   */\n      dup4\n        /* \"#utility.yul\":16439:16506   */\n      tag_275\n      jump\t// in\n    tag_444:\n        /* \"#utility.yul\":16432:16506   */\n      swap2\n      pop\n        /* \"#utility.yul\":16515:16608   */\n      tag_445\n        /* \"#utility.yul\":16604:16607   */\n      dup3\n        /* \"#utility.yul\":16515:16608   */\n      tag_298\n      jump\t// in\n    tag_445:\n        /* \"#utility.yul\":16633:16635   */\n      0x20\n        /* \"#utility.yul\":16628:16631   */\n      dup3\n        /* \"#utility.yul\":16624:16636   */\n      add\n        /* \"#utility.yul\":16617:16636   */\n      swap1\n      pop\n        /* \"#utility.yul\":16276:16642   */\n      swap2\n      swap1\n      pop\n      jump\t// out\n        /* \"#utility.yul\":16648:17067   */\n    tag_227:\n        /* \"#utility.yul\":16814:16818   */\n      0x00\n        /* \"#utility.yul\":16852:16854   */\n      0x20\n        /* \"#utility.yul\":16841:16850   */\n      dup3\n        /* \"#utility.yul\":16837:16855   */\n      add\n        /* \"#utility.yul\":16829:16855   */\n      swap1\n      pop\n        /* \"#utility.yul\":16901:16910   */\n      dup2\n        /* \"#utility.yul\":16895:16899   */\n      dup2\n        /* \"#utility.yul\":16891:16911   */\n      sub\n        /* \"#utility.yul\":16887:16888   */\n      0x00\n        /* \"#utility.yul\":16876:16885   */\n      dup4\n        /* \"#utility.yul\":16872:16889   */\n      add\n        /* \"#utility.yul\":16865:16912   */\n      mstore\n        /* \"#utility.yul\":16929:17060   */\n      tag_447\n        /* \"#utility.yul\":17055:17059   */\n      dup2\n        /* \"#utility.yul\":16929:17060   */\n      tag_299\n      jump\t// in\n    tag_447:\n        /* \"#utility.yul\":16921:17060   */\n      swap1\n      pop\n        /* \"#utility.yul\":16648:17067   */\n      swap2\n      swap1\n      pop\n      jump\t// out\n\n    auxdata: 0xa2646970667358221220fba1a06301866392b841ae402a57005d055bdd3a8a4b10497f9685f5a0e1bef364736f6c634300081e0033\n}\n",
				"bytecode": {
					"linkReferences": {},
					"object": "60a060405234801561000f575f5ffd5b5060405161237738038061237783398181016040528101906100319190610502565b895f73ffffffffffffffffffffffffffffffffffffffff168173ffffffffffffffffffffffffffffffffffffffff16036100a2575f6040517f1e4fbdf700000000000000000000000000000000000000000000000000000000815260040161009991906105ea565b60405180910390fd5b6100b1816103b060201b60201c565b505f73ffffffffffffffffffffffffffffffffffffffff168973ffffffffffffffffffffffffffffffffffffffff1603610120576040517f08c379a00000000000000000000000000000000000000000000000000000000081526004016101179061065d565b60405180910390fd5b5f73ffffffffffffffffffffffffffffffffffffffff168873ffffffffffffffffffffffffffffffffffffffff160361018e576040517f08c379a0000000000000000000000000000000000000000000000000000000008152600401610185906106c5565b60405180910390fd5b5f73ffffffffffffffffffffffffffffffffffffffff168773ffffffffffffffffffffffffffffffffffffffff16036101fc576040517f08c379a00000000000000000000000000000000000000000000000000000000081526004016101f39061072d565b60405180910390fd5b84841161023e576040517f08c379a000000000000000000000000000000000000000000000000000000000815260040161023590610795565b60405180910390fd5b82821015610281576040517f08c379a0000000000000000000000000000000000000000000000000000000008152600401610278906107fd565b60405180910390fd5b5f86116102c3576040517f08c379a00000000000000000000000000000000000000000000000000000000081526004016102ba90610865565b60405180910390fd5b8873ffffffffffffffffffffffffffffffffffffffff1660808173ffffffffffffffffffffffffffffffffffffffff16815250508760015f6101000a81548173ffffffffffffffffffffffffffffffffffffffff021916908373ffffffffffffffffffffffffffffffffffffffff1602179055508660025f6101000a81548173ffffffffffffffffffffffffffffffffffffffff021916908373ffffffffffffffffffffffffffffffffffffffff16021790555085600381905550846004819055508360058190555082600681905550816007819055508060088190555050505050505050505050610883565b5f5f5f9054906101000a900473ffffffffffffffffffffffffffffffffffffffff169050815f5f6101000a81548173ffffffffffffffffffffffffffffffffffffffff021916908373ffffffffffffffffffffffffffffffffffffffff1602179055508173ffffffffffffffffffffffffffffffffffffffff168173ffffffffffffffffffffffffffffffffffffffff167f8be0079c531659141344cd1fd0a4f28419497f9722a3daafe3b4186f6b6457e060405160405180910390a35050565b5f5ffd5b5f73ffffffffffffffffffffffffffffffffffffffff82169050919050565b5f61049e82610475565b9050919050565b6104ae81610494565b81146104b8575f5ffd5b50565b5f815190506104c9816104a5565b92915050565b5f819050919050565b6104e1816104cf565b81146104eb575f5ffd5b50565b5f815190506104fc816104d8565b92915050565b5f5f5f5f5f5f5f5f5f5f6101408b8d03121561052157610520610471565b5b5f61052e8d828e016104bb565b9a5050602061053f8d828e016104bb565b99505060406105508d828e016104bb565b98505060606105618d828e016104bb565b97505060806105728d828e016104ee565b96505060a06105838d828e016104ee565b95505060c06105948d828e016104ee565b94505060e06105a58d828e016104ee565b9350506101006105b78d828e016104ee565b9250506101206105c98d828e016104ee565b9150509295989b9194979a5092959850565b6105e481610494565b82525050565b5f6020820190506105fd5f8301846105db565b92915050565b5f82825260208201905092915050565b7f496e76616c696420746f6b656e000000000000000000000000000000000000005f82015250565b5f610647600d83610603565b915061065282610613565b602082019050919050565b5f6020820190508181035f8301526106748161063b565b9050919050565b7f496e76616c6964207472656173757279000000000000000000000000000000005f82015250565b5f6106af601083610603565b91506106ba8261067b565b602082019050919050565b5f6020820190508181035f8301526106dc816106a3565b9050919050565b7f496e76616c696420636f6d706c69616e636500000000000000000000000000005f82015250565b5f610717601283610603565b9150610722826106e3565b602082019050919050565b5f6020820190508181035f8301526107448161070b565b9050919050565b7f496e76616c69642073616c652077696e646f77000000000000000000000000005f82015250565b5f61077f601383610603565b915061078a8261074b565b602082019050919050565b5f6020820190508181035f8301526107ac81610773565b9050919050565b7f496e76616c696420636f6e747269627574696f6e2072616e67650000000000005f82015250565b5f6107e7601a83610603565b91506107f2826107b3565b602082019050919050565b5f6020820190508181035f830152610814816107db565b9050919050565b7f496e76616c6964207261746500000000000000000000000000000000000000005f82015250565b5f61084f600c83610603565b915061085a8261081b565b602082019050919050565b5f6020820190508181035f83015261087c81610843565b9050919050565b608051611ad56108a25f395f8181610ab30152610e010152611ad55ff3fe60806040526004361061014a575f3560e01c80638d878889116100b5578063c4a56fc81161006e578063c4a56fc814610412578063d0febe4c1461043c578063d7805ece14610446578063e5f6186d14610482578063f2fde38b146104ac578063fe47a9f2146104d45761014a565b80638d8788891461032a5780638da5cb5b1461035457806391294ed11461037e578063ab0bcc41146103a8578063bb33d729146103d2578063c10b9358146103e85761014a565b8063547c191a11610107578063547c191a1461025857806355367ba914610280578063564566a8146102965780635c975abb146102c057806363b20117146102ea578063715018a6146103145761014a565b8063155dd5ee1461014e5780632c4e722e146101765780633af32abf146101a05780633cea70d9146101dc5780634b7495351461020657806353d6fd5914610230575b5f5ffd5b348015610159575f5ffd5b50610174600480360381019061016f9190611340565b6104fc565b005b348015610181575f5ffd5b5061018a610747565b604051610197919061137a565b60405180910390f35b3480156101ab575f5ffd5b506101c660048036038101906101c191906113ed565b61074d565b6040516101d39190611432565b60405180910390f35b3480156101e7575f5ffd5b506101f061076a565b6040516101fd919061145a565b60405180910390f35b348015610211575f5ffd5b5061021a61078f565b604051610227919061137a565b60405180910390f35b34801561023b575f5ffd5b506102566004803603810190610251919061149d565b610795565b005b348015610263575f5ffd5b5061027e600480360381019061027991906113ed565b610907565b005b34801561028b575f5ffd5b50610294610a03565b005b3480156102a1575f5ffd5b506102aa610a58565b6040516102b79190611432565b60405180910390f35b3480156102cb575f5ffd5b506102d4610a83565b6040516102e19190611432565b60405180910390f35b3480156102f5575f5ffd5b506102fe610a98565b60405161030b919061137a565b60405180910390f35b34801561031f575f5ffd5b50610328610a9e565b005b348015610335575f5ffd5b5061033e610ab1565b60405161034b9190611536565b60405180910390f35b34801561035f575f5ffd5b50610368610ad5565b604051610375919061145a565b60405180910390f35b348015610389575f5ffd5b50610392610afc565b60405161039f919061137a565b60405180910390f35b3480156103b3575f5ffd5b506103bc610b02565b6040516103c9919061137a565b60405180910390f35b3480156103dd575f5ffd5b506103e6610b08565b005b3480156103f3575f5ffd5b506103fc610b5d565b604051610409919061137a565b60405180910390f35b34801561041d575f5ffd5b50610426610b63565b604051610433919061145a565b60405180910390f35b610444610b88565b005b348015610451575f5ffd5b5061046c600480360381019061046791906113ed565b610edb565b604051610479919061137a565b60405180910390f35b34801561048d575f5ffd5b50610496610ef0565b6040516104a3919061137a565b60405180910390f35b3480156104b7575f5ffd5b506104d260048036038101906104cd91906113ed565b610ef6565b005b3480156104df575f5ffd5b506104fa60048036038101906104f591906113ed565b610f7a565b005b60015f9054906101000a900473ffffffffffffffffffffffffffffffffffffffff1673ffffffffffffffffffffffffffffffffffffffff163373ffffffffffffffffffffffffffffffffffffffff161480610589575061055a610ad5565b73ffffffffffffffffffffffffffffffffffffffff163373ffffffffffffffffffffffffffffffffffffffff16145b6105c8576040517f08c379a00000000000000000000000000000000000000000000000000000000081526004016105bf906115a9565b60405180910390fd5b8047101561060b576040517f08c379a000000000000000000000000000000000000000000000000000000000815260040161060290611611565b60405180910390fd5b5f60015f9054906101000a900473ffffffffffffffffffffffffffffffffffffffff1673ffffffffffffffffffffffffffffffffffffffff16826040516106519061165c565b5f6040518083038185875af1925050503d805f811461068b576040519150601f19603f3d011682016040523d82523d5f602084013e610690565b606091505b50509050806106d4576040517f08c379a00000000000000000000000000000000000000000000000000000000081526004016106cb906116ba565b60405180910390fd5b60015f9054906101000a900473ffffffffffffffffffffffffffffffffffffffff1673ffffffffffffffffffffffffffffffffffffffff167feaff4b37086828766ad3268786972c0cd24259d4c87a80f9d3963a3c3d999b0d8360405161073b919061137a565b60405180910390a25050565b60035481565b600a602052805f5260405f205f915054906101000a900460ff1681565b60015f9054906101000a900473ffffffffffffffffffffffffffffffffffffffff1681565b60085481565b60025f9054906101000a900473ffffffffffffffffffffffffffffffffffffffff1673ffffffffffffffffffffffffffffffffffffffff163373ffffffffffffffffffffffffffffffffffffffff16148061082257506107f3610ad5565b73ffffffffffffffffffffffffffffffffffffffff163373ffffffffffffffffffffffffffffffffffffffff16145b610861576040517f08c379a0000000000000000000000000000000000000000000000000000000008152600401610858906115a9565b60405180910390fd5b80600a5f8473ffffffffffffffffffffffffffffffffffffffff1673ffffffffffffffffffffffffffffffffffffffff1681526020019081526020015f205f6101000a81548160ff0219169083151502179055508173ffffffffffffffffffffffffffffffffffffffff167ff93f9a76c1bf3444d22400a00cb9fe990e6abe9dbb333fda48859cfee864543d826040516108fb9190611432565b60405180910390a25050565b61090f611076565b5f73ffffffffffffffffffffffffffffffffffffffff168173ffffffffffffffffffffffffffffffffffffffff160361097d576040517f08c379a000000000000000000000000000000000000000000000000000000000815260040161097490611722565b60405180910390fd5b8060025f6101000a81548173ffffffffffffffffffffffffffffffffffffffff021916908373ffffffffffffffffffffffffffffffffffffffff1602179055508073ffffffffffffffffffffffffffffffffffffffff167f18a9ec34afbceac1ea30fd2b9b5d78e31a0840f468234b6714209860ff5d184f60405160405180910390a250565b610a0b611076565b610a136110fd565b3373ffffffffffffffffffffffffffffffffffffffff167fd5e13ff83aeff77a13ff79d42763d4321ee52cd9176d6a6942a44abb945a39a960405160405180910390a2565b5f610a61610a83565b158015610a7057506004544210155b8015610a7e57506005544211155b905090565b5f5f60149054906101000a900460ff16905090565b60095481565b610aa6611076565b610aaf5f61115f565b565b7f000000000000000000000000000000000000000000000000000000000000000081565b5f5f5f9054906101000a900473ffffffffffffffffffffffffffffffffffffffff16905090565b60065481565b60045481565b610b10611076565b610b18611220565b3373ffffffffffffffffffffffffffffffffffffffff167fa3b142bf6879b63da2acae6c3cba67984f0c343ef0b43e6e3f349bfe1f470cf260405160405180910390a2565b60055481565b60025f9054906101000a900473ffffffffffffffffffffffffffffffffffffffff1681565b610b90611281565b6004544210158015610ba457506005544211155b610be3576040517f08c379a0000000000000000000000000000000000000000000000000000000008152600401610bda9061178a565b60405180910390fd5b600a5f3373ffffffffffffffffffffffffffffffffffffffff1673ffffffffffffffffffffffffffffffffffffffff1681526020019081526020015f205f9054906101000a900460ff16610c6c576040517f08c379a0000000000000000000000000000000000000000000000000000000008152600401610c63906117f2565b60405180910390fd5b600654341015610cb1576040517f08c379a0000000000000000000000000000000000000000000000000000000008152600401610ca89061185a565b60405180910390fd5b5f34600b5f3373ffffffffffffffffffffffffffffffffffffffff1673ffffffffffffffffffffffffffffffffffffffff1681526020019081526020015f2054610cfb91906118a5565b9050600754811115610d42576040517f08c379a0000000000000000000000000000000000000000000000000000000008152600401610d3990611922565b60405180910390fd5b5f60035434610d519190611940565b905060085481600954610d6491906118a5565b1115610da5576040517f08c379a0000000000000000000000000000000000000000000000000000000008152600401610d9c906119cb565b60405180910390fd5b81600b5f3373ffffffffffffffffffffffffffffffffffffffff1673ffffffffffffffffffffffffffffffffffffffff1681526020019081526020015f20819055508060095f828254610df891906118a5565b925050819055507f000000000000000000000000000000000000000000000000000000000000000073ffffffffffffffffffffffffffffffffffffffff166340c10f1933836040518363ffffffff1660e01b8152600401610e5a9291906119e9565b5f604051808303815f87803b158015610e71575f5ffd5b505af1158015610e83573d5f5f3e3d5ffd5b505050503373ffffffffffffffffffffffffffffffffffffffff167f8fafebcaf9d154343dad25669bfa277f4fbacd7ac6b0c4fed522580e040a0f333483604051610ecf929190611a10565b60405180910390a25050565b600b602052805f5260405f205f915090505481565b60075481565b610efe611076565b5f73ffffffffffffffffffffffffffffffffffffffff168173ffffffffffffffffffffffffffffffffffffffff1603610f6e575f6040517f1e4fbdf7000000000000000000000000000000000000000000000000000000008152600401610f65919061145a565b60405180910390fd5b610f778161115f565b50565b610f82611076565b5f73ffffffffffffffffffffffffffffffffffffffff168173ffffffffffffffffffffffffffffffffffffffff1603610ff0576040517f08c379a0000000000000000000000000000000000000000000000000000000008152600401610fe790611a81565b60405180910390fd5b8060015f6101000a81548173ffffffffffffffffffffffffffffffffffffffff021916908373ffffffffffffffffffffffffffffffffffffffff1602179055508073ffffffffffffffffffffffffffffffffffffffff167fd16d2cf254200e4dc6dc82512e9d11673e06a798c40b90cef7583729b4f7a8d460405160405180910390a250565b61107e6112c2565b73ffffffffffffffffffffffffffffffffffffffff1661109c610ad5565b73ffffffffffffffffffffffffffffffffffffffff16146110fb576110bf6112c2565b6040517f118cdaa70000000000000000000000000000000000000000000000000000000081526004016110f2919061145a565b60405180910390fd5b565b611105611281565b60015f60146101000a81548160ff0219169083151502179055507f62e78cea01bee320cd4e420270b5ea74000d11b0c9f74754ebdbfc544b05a2586111486112c2565b604051611155919061145a565b60405180910390a1565b5f5f5f9054906101000a900473ffffffffffffffffffffffffffffffffffffffff169050815f5f6101000a81548173ffffffffffffffffffffffffffffffffffffffff021916908373ffffffffffffffffffffffffffffffffffffffff1602179055508173ffffffffffffffffffffffffffffffffffffffff168173ffffffffffffffffffffffffffffffffffffffff167f8be0079c531659141344cd1fd0a4f28419497f9722a3daafe3b4186f6b6457e060405160405180910390a35050565b6112286112c9565b5f5f60146101000a81548160ff0219169083151502179055507f5db9ee0a495bf2e6ff9c91a7834c1ba4fdd244a5e8aa4e537bd38aeae4b073aa61126a6112c2565b604051611277919061145a565b60405180910390a1565b611289610a83565b156112c0576040517fd93c066500000000000000000000000000000000000000000000000000000000815260040160405180910390fd5b565b5f33905090565b6112d1610a83565b611307576040517f8dfc202b00000000000000000000000000000000000000000000000000000000815260040160405180910390fd5b565b5f5ffd5b5f819050919050565b61131f8161130d565b8114611329575f5ffd5b50565b5f8135905061133a81611316565b92915050565b5f6020828403121561135557611354611309565b5b5f6113628482850161132c565b91505092915050565b6113748161130d565b82525050565b5f60208201905061138d5f83018461136b565b92915050565b5f73ffffffffffffffffffffffffffffffffffffffff82169050919050565b5f6113bc82611393565b9050919050565b6113cc816113b2565b81146113d6575f5ffd5b50565b5f813590506113e7816113c3565b92915050565b5f6020828403121561140257611401611309565b5b5f61140f848285016113d9565b91505092915050565b5f8115159050919050565b61142c81611418565b82525050565b5f6020820190506114455f830184611423565b92915050565b611454816113b2565b82525050565b5f60208201905061146d5f83018461144b565b92915050565b61147c81611418565b8114611486575f5ffd5b50565b5f8135905061149781611473565b92915050565b5f5f604083850312156114b3576114b2611309565b5b5f6114c0858286016113d9565b92505060206114d185828601611489565b9150509250929050565b5f819050919050565b5f6114fe6114f96114f484611393565b6114db565b611393565b9050919050565b5f61150f826114e4565b9050919050565b5f61152082611505565b9050919050565b61153081611516565b82525050565b5f6020820190506115495f830184611527565b92915050565b5f82825260208201905092915050565b7f4e6f7420617574686f72697a65640000000000000000000000000000000000005f82015250565b5f611593600e8361154f565b915061159e8261155f565b602082019050919050565b5f6020820190508181035f8301526115c081611587565b9050919050565b7f496e73756666696369656e7420455448000000000000000000000000000000005f82015250565b5f6115fb60108361154f565b9150611606826115c7565b602082019050919050565b5f6020820190508181035f830152611628816115ef565b9050919050565b5f81905092915050565b50565b5f6116475f8361162f565b915061165282611639565b5f82019050919050565b5f6116668261163c565b9150819050919050565b7f5769746864726177206661696c656400000000000000000000000000000000005f82015250565b5f6116a4600f8361154f565b91506116af82611670565b602082019050919050565b5f6020820190508181035f8301526116d181611698565b9050919050565b7f496e76616c696420636f6d706c69616e636500000000000000000000000000005f82015250565b5f61170c60128361154f565b9150611717826116d8565b602082019050919050565b5f6020820190508181035f83015261173981611700565b9050919050565b7f53616c65206e6f742061637469766500000000000000000000000000000000005f82015250565b5f611774600f8361154f565b915061177f82611740565b602082019050919050565b5f6020820190508181035f8301526117a181611768565b9050919050565b7f4e6f742077686974656c697374656400000000000000000000000000000000005f82015250565b5f6117dc600f8361154f565b91506117e7826117a8565b602082019050919050565b5f6020820190508181035f830152611809816117d0565b9050919050565b7f42656c6f77206d696e20636f6e747269627574696f6e000000000000000000005f82015250565b5f61184460168361154f565b915061184f82611810565b602082019050919050565b5f6020820190508181035f83015261187181611838565b9050919050565b7f4e487b71000000000000000000000000000000000000000000000000000000005f52601160045260245ffd5b5f6118af8261130d565b91506118ba8361130d565b92508282019050808211156118d2576118d1611878565b5b92915050565b7f41626f7665206d617820636f6e747269627574696f6e000000000000000000005f82015250565b5f61190c60168361154f565b9150611917826118d8565b602082019050919050565b5f6020820190508181035f83015261193981611900565b9050919050565b5f61194a8261130d565b91506119558361130d565b92508282026119638161130d565b9150828204841483151761197a57611979611878565b5b5092915050565b7f48617264206361702065786365656465640000000000000000000000000000005f82015250565b5f6119b560118361154f565b91506119c082611981565b602082019050919050565b5f6020820190508181035f8301526119e2816119a9565b9050919050565b5f6040820190506119fc5f83018561144b565b611a09602083018461136b565b9392505050565b5f604082019050611a235f83018561136b565b611a30602083018461136b565b9392505050565b7f496e76616c6964207472656173757279000000000000000000000000000000005f82015250565b5f611a6b60108361154f565b9150611a7682611a37565b602082019050919050565b5f6020820190508181035f830152611a9881611a5f565b905091905056fea2646970667358221220fba1a06301866392b841ae402a57005d055bdd3a8a4b10497f9685f5a0e1bef364736f6c634300081e0033",
					"opcodes": "PUSH1 0xA0 PUSH1 0x40 MSTORE CALLVALUE DUP1 ISZERO PUSH2 0xF JUMPI PUSH0 PUSH0 REVERT JUMPDEST POP PUSH1 0x40 MLOAD PUSH2 0x2377 CODESIZE SUB DUP1 PUSH2 0x2377 DUP4 CODECOPY DUP2 DUP2 ADD PUSH1 0x40 MSTORE DUP2 ADD SWAP1 PUSH2 0x31 SWAP2 SWAP1 PUSH2 0x502 JUMP JUMPDEST DUP10 PUSH0 PUSH20 0xFFFFFFFFFFFFFFFFFFFFFFFFFFFFFFFFFFFFFFFF AND DUP2 PUSH20 0xFFFFFFFFFFFFFFFFFFFFFFFFFFFFFFFFFFFFFFFF AND SUB PUSH2 0xA2 JUMPI PUSH0 PUSH1 0x40 MLOAD PUSH32 0x1E4FBDF700000000000000000000000000000000000000000000000000000000 DUP2 MSTORE PUSH1 0x4 ADD PUSH2 0x99 SWAP2 SWAP1 PUSH2 0x5EA JUMP JUMPDEST PUSH1 0x40 MLOAD DUP1 SWAP2 SUB SWAP1 REVERT JUMPDEST PUSH2 0xB1 DUP2 PUSH2 0x3B0 PUSH1 0x20 SHL PUSH1 0x20 SHR JUMP JUMPDEST POP PUSH0 PUSH20 0xFFFFFFFFFFFFFFFFFFFFFFFFFFFFFFFFFFFFFFFF AND DUP10 PUSH20 0xFFFFFFFFFFFFFFFFFFFFFFFFFFFFFFFFFFFFFFFF AND SUB PUSH2 0x120 JUMPI PUSH1 0x40 MLOAD PUSH32 0x8C379A000000000000000000000000000000000000000000000000000000000 DUP2 MSTORE PUSH1 0x4 ADD PUSH2 0x117 SWAP1 PUSH2 0x65D JUMP JUMPDEST PUSH1 0x40 MLOAD DUP1 SWAP2 SUB SWAP1 REVERT JUMPDEST PUSH0 PUSH20 0xFFFFFFFFFFFFFFFFFFFFFFFFFFFFFFFFFFFFFFFF AND DUP9 PUSH20 0xFFFFFFFFFFFFFFFFFFFFFFFFFFFFFFFFFFFFFFFF AND SUB PUSH2 0x18E JUMPI PUSH1 0x40 MLOAD PUSH32 0x8C379A000000000000000000000000000000000000000000000000000000000 DUP2 MSTORE PUSH1 0x4 ADD PUSH2 0x185 SWAP1 PUSH2 0x6C5 JUMP JUMPDEST PUSH1 0x40 MLOAD DUP1 SWAP2 SUB SWAP1 REVERT JUMPDEST PUSH0 PUSH20 0xFFFFFFFFFFFFFFFFFFFFFFFFFFFFFFFFFFFFFFFF AND DUP8 PUSH20 0xFFFFFFFFFFFFFFFFFFFFFFFFFFFFFFFFFFFFFFFF AND SUB PUSH2 0x1FC JUMPI PUSH1 0x40 MLOAD PUSH32 0x8C379A000000000000000000000000000000000000000000000000000000000 DUP2 MSTORE PUSH1 0x4 ADD PUSH2 0x1F3 SWAP1 PUSH2 0x72D JUMP JUMPDEST PUSH1 0x40 MLOAD DUP1 SWAP2 SUB SWAP1 REVERT JUMPDEST DUP5 DUP5 GT PUSH2 0x23E JUMPI PUSH1 0x40 MLOAD PUSH32 0x8C379A000000000000000000000000000000000000000000000000000000000 DUP2 MSTORE PUSH1 0x4 ADD PUSH2 0x235 SWAP1 PUSH2 0x795 JUMP JUMPDEST PUSH1 0x40 MLOAD DUP1 SWAP2 SUB SWAP1 REVERT JUMPDEST DUP3 DUP3 LT ISZERO PUSH2 0x281 JUMPI PUSH1 0x40 MLOAD PUSH32 0x8C379A000000000000000000000000000000000000000000000000000000000 DUP2 MSTORE PUSH1 0x4 ADD PUSH2 0x278 SWAP1 PUSH2 0x7FD JUMP JUMPDEST PUSH1 0x40 MLOAD DUP1 SWAP2 SUB SWAP1 REVERT JUMPDEST PUSH0 DUP7 GT PUSH2 0x2C3 JUMPI PUSH1 0x40 MLOAD PUSH32 0x8C379A000000000000000000000000000000000000000000000000000000000 DUP2 MSTORE PUSH1 0x4 ADD PUSH2 0x2BA SWAP1 PUSH2 0x865 JUMP JUMPDEST PUSH1 0x40 MLOAD DUP1 SWAP2 SUB SWAP1 REVERT JUMPDEST DUP9 PUSH20 0xFFFFFFFFFFFFFFFFFFFFFFFFFFFFFFFFFFFFFFFF AND PUSH1 0x80 DUP2 PUSH20 0xFFFFFFFFFFFFFFFFFFFFFFFFFFFFFFFFFFFFFFFF AND DUP2 MSTORE POP POP DUP8 PUSH1 0x1 PUSH0 PUSH2 0x100 EXP DUP2 SLOAD DUP2 PUSH20 0xFFFFFFFFFFFFFFFFFFFFFFFFFFFFFFFFFFFFFFFF MUL NOT AND SWAP1 DUP4 PUSH20 0xFFFFFFFFFFFFFFFFFFFFFFFFFFFFFFFFFFFFFFFF AND MUL OR SWAP1 SSTORE POP DUP7 PUSH1 0x2 PUSH0 PUSH2 0x100 EXP DUP2 SLOAD DUP2 PUSH20 0xFFFFFFFFFFFFFFFFFFFFFFFFFFFFFFFFFFFFFFFF MUL NOT AND SWAP1 DUP4 PUSH20 0xFFFFFFFFFFFFFFFFFFFFFFFFFFFFFFFFFFFFFFFF AND MUL OR SWAP1 SSTORE POP DUP6 PUSH1 0x3 DUP2 SWAP1 SSTORE POP DUP5 PUSH1 0x4 DUP2 SWAP1 SSTORE POP DUP4 PUSH1 0x5 DUP2 SWAP1 SSTORE POP DUP3 PUSH1 0x6 DUP2 SWAP1 SSTORE POP DUP2 PUSH1 0x7 DUP2 SWAP1 SSTORE POP DUP1 PUSH1 0x8 DUP2 SWAP1 SSTORE POP POP POP POP POP POP POP POP POP POP POP PUSH2 0x883 JUMP JUMPDEST PUSH0 PUSH0 PUSH0 SWAP1 SLOAD SWAP1 PUSH2 0x100 EXP SWAP1 DIV PUSH20 0xFFFFFFFFFFFFFFFFFFFFFFFFFFFFFFFFFFFFFFFF AND SWAP1 POP DUP2 PUSH0 PUSH0 PUSH2 0x100 EXP DUP2 SLOAD DUP2 PUSH20 0xFFFFFFFFFFFFFFFFFFFFFFFFFFFFFFFFFFFFFFFF MUL NOT AND SWAP1 DUP4 PUSH20 0xFFFFFFFFFFFFFFFFFFFFFFFFFFFFFFFFFFFFFFFF AND MUL OR SWAP1 SSTORE POP DUP2 PUSH20 0xFFFFFFFFFFFFFFFFFFFFFFFFFFFFFFFFFFFFFFFF AND DUP2 PUSH20 0xFFFFFFFFFFFFFFFFFFFFFFFFFFFFFFFFFFFFFFFF AND PUSH32 0x8BE0079C531659141344CD1FD0A4F28419497F9722A3DAAFE3B4186F6B6457E0 PUSH1 0x40 MLOAD PUSH1 0x40 MLOAD DUP1 SWAP2 SUB SWAP1 LOG3 POP POP JUMP JUMPDEST PUSH0 PUSH0 REVERT JUMPDEST PUSH0 PUSH20 0xFFFFFFFFFFFFFFFFFFFFFFFFFFFFFFFFFFFFFFFF DUP3 AND SWAP1 POP SWAP2 SWAP1 POP JUMP JUMPDEST PUSH0 PUSH2 0x49E DUP3 PUSH2 0x475 JUMP JUMPDEST SWAP1 POP SWAP2 SWAP1 POP JUMP JUMPDEST PUSH2 0x4AE DUP2 PUSH2 0x494 JUMP JUMPDEST DUP2 EQ PUSH2 0x4B8 JUMPI PUSH0 PUSH0 REVERT JUMPDEST POP JUMP JUMPDEST PUSH0 DUP2 MLOAD SWAP1 POP PUSH2 0x4C9 DUP2 PUSH2 0x4A5 JUMP JUMPDEST SWAP3 SWAP2 POP POP JUMP JUMPDEST PUSH0 DUP2 SWAP1 POP SWAP2 SWAP1 POP JUMP JUMPDEST PUSH2 0x4E1 DUP2 PUSH2 0x4CF JUMP JUMPDEST DUP2 EQ PUSH2 0x4EB JUMPI PUSH0 PUSH0 REVERT JUMPDEST POP JUMP JUMPDEST PUSH0 DUP2 MLOAD SWAP1 POP PUSH2 0x4FC DUP2 PUSH2 0x4D8 JUMP JUMPDEST SWAP3 SWAP2 POP POP JUMP JUMPDEST PUSH0 PUSH0 PUSH0 PUSH0 PUSH0 PUSH0 PUSH0 PUSH0 PUSH0 PUSH0 PUSH2 0x140 DUP12 DUP14 SUB SLT ISZERO PUSH2 0x521 JUMPI PUSH2 0x520 PUSH2 0x471 JUMP JUMPDEST JUMPDEST PUSH0 PUSH2 0x52E DUP14 DUP3 DUP15 ADD PUSH2 0x4BB JUMP JUMPDEST SWAP11 POP POP PUSH1 0x20 PUSH2 0x53F DUP14 DUP3 DUP15 ADD PUSH2 0x4BB JUMP JUMPDEST SWAP10 POP POP PUSH1 0x40 PUSH2 0x550 DUP14 DUP3 DUP15 ADD PUSH2 0x4BB JUMP JUMPDEST SWAP9 POP POP PUSH1 0x60 PUSH2 0x561 DUP14 DUP3 DUP15 ADD PUSH2 0x4BB JUMP JUMPDEST SWAP8 POP POP PUSH1 0x80 PUSH2 0x572 DUP14 DUP3 DUP15 ADD PUSH2 0x4EE JUMP JUMPDEST SWAP7 POP POP PUSH1 0xA0 PUSH2 0x583 DUP14 DUP3 DUP15 ADD PUSH2 0x4EE JUMP JUMPDEST SWAP6 POP POP PUSH1 0xC0 PUSH2 0x594 DUP14 DUP3 DUP15 ADD PUSH2 0x4EE JUMP JUMPDEST SWAP5 POP POP PUSH1 0xE0 PUSH2 0x5A5 DUP14 DUP3 DUP15 ADD PUSH2 0x4EE JUMP JUMPDEST SWAP4 POP POP PUSH2 0x100 PUSH2 0x5B7 DUP14 DUP3 DUP15 ADD PUSH2 0x4EE JUMP JUMPDEST SWAP3 POP POP PUSH2 0x120 PUSH2 0x5C9 DUP14 DUP3 DUP15 ADD PUSH2 0x4EE JUMP JUMPDEST SWAP2 POP POP SWAP3 SWAP6 SWAP9 SWAP12 SWAP2 SWAP5 SWAP8 SWAP11 POP SWAP3 SWAP6 SWAP9 POP JUMP JUMPDEST PUSH2 0x5E4 DUP2 PUSH2 0x494 JUMP JUMPDEST DUP3 MSTORE POP POP JUMP JUMPDEST PUSH0 PUSH1 0x20 DUP3 ADD SWAP1 POP PUSH2 0x5FD PUSH0 DUP4 ADD DUP5 PUSH2 0x5DB JUMP JUMPDEST SWAP3 SWAP2 POP POP JUMP JUMPDEST PUSH0 DUP3 DUP3 MSTORE PUSH1 0x20 DUP3 ADD SWAP1 POP SWAP3 SWAP2 POP POP JUMP JUMPDEST PUSH32 0x496E76616C696420746F6B656E00000000000000000000000000000000000000 PUSH0 DUP3 ADD MSTORE POP JUMP JUMPDEST PUSH0 PUSH2 0x647 PUSH1 0xD DUP4 PUSH2 0x603 JUMP JUMPDEST SWAP2 POP PUSH2 0x652 DUP3 PUSH2 0x613 JUMP JUMPDEST PUSH1 0x20 DUP3 ADD SWAP1 POP SWAP2 SWAP1 POP JUMP JUMPDEST PUSH0 PUSH1 0x20 DUP3 ADD SWAP1 POP DUP2 DUP2 SUB PUSH0 DUP4 ADD MSTORE PUSH2 0x674 DUP2 PUSH2 0x63B JUMP JUMPDEST SWAP1 POP SWAP2 SWAP1 POP JUMP JUMPDEST PUSH32 0x496E76616C696420747265617375727900000000000000000000000000000000 PUSH0 DUP3 ADD MSTORE POP JUMP JUMPDEST PUSH0 PUSH2 0x6AF PUSH1 0x10 DUP4 PUSH2 0x603 JUMP JUMPDEST SWAP2 POP PUSH2 0x6BA DUP3 PUSH2 0x67B JUMP JUMPDEST PUSH1 0x20 DUP3 ADD SWAP1 POP SWAP2 SWAP1 POP JUMP JUMPDEST PUSH0 PUSH1 0x20 DUP3 ADD SWAP1 POP DUP2 DUP2 SUB PUSH0 DUP4 ADD MSTORE PUSH2 0x6DC DUP2 PUSH2 0x6A3 JUMP JUMPDEST SWAP1 POP SWAP2 SWAP1 POP JUMP JUMPDEST PUSH32 0x496E76616C696420636F6D706C69616E63650000000000000000000000000000 PUSH0 DUP3 ADD MSTORE POP JUMP JUMPDEST PUSH0 PUSH2 0x717 PUSH1 0x12 DUP4 PUSH2 0x603 JUMP JUMPDEST SWAP2 POP PUSH2 0x722 DUP3 PUSH2 0x6E3 JUMP JUMPDEST PUSH1 0x20 DUP3 ADD SWAP1 POP SWAP2 SWAP1 POP JUMP JUMPDEST PUSH0 PUSH1 0x20 DUP3 ADD SWAP1 POP DUP2 DUP2 SUB PUSH0 DUP4 ADD MSTORE PUSH2 0x744 DUP2 PUSH2 0x70B JUMP JUMPDEST SWAP1 POP SWAP2 SWAP1 POP JUMP JUMPDEST PUSH32 0x496E76616C69642073616C652077696E646F7700000000000000000000000000 PUSH0 DUP3 ADD MSTORE POP JUMP JUMPDEST PUSH0 PUSH2 0x77F PUSH1 0x13 DUP4 PUSH2 0x603 JUMP JUMPDEST SWAP2 POP PUSH2 0x78A DUP3 PUSH2 0x74B JUMP JUMPDEST PUSH1 0x20 DUP3 ADD SWAP1 POP SWAP2 SWAP1 POP JUMP JUMPDEST PUSH0 PUSH1 0x20 DUP3 ADD SWAP1 POP DUP2 DUP2 SUB PUSH0 DUP4 ADD MSTORE PUSH2 0x7AC DUP2 PUSH2 0x773 JUMP JUMPDEST SWAP1 POP SWAP2 SWAP1 POP JUMP JUMPDEST PUSH32 0x496E76616C696420636F6E747269627574696F6E2072616E6765000000000000 PUSH0 DUP3 ADD MSTORE POP JUMP JUMPDEST PUSH0 PUSH2 0x7E7 PUSH1 0x1A DUP4 PUSH2 0x603 JUMP JUMPDEST SWAP2 POP PUSH2 0x7F2 DUP3 PUSH2 0x7B3 JUMP JUMPDEST PUSH1 0x20 DUP3 ADD SWAP1 POP SWAP2 SWAP1 POP JUMP JUMPDEST PUSH0 PUSH1 0x20 DUP3 ADD SWAP1 POP DUP2 DUP2 SUB PUSH0 DUP4 ADD MSTORE PUSH2 0x814 DUP2 PUSH2 0x7DB JUMP JUMPDEST SWAP1 POP SWAP2 SWAP1 POP JUMP JUMPDEST PUSH32 0x496E76616C696420726174650000000000000000000000000000000000000000 PUSH0 DUP3 ADD MSTORE POP JUMP JUMPDEST PUSH0 PUSH2 0x84F PUSH1 0xC DUP4 PUSH2 0x603 JUMP JUMPDEST SWAP2 POP PUSH2 0x85A DUP3 PUSH2 0x81B JUMP JUMPDEST PUSH1 0x20 DUP3 ADD SWAP1 POP SWAP2 SWAP1 POP JUMP JUMPDEST PUSH0 PUSH1 0x20 DUP3 ADD SWAP1 POP DUP2 DUP2 SUB PUSH0 DUP4 ADD MSTORE PUSH2 0x87C DUP2 PUSH2 0x843 JUMP JUMPDEST SWAP1 POP SWAP2 SWAP1 POP JUMP JUMPDEST PUSH1 0x80 MLOAD PUSH2 0x1AD5 PUSH2 0x8A2 PUSH0 CODECOPY PUSH0 DUP2 DUP2 PUSH2 0xAB3 ADD MSTORE PUSH2 0xE01 ADD MSTORE PUSH2 0x1AD5 PUSH0 RETURN INVALID PUSH1 0x80 PUSH1 0x40 MSTORE PUSH1 0x4 CALLDATASIZE LT PUSH2 0x14A JUMPI PUSH0 CALLDATALOAD PUSH1 0xE0 SHR DUP1 PUSH4 0x8D878889 GT PUSH2 0xB5 JUMPI DUP1 PUSH4 0xC4A56FC8 GT PUSH2 0x6E JUMPI DUP1 PUSH4 0xC4A56FC8 EQ PUSH2 0x412 JUMPI DUP1 PUSH4 0xD0FEBE4C EQ PUSH2 0x43C JUMPI DUP1 PUSH4 0xD7805ECE EQ PUSH2 0x446 JUMPI DUP1 PUSH4 0xE5F6186D EQ PUSH2 0x482 JUMPI DUP1 PUSH4 0xF2FDE38B EQ PUSH2 0x4AC JUMPI DUP1 PUSH4 0xFE47A9F2 EQ PUSH2 0x4D4 JUMPI PUSH2 0x14A JUMP JUMPDEST DUP1 PUSH4 0x8D878889 EQ PUSH2 0x32A JUMPI DUP1 PUSH4 0x8DA5CB5B EQ PUSH2 0x354 JUMPI DUP1 PUSH4 0x91294ED1 EQ PUSH2 0x37E JUMPI DUP1 PUSH4 0xAB0BCC41 EQ PUSH2 0x3A8 JUMPI DUP1 PUSH4 0xBB33D729 EQ PUSH2 0x3D2 JUMPI DUP1 PUSH4 0xC10B9358 EQ PUSH2 0x3E8 JUMPI PUSH2 0x14A JUMP JUMPDEST DUP1 PUSH4 0x547C191A GT PUSH2 0x107 JUMPI DUP1 PUSH4 0x547C191A EQ PUSH2 0x258 JUMPI DUP1 PUSH4 0x55367BA9 EQ PUSH2 0x280 JUMPI DUP1 PUSH4 0x564566A8 EQ PUSH2 0x296 JUMPI DUP1 PUSH4 0x5C975ABB EQ PUSH2 0x2C0 JUMPI DUP1 PUSH4 0x63B20117 EQ PUSH2 0x2EA JUMPI DUP1 PUSH4 0x715018A6 EQ PUSH2 0x314 JUMPI PUSH2 0x14A JUMP JUMPDEST DUP1 PUSH4 0x155DD5EE EQ PUSH2 0x14E JUMPI DUP1 PUSH4 0x2C4E722E EQ PUSH2 0x176 JUMPI DUP1 PUSH4 0x3AF32ABF EQ PUSH2 0x1A0 JUMPI DUP1 PUSH4 0x3CEA70D9 EQ PUSH2 0x1DC JUMPI DUP1 PUSH4 0x4B749535 EQ PUSH2 0x206 JUMPI DUP1 PUSH4 0x53D6FD59 EQ PUSH2 0x230 JUMPI JUMPDEST PUSH0 PUSH0 REVERT JUMPDEST CALLVALUE DUP1 ISZERO PUSH2 0x159 JUMPI PUSH0 PUSH0 REVERT JUMPDEST POP PUSH2 0x174 PUSH1 0x4 DUP1 CALLDATASIZE SUB DUP2 ADD SWAP1 PUSH2 0x16F SWAP2 SWAP1 PUSH2 0x1340 JUMP JUMPDEST PUSH2 0x4FC JUMP JUMPDEST STOP JUMPDEST CALLVALUE DUP1 ISZERO PUSH2 0x181 JUMPI PUSH0 PUSH0 REVERT JUMPDEST POP PUSH2 0x18A PUSH2 0x747 JUMP JUMPDEST PUSH1 0x40 MLOAD PUSH2 0x197 SWAP2 SWAP1 PUSH2 0x137A JUMP JUMPDEST PUSH1 0x40 MLOAD DUP1 SWAP2 SUB SWAP1 RETURN JUMPDEST CALLVALUE DUP1 ISZERO PUSH2 0x1AB JUMPI PUSH0 PUSH0 REVERT JUMPDEST POP PUSH2 0x1C6 PUSH1 0x4 DUP1 CALLDATASIZE SUB DUP2 ADD SWAP1 PUSH2 0x1C1 SWAP2 SWAP1 PUSH2 0x13ED JUMP JUMPDEST PUSH2 0x74D JUMP JUMPDEST PUSH1 0x40 MLOAD PUSH2 0x1D3 SWAP2 SWAP1 PUSH2 0x1432 JUMP JUMPDEST PUSH1 0x40 MLOAD DUP1 SWAP2 SUB SWAP1 RETURN JUMPDEST CALLVALUE DUP1 ISZERO PUSH2 0x1E7 JUMPI PUSH0 PUSH0 REVERT JUMPDEST POP PUSH2 0x1F0 PUSH2 0x76A JUMP JUMPDEST PUSH1 0x40 MLOAD PUSH2 0x1FD SWAP2 SWAP1 PUSH2 0x145A JUMP JUMPDEST PUSH1 0x40 MLOAD DUP1 SWAP2 SUB SWAP1 RETURN JUMPDEST CALLVALUE DUP1 ISZERO PUSH2 0x211 JUMPI PUSH0 PUSH0 REVERT JUMPDEST POP PUSH2 0x21A PUSH2 0x78F JUMP JUMPDEST PUSH1 0x40 MLOAD PUSH2 0x227 SWAP2 SWAP1 PUSH2 0x137A JUMP JUMPDEST PUSH1 0x40 MLOAD DUP1 SWAP2 SUB SWAP1 RETURN JUMPDEST CALLVALUE DUP1 ISZERO PUSH2 0x23B JUMPI PUSH0 PUSH0 REVERT JUMPDEST POP PUSH2 0x256 PUSH1 0x4 DUP1 CALLDATASIZE SUB DUP2 ADD SWAP1 PUSH2 0x251 SWAP2 SWAP1 PUSH2 0x149D JUMP JUMPDEST PUSH2 0x795 JUMP JUMPDEST STOP JUMPDEST CALLVALUE DUP1 ISZERO PUSH2 0x263 JUMPI PUSH0 PUSH0 REVERT JUMPDEST POP PUSH2 0x27E PUSH1 0x4 DUP1 CALLDATASIZE SUB DUP2 ADD SWAP1 PUSH2 0x279 SWAP2 SWAP1 PUSH2 0x13ED JUMP JUMPDEST PUSH2 0x907 JUMP JUMPDEST STOP JUMPDEST CALLVALUE DUP1 ISZERO PUSH2 0x28B JUMPI PUSH0 PUSH0 REVERT JUMPDEST POP PUSH2 0x294 PUSH2 0xA03 JUMP JUMPDEST STOP JUMPDEST CALLVALUE DUP1 ISZERO PUSH2 0x2A1 JUMPI PUSH0 PUSH0 REVERT JUMPDEST POP PUSH2 0x2AA PUSH2 0xA58 JUMP JUMPDEST PUSH1 0x40 MLOAD PUSH2 0x2B7 SWAP2 SWAP1 PUSH2 0x1432 JUMP JUMPDEST PUSH1 0x40 MLOAD DUP1 SWAP2 SUB SWAP1 RETURN JUMPDEST CALLVALUE DUP1 ISZERO PUSH2 0x2CB JUMPI PUSH0 PUSH0 REVERT JUMPDEST POP PUSH2 0x2D4 PUSH2 0xA83 JUMP JUMPDEST PUSH1 0x40 MLOAD PUSH2 0x2E1 SWAP2 SWAP1 PUSH2 0x1432 JUMP JUMPDEST PUSH1 0x40 MLOAD DUP1 SWAP2 SUB SWAP1 RETURN JUMPDEST CALLVALUE DUP1 ISZERO PUSH2 0x2F5 JUMPI PUSH0 PUSH0 REVERT JUMPDEST POP PUSH2 0x2FE PUSH2 0xA98 JUMP JUMPDEST PUSH1 0x40 MLOAD PUSH2 0x30B SWAP2 SWAP1 PUSH2 0x137A JUMP JUMPDEST PUSH1 0x40 MLOAD DUP1 SWAP2 SUB SWAP1 RETURN JUMPDEST CALLVALUE DUP1 ISZERO PUSH2 0x31F JUMPI PUSH0 PUSH0 REVERT JUMPDEST POP PUSH2 0x328 PUSH2 0xA9E JUMP JUMPDEST STOP JUMPDEST CALLVALUE DUP1 ISZERO PUSH2 0x335 JUMPI PUSH0 PUSH0 REVERT JUMPDEST POP PUSH2 0x33E PUSH2 0xAB1 JUMP JUMPDEST PUSH1 0x40 MLOAD PUSH2 0x34B SWAP2 SWAP1 PUSH2 0x1536 JUMP JUMPDEST PUSH1 0x40 MLOAD DUP1 SWAP2 SUB SWAP1 RETURN JUMPDEST CALLVALUE DUP1 ISZERO PUSH2 0x35F JUMPI PUSH0 PUSH0 REVERT JUMPDEST POP PUSH2 0x368 PUSH2 0xAD5 JUMP JUMPDEST PUSH1 0x40 MLOAD PUSH2 0x375 SWAP2 SWAP1 PUSH2 0x145A JUMP JUMPDEST PUSH1 0x40 MLOAD DUP1 SWAP2 SUB SWAP1 RETURN JUMPDEST CALLVALUE DUP1 ISZERO PUSH2 0x389 JUMPI PUSH0 PUSH0 REVERT JUMPDEST POP PUSH2 0x392 PUSH2 0xAFC JUMP JUMPDEST PUSH1 0x40 MLOAD PUSH2 0x39F SWAP2 SWAP1 PUSH2 0x137A JUMP JUMPDEST PUSH1 0x40 MLOAD DUP1 SWAP2 SUB SWAP1 RETURN JUMPDEST CALLVALUE DUP1 ISZERO PUSH2 0x3B3 JUMPI PUSH0 PUSH0 REVERT JUMPDEST POP PUSH2 0x3BC PUSH2 0xB02 JUMP JUMPDEST PUSH1 0x40 MLOAD PUSH2 0x3C9 SWAP2 SWAP1 PUSH2 0x137A JUMP JUMPDEST PUSH1 0x40 MLOAD DUP1 SWAP2 SUB SWAP1 RETURN JUMPDEST CALLVALUE DUP1 ISZERO PUSH2 0x3DD JUMPI PUSH0 PUSH0 REVERT JUMPDEST POP PUSH2 0x3E6 PUSH2 0xB08 JUMP JUMPDEST STOP JUMPDEST CALLVALUE DUP1 ISZERO PUSH2 0x3F3 JUMPI PUSH0 PUSH0 REVERT JUMPDEST POP PUSH2 0x3FC PUSH2 0xB5D JUMP JUMPDEST PUSH1 0x40 MLOAD PUSH2 0x409 SWAP2 SWAP1 PUSH2 0x137A JUMP JUMPDEST PUSH1 0x40 MLOAD DUP1 SWAP2 SUB SWAP1 RETURN JUMPDEST CALLVALUE DUP1 ISZERO PUSH2 0x41D JUMPI PUSH0 PUSH0 REVERT JUMPDEST POP PUSH2 0x426 PUSH2 0xB63 JUMP JUMPDEST PUSH1 0x40 MLOAD PUSH2 0x433 SWAP2 SWAP1 PUSH2 0x145A JUMP JUMPDEST PUSH1 0x40 MLOAD DUP1 SWAP2 SUB SWAP1 RETURN JUMPDEST PUSH2 0x444 PUSH2 0xB88 JUMP JUMPDEST STOP JUMPDEST CALLVALUE DUP1 ISZERO PUSH2 0x451 JUMPI PUSH0 PUSH0 REVERT JUMPDEST POP PUSH2 0x46C PUSH1 0x4 DUP1 CALLDATASIZE SUB DUP2 ADD SWAP1 PUSH2 0x467 SWAP2 SWAP1 PUSH2 0x13ED JUMP JUMPDEST PUSH2 0xEDB JUMP JUMPDEST PUSH1 0x40 MLOAD PUSH2 0x479 SWAP2 SWAP1 PUSH2 0x137A JUMP JUMPDEST PUSH1 0x40 MLOAD DUP1 SWAP2 SUB SWAP1 RETURN JUMPDEST CALLVALUE DUP1 ISZERO PUSH2 0x48D JUMPI PUSH0 PUSH0 REVERT JUMPDEST POP PUSH2 0x496 PUSH2 0xEF0 JUMP JUMPDEST PUSH1 0x40 MLOAD PUSH2 0x4A3 SWAP2 SWAP1 PUSH2 0x137A JUMP JUMPDEST PUSH1 0x40 MLOAD DUP1 SWAP2 SUB SWAP1 RETURN JUMPDEST CALLVALUE DUP1 ISZERO PUSH2 0x4B7 JUMPI PUSH0 PUSH0 REVERT JUMPDEST POP PUSH2 0x4D2 PUSH1 0x4 DUP1 CALLDATASIZE SUB DUP2 ADD SWAP1 PUSH2 0x4CD SWAP2 SWAP1 PUSH2 0x13ED JUMP JUMPDEST PUSH2 0xEF6 JUMP JUMPDEST STOP JUMPDEST CALLVALUE DUP1 ISZERO PUSH2 0x4DF JUMPI PUSH0 PUSH0 REVERT JUMPDEST POP PUSH2 0x4FA PUSH1 0x4 DUP1 CALLDATASIZE SUB DUP2 ADD SWAP1 PUSH2 0x4F5 SWAP2 SWAP1 PUSH2 0x13ED JUMP JUMPDEST PUSH2 0xF7A JUMP JUMPDEST STOP JUMPDEST PUSH1 0x1 PUSH0 SWAP1 SLOAD SWAP1 PUSH2 0x100 EXP SWAP1 DIV PUSH20 0xFFFFFFFFFFFFFFFFFFFFFFFFFFFFFFFFFFFFFFFF AND PUSH20 0xFFFFFFFFFFFFFFFFFFFFFFFFFFFFFFFFFFFFFFFF AND CALLER PUSH20 0xFFFFFFFFFFFFFFFFFFFFFFFFFFFFFFFFFFFFFFFF AND EQ DUP1 PUSH2 0x589 JUMPI POP PUSH2 0x55A PUSH2 0xAD5 JUMP JUMPDEST PUSH20 0xFFFFFFFFFFFFFFFFFFFFFFFFFFFFFFFFFFFFFFFF AND CALLER PUSH20 0xFFFFFFFFFFFFFFFFFFFFFFFFFFFFFFFFFFFFFFFF AND EQ JUMPDEST PUSH2 0x5C8 JUMPI PUSH1 0x40 MLOAD PUSH32 0x8C379A000000000000000000000000000000000000000000000000000000000 DUP2 MSTORE PUSH1 0x4 ADD PUSH2 0x5BF SWAP1 PUSH2 0x15A9 JUMP JUMPDEST PUSH1 0x40 MLOAD DUP1 SWAP2 SUB SWAP1 REVERT JUMPDEST DUP1 SELFBALANCE LT ISZERO PUSH2 0x60B JUMPI PUSH1 0x40 MLOAD PUSH32 0x8C379A000000000000000000000000000000000000000000000000000000000 DUP2 MSTORE PUSH1 0x4 ADD PUSH2 0x602 SWAP1 PUSH2 0x1611 JUMP JUMPDEST PUSH1 0x40 MLOAD DUP1 SWAP2 SUB SWAP1 REVERT JUMPDEST PUSH0 PUSH1 0x1 PUSH0 SWAP1 SLOAD SWAP1 PUSH2 0x100 EXP SWAP1 DIV PUSH20 0xFFFFFFFFFFFFFFFFFFFFFFFFFFFFFFFFFFFFFFFF AND PUSH20 0xFFFFFFFFFFFFFFFFFFFFFFFFFFFFFFFFFFFFFFFF AND DUP3 PUSH1 0x40 MLOAD PUSH2 0x651 SWAP1 PUSH2 0x165C JUMP JUMPDEST PUSH0 PUSH1 0x40 MLOAD DUP1 DUP4 SUB DUP2 DUP6 DUP8 GAS CALL SWAP3 POP POP POP RETURNDATASIZE DUP1 PUSH0 DUP2 EQ PUSH2 0x68B JUMPI PUSH1 0x40 MLOAD SWAP2 POP PUSH1 0x1F NOT PUSH1 0x3F RETURNDATASIZE ADD AND DUP3 ADD PUSH1 0x40 MSTORE RETURNDATASIZE DUP3 MSTORE RETURNDATASIZE PUSH0 PUSH1 0x20 DUP5 ADD RETURNDATACOPY PUSH2 0x690 JUMP JUMPDEST PUSH1 0x60 SWAP2 POP JUMPDEST POP POP SWAP1 POP DUP1 PUSH2 0x6D4 JUMPI PUSH1 0x40 MLOAD PUSH32 0x8C379A000000000000000000000000000000000000000000000000000000000 DUP2 MSTORE PUSH1 0x4 ADD PUSH2 0x6CB SWAP1 PUSH2 0x16BA JUMP JUMPDEST PUSH1 0x40 MLOAD DUP1 SWAP2 SUB SWAP1 REVERT JUMPDEST PUSH1 0x1 PUSH0 SWAP1 SLOAD SWAP1 PUSH2 0x100 EXP SWAP1 DIV PUSH20 0xFFFFFFFFFFFFFFFFFFFFFFFFFFFFFFFFFFFFFFFF AND PUSH20 0xFFFFFFFFFFFFFFFFFFFFFFFFFFFFFFFFFFFFFFFF AND PUSH32 0xEAFF4B37086828766AD3268786972C0CD24259D4C87A80F9D3963A3C3D999B0D DUP4 PUSH1 0x40 MLOAD PUSH2 0x73B SWAP2 SWAP1 PUSH2 0x137A JUMP JUMPDEST PUSH1 0x40 MLOAD DUP1 SWAP2 SUB SWAP1 LOG2 POP POP JUMP JUMPDEST PUSH1 0x3 SLOAD DUP2 JUMP JUMPDEST PUSH1 0xA PUSH1 0x20 MSTORE DUP1 PUSH0 MSTORE PUSH1 0x40 PUSH0 KECCAK256 PUSH0 SWAP2 POP SLOAD SWAP1 PUSH2 0x100 EXP SWAP1 DIV PUSH1 0xFF AND DUP2 JUMP JUMPDEST PUSH1 0x1 PUSH0 SWAP1 SLOAD SWAP1 PUSH2 0x100 EXP SWAP1 DIV PUSH20 0xFFFFFFFFFFFFFFFFFFFFFFFFFFFFFFFFFFFFFFFF AND DUP2 JUMP JUMPDEST PUSH1 0x8 SLOAD DUP2 JUMP JUMPDEST PUSH1 0x2 PUSH0 SWAP1 SLOAD SWAP1 PUSH2 0x100 EXP SWAP1 DIV PUSH20 0xFFFFFFFFFFFFFFFFFFFFFFFFFFFFFFFFFFFFFFFF AND PUSH20 0xFFFFFFFFFFFFFFFFFFFFFFFFFFFFFFFFFFFFFFFF AND CALLER PUSH20 0xFFFFFFFFFFFFFFFFFFFFFFFFFFFFFFFFFFFFFFFF AND EQ DUP1 PUSH2 0x822 JUMPI POP PUSH2 0x7F3 PUSH2 0xAD5 JUMP JUMPDEST PUSH20 0xFFFFFFFFFFFFFFFFFFFFFFFFFFFFFFFFFFFFFFFF AND CALLER PUSH20 0xFFFFFFFFFFFFFFFFFFFFFFFFFFFFFFFFFFFFFFFF AND EQ JUMPDEST PUSH2 0x861 JUMPI PUSH1 0x40 MLOAD PUSH32 0x8C379A000000000000000000000000000000000000000000000000000000000 DUP2 MSTORE PUSH1 0x4 ADD PUSH2 0x858 SWAP1 PUSH2 0x15A9 JUMP JUMPDEST PUSH1 0x40 MLOAD DUP1 SWAP2 SUB SWAP1 REVERT JUMPDEST DUP1 PUSH1 0xA PUSH0 DUP5 PUSH20 0xFFFFFFFFFFFFFFFFFFFFFFFFFFFFFFFFFFFFFFFF AND PUSH20 0xFFFFFFFFFFFFFFFFFFFFFFFFFFFFFFFFFFFFFFFF AND DUP2 MSTORE PUSH1 0x20 ADD SWAP1 DUP2 MSTORE PUSH1 0x20 ADD PUSH0 KECCAK256 PUSH0 PUSH2 0x100 EXP DUP2 SLOAD DUP2 PUSH1 0xFF MUL NOT AND SWAP1 DUP4 ISZERO ISZERO MUL OR SWAP1 SSTORE POP DUP2 PUSH20 0xFFFFFFFFFFFFFFFFFFFFFFFFFFFFFFFFFFFFFFFF AND PUSH32 0xF93F9A76C1BF3444D22400A00CB9FE990E6ABE9DBB333FDA48859CFEE864543D DUP3 PUSH1 0x40 MLOAD PUSH2 0x8FB SWAP2 SWAP1 PUSH2 0x1432 JUMP JUMPDEST PUSH1 0x40 MLOAD DUP1 SWAP2 SUB SWAP1 LOG2 POP POP JUMP JUMPDEST PUSH2 0x90F PUSH2 0x1076 JUMP JUMPDEST PUSH0 PUSH20 0xFFFFFFFFFFFFFFFFFFFFFFFFFFFFFFFFFFFFFFFF AND DUP2 PUSH20 0xFFFFFFFFFFFFFFFFFFFFFFFFFFFFFFFFFFFFFFFF AND SUB PUSH2 0x97D JUMPI PUSH1 0x40 MLOAD PUSH32 0x8C379A000000000000000000000000000000000000000000000000000000000 DUP2 MSTORE PUSH1 0x4 ADD PUSH2 0x974 SWAP1 PUSH2 0x1722 JUMP JUMPDEST PUSH1 0x40 MLOAD DUP1 SWAP2 SUB SWAP1 REVERT JUMPDEST DUP1 PUSH1 0x2 PUSH0 PUSH2 0x100 EXP DUP2 SLOAD DUP2 PUSH20 0xFFFFFFFFFFFFFFFFFFFFFFFFFFFFFFFFFFFFFFFF MUL NOT AND SWAP1 DUP4 PUSH20 0xFFFFFFFFFFFFFFFFFFFFFFFFFFFFFFFFFFFFFFFF AND MUL OR SWAP1 SSTORE POP DUP1 PUSH20 0xFFFFFFFFFFFFFFFFFFFFFFFFFFFFFFFFFFFFFFFF AND PUSH32 0x18A9EC34AFBCEAC1EA30FD2B9B5D78E31A0840F468234B6714209860FF5D184F PUSH1 0x40 MLOAD PUSH1 0x40 MLOAD DUP1 SWAP2 SUB SWAP1 LOG2 POP JUMP JUMPDEST PUSH2 0xA0B PUSH2 0x1076 JUMP JUMPDEST PUSH2 0xA13 PUSH2 0x10FD JUMP JUMPDEST CALLER PUSH20 0xFFFFFFFFFFFFFFFFFFFFFFFFFFFFFFFFFFFFFFFF AND PUSH32 0xD5E13FF83AEFF77A13FF79D42763D4321EE52CD9176D6A6942A44ABB945A39A9 PUSH1 0x40 MLOAD PUSH1 0x40 MLOAD DUP1 SWAP2 SUB SWAP1 LOG2 JUMP JUMPDEST PUSH0 PUSH2 0xA61 PUSH2 0xA83 JUMP JUMPDEST ISZERO DUP1 ISZERO PUSH2 0xA70 JUMPI POP PUSH1 0x4 SLOAD TIMESTAMP LT ISZERO JUMPDEST DUP1 ISZERO PUSH2 0xA7E JUMPI POP PUSH1 0x5 SLOAD TIMESTAMP GT ISZERO JUMPDEST SWAP1 POP SWAP1 JUMP JUMPDEST PUSH0 PUSH0 PUSH1 0x14 SWAP1 SLOAD SWAP1 PUSH2 0x100 EXP SWAP1 DIV PUSH1 0xFF AND SWAP1 POP SWAP1 JUMP JUMPDEST PUSH1 0x9 SLOAD DUP2 JUMP JUMPDEST PUSH2 0xAA6 PUSH2 0x1076 JUMP JUMPDEST PUSH2 0xAAF PUSH0 PUSH2 0x115F JUMP JUMPDEST JUMP JUMPDEST PUSH32 0x0 DUP2 JUMP JUMPDEST PUSH0 PUSH0 PUSH0 SWAP1 SLOAD SWAP1 PUSH2 0x100 EXP SWAP1 DIV PUSH20 0xFFFFFFFFFFFFFFFFFFFFFFFFFFFFFFFFFFFFFFFF AND SWAP1 POP SWAP1 JUMP JUMPDEST PUSH1 0x6 SLOAD DUP2 JUMP JUMPDEST PUSH1 0x4 SLOAD DUP2 JUMP JUMPDEST PUSH2 0xB10 PUSH2 0x1076 JUMP JUMPDEST PUSH2 0xB18 PUSH2 0x1220 JUMP JUMPDEST CALLER PUSH20 0xFFFFFFFFFFFFFFFFFFFFFFFFFFFFFFFFFFFFFFFF AND PUSH32 0xA3B142BF6879B63DA2ACAE6C3CBA67984F0C343EF0B43E6E3F349BFE1F470CF2 PUSH1 0x40 MLOAD PUSH1 0x40 MLOAD DUP1 SWAP2 SUB SWAP1 LOG2 JUMP JUMPDEST PUSH1 0x5 SLOAD DUP2 JUMP JUMPDEST PUSH1 0x2 PUSH0 SWAP1 SLOAD SWAP1 PUSH2 0x100 EXP SWAP1 DIV PUSH20 0xFFFFFFFFFFFFFFFFFFFFFFFFFFFFFFFFFFFFFFFF AND DUP2 JUMP JUMPDEST PUSH2 0xB90 PUSH2 0x1281 JUMP JUMPDEST PUSH1 0x4 SLOAD TIMESTAMP LT ISZERO DUP1 ISZERO PUSH2 0xBA4 JUMPI POP PUSH1 0x5 SLOAD TIMESTAMP GT ISZERO JUMPDEST PUSH2 0xBE3 JUMPI PUSH1 0x40 MLOAD PUSH32 0x8C379A000000000000000000000000000000000000000000000000000000000 DUP2 MSTORE PUSH1 0x4 ADD PUSH2 0xBDA SWAP1 PUSH2 0x178A JUMP JUMPDEST PUSH1 0x40 MLOAD DUP1 SWAP2 SUB SWAP1 REVERT JUMPDEST PUSH1 0xA PUSH0 CALLER PUSH20 0xFFFFFFFFFFFFFFFFFFFFFFFFFFFFFFFFFFFFFFFF AND PUSH20 0xFFFFFFFFFFFFFFFFFFFFFFFFFFFFFFFFFFFFFFFF AND DUP2 MSTORE PUSH1 0x20 ADD SWAP1 DUP2 MSTORE PUSH1 0x20 ADD PUSH0 KECCAK256 PUSH0 SWAP1 SLOAD SWAP1 PUSH2 0x100 EXP SWAP1 DIV PUSH1 0xFF AND PUSH2 0xC6C JUMPI PUSH1 0x40 MLOAD PUSH32 0x8C379A000000000000000000000000000000000000000000000000000000000 DUP2 MSTORE PUSH1 0x4 ADD PUSH2 0xC63 SWAP1 PUSH2 0x17F2 JUMP JUMPDEST PUSH1 0x40 MLOAD DUP1 SWAP2 SUB SWAP1 REVERT JUMPDEST PUSH1 0x6 SLOAD CALLVALUE LT ISZERO PUSH2 0xCB1 JUMPI PUSH1 0x40 MLOAD PUSH32 0x8C379A000000000000000000000000000000000000000000000000000000000 DUP2 MSTORE PUSH1 0x4 ADD PUSH2 0xCA8 SWAP1 PUSH2 0x185A JUMP JUMPDEST PUSH1 0x40 MLOAD DUP1 SWAP2 SUB SWAP1 REVERT JUMPDEST PUSH0 CALLVALUE PUSH1 0xB PUSH0 CALLER PUSH20 0xFFFFFFFFFFFFFFFFFFFFFFFFFFFFFFFFFFFFFFFF AND PUSH20 0xFFFFFFFFFFFFFFFFFFFFFFFFFFFFFFFFFFFFFFFF AND DUP2 MSTORE PUSH1 0x20 ADD SWAP1 DUP2 MSTORE PUSH1 0x20 ADD PUSH0 KECCAK256 SLOAD PUSH2 0xCFB SWAP2 SWAP1 PUSH2 0x18A5 JUMP JUMPDEST SWAP1 POP PUSH1 0x7 SLOAD DUP2 GT ISZERO PUSH2 0xD42 JUMPI PUSH1 0x40 MLOAD PUSH32 0x8C379A000000000000000000000000000000000000000000000000000000000 DUP2 MSTORE PUSH1 0x4 ADD PUSH2 0xD39 SWAP1 PUSH2 0x1922 JUMP JUMPDEST PUSH1 0x40 MLOAD DUP1 SWAP2 SUB SWAP1 REVERT JUMPDEST PUSH0 PUSH1 0x3 SLOAD CALLVALUE PUSH2 0xD51 SWAP2 SWAP1 PUSH2 0x1940 JUMP JUMPDEST SWAP1 POP PUSH1 0x8 SLOAD DUP2 PUSH1 0x9 SLOAD PUSH2 0xD64 SWAP2 SWAP1 PUSH2 0x18A5 JUMP JUMPDEST GT ISZERO PUSH2 0xDA5 JUMPI PUSH1 0x40 MLOAD PUSH32 0x8C379A000000000000000000000000000000000000000000000000000000000 DUP2 MSTORE PUSH1 0x4 ADD PUSH2 0xD9C SWAP1 PUSH2 0x19CB JUMP JUMPDEST PUSH1 0x40 MLOAD DUP1 SWAP2 SUB SWAP1 REVERT JUMPDEST DUP2 PUSH1 0xB PUSH0 CALLER PUSH20 0xFFFFFFFFFFFFFFFFFFFFFFFFFFFFFFFFFFFFFFFF AND PUSH20 0xFFFFFFFFFFFFFFFFFFFFFFFFFFFFFFFFFFFFFFFF AND DUP2 MSTORE PUSH1 0x20 ADD SWAP1 DUP2 MSTORE PUSH1 0x20 ADD PUSH0 KECCAK256 DUP2 SWAP1 SSTORE POP DUP1 PUSH1 0x9 PUSH0 DUP3 DUP3 SLOAD PUSH2 0xDF8 SWAP2 SWAP1 PUSH2 0x18A5 JUMP JUMPDEST SWAP3 POP POP DUP2 SWAP1 SSTORE POP PUSH32 0x0 PUSH20 0xFFFFFFFFFFFFFFFFFFFFFFFFFFFFFFFFFFFFFFFF AND PUSH4 0x40C10F19 CALLER DUP4 PUSH1 0x40 MLOAD DUP4 PUSH4 0xFFFFFFFF AND PUSH1 0xE0 SHL DUP2 MSTORE PUSH1 0x4 ADD PUSH2 0xE5A SWAP3 SWAP2 SWAP1 PUSH2 0x19E9 JUMP JUMPDEST PUSH0 PUSH1 0x40 MLOAD DUP1 DUP4 SUB DUP2 PUSH0 DUP8 DUP1 EXTCODESIZE ISZERO DUP1 ISZERO PUSH2 0xE71 JUMPI PUSH0 PUSH0 REVERT JUMPDEST POP GAS CALL ISZERO DUP1 ISZERO PUSH2 0xE83 JUMPI RETURNDATASIZE PUSH0 PUSH0 RETURNDATACOPY RETURNDATASIZE PUSH0 REVERT JUMPDEST POP POP POP POP CALLER PUSH20 0xFFFFFFFFFFFFFFFFFFFFFFFFFFFFFFFFFFFFFFFF AND PUSH32 0x8FAFEBCAF9D154343DAD25669BFA277F4FBACD7AC6B0C4FED522580E040A0F33 CALLVALUE DUP4 PUSH1 0x40 MLOAD PUSH2 0xECF SWAP3 SWAP2 SWAP1 PUSH2 0x1A10 JUMP JUMPDEST PUSH1 0x40 MLOAD DUP1 SWAP2 SUB SWAP1 LOG2 POP POP JUMP JUMPDEST PUSH1 0xB PUSH1 0x20 MSTORE DUP1 PUSH0 MSTORE PUSH1 0x40 PUSH0 KECCAK256 PUSH0 SWAP2 POP SWAP1 POP SLOAD DUP2 JUMP JUMPDEST PUSH1 0x7 SLOAD DUP2 JUMP JUMPDEST PUSH2 0xEFE PUSH2 0x1076 JUMP JUMPDEST PUSH0 PUSH20 0xFFFFFFFFFFFFFFFFFFFFFFFFFFFFFFFFFFFFFFFF AND DUP2 PUSH20 0xFFFFFFFFFFFFFFFFFFFFFFFFFFFFFFFFFFFFFFFF AND SUB PUSH2 0xF6E JUMPI PUSH0 PUSH1 0x40 MLOAD PUSH32 0x1E4FBDF700000000000000000000000000000000000000000000000000000000 DUP2 MSTORE PUSH1 0x4 ADD PUSH2 0xF65 SWAP2 SWAP1 PUSH2 0x145A JUMP JUMPDEST PUSH1 0x40 MLOAD DUP1 SWAP2 SUB SWAP1 REVERT JUMPDEST PUSH2 0xF77 DUP2 PUSH2 0x115F JUMP JUMPDEST POP JUMP JUMPDEST PUSH2 0xF82 PUSH2 0x1076 JUMP JUMPDEST PUSH0 PUSH20 0xFFFFFFFFFFFFFFFFFFFFFFFFFFFFFFFFFFFFFFFF AND DUP2 PUSH20 0xFFFFFFFFFFFFFFFFFFFFFFFFFFFFFFFFFFFFFFFF AND SUB PUSH2 0xFF0 JUMPI PUSH1 0x40 MLOAD PUSH32 0x8C379A000000000000000000000000000000000000000000000000000000000 DUP2 MSTORE PUSH1 0x4 ADD PUSH2 0xFE7 SWAP1 PUSH2 0x1A81 JUMP JUMPDEST PUSH1 0x40 MLOAD DUP1 SWAP2 SUB SWAP1 REVERT JUMPDEST DUP1 PUSH1 0x1 PUSH0 PUSH2 0x100 EXP DUP2 SLOAD DUP2 PUSH20 0xFFFFFFFFFFFFFFFFFFFFFFFFFFFFFFFFFFFFFFFF MUL NOT AND SWAP1 DUP4 PUSH20 0xFFFFFFFFFFFFFFFFFFFFFFFFFFFFFFFFFFFFFFFF AND MUL OR SWAP1 SSTORE POP DUP1 PUSH20 0xFFFFFFFFFFFFFFFFFFFFFFFFFFFFFFFFFFFFFFFF AND PUSH32 0xD16D2CF254200E4DC6DC82512E9D11673E06A798C40B90CEF7583729B4F7A8D4 PUSH1 0x40 MLOAD PUSH1 0x40 MLOAD DUP1 SWAP2 SUB SWAP1 LOG2 POP JUMP JUMPDEST PUSH2 0x107E PUSH2 0x12C2 JUMP JUMPDEST PUSH20 0xFFFFFFFFFFFFFFFFFFFFFFFFFFFFFFFFFFFFFFFF AND PUSH2 0x109C PUSH2 0xAD5 JUMP JUMPDEST PUSH20 0xFFFFFFFFFFFFFFFFFFFFFFFFFFFFFFFFFFFFFFFF AND EQ PUSH2 0x10FB JUMPI PUSH2 0x10BF PUSH2 0x12C2 JUMP JUMPDEST PUSH1 0x40 MLOAD PUSH32 0x118CDAA700000000000000000000000000000000000000000000000000000000 DUP2 MSTORE PUSH1 0x4 ADD PUSH2 0x10F2 SWAP2 SWAP1 PUSH2 0x145A JUMP JUMPDEST PUSH1 0x40 MLOAD DUP1 SWAP2 SUB SWAP1 REVERT JUMPDEST JUMP JUMPDEST PUSH2 0x1105 PUSH2 0x1281 JUMP JUMPDEST PUSH1 0x1 PUSH0 PUSH1 0x14 PUSH2 0x100 EXP DUP2 SLOAD DUP2 PUSH1 0xFF MUL NOT AND SWAP1 DUP4 ISZERO ISZERO MUL OR SWAP1 SSTORE POP PUSH32 0x62E78CEA01BEE320CD4E420270B5EA74000D11B0C9F74754EBDBFC544B05A258 PUSH2 0x1148 PUSH2 0x12C2 JUMP JUMPDEST PUSH1 0x40 MLOAD PUSH2 0x1155 SWAP2 SWAP1 PUSH2 0x145A JUMP JUMPDEST PUSH1 0x40 MLOAD DUP1 SWAP2 SUB SWAP1 LOG1 JUMP JUMPDEST PUSH0 PUSH0 PUSH0 SWAP1 SLOAD SWAP1 PUSH2 0x100 EXP SWAP1 DIV PUSH20 0xFFFFFFFFFFFFFFFFFFFFFFFFFFFFFFFFFFFFFFFF AND SWAP1 POP DUP2 PUSH0 PUSH0 PUSH2 0x100 EXP DUP2 SLOAD DUP2 PUSH20 0xFFFFFFFFFFFFFFFFFFFFFFFFFFFFFFFFFFFFFFFF MUL NOT AND SWAP1 DUP4 PUSH20 0xFFFFFFFFFFFFFFFFFFFFFFFFFFFFFFFFFFFFFFFF AND MUL OR SWAP1 SSTORE POP DUP2 PUSH20 0xFFFFFFFFFFFFFFFFFFFFFFFFFFFFFFFFFFFFFFFF AND DUP2 PUSH20 0xFFFFFFFFFFFFFFFFFFFFFFFFFFFFFFFFFFFFFFFF AND PUSH32 0x8BE0079C531659141344CD1FD0A4F28419497F9722A3DAAFE3B4186F6B6457E0 PUSH1 0x40 MLOAD PUSH1 0x40 MLOAD DUP1 SWAP2 SUB SWAP1 LOG3 POP POP JUMP JUMPDEST PUSH2 0x1228 PUSH2 0x12C9 JUMP JUMPDEST PUSH0 PUSH0 PUSH1 0x14 PUSH2 0x100 EXP DUP2 SLOAD DUP2 PUSH1 0xFF MUL NOT AND SWAP1 DUP4 ISZERO ISZERO MUL OR SWAP1 SSTORE POP PUSH32 0x5DB9EE0A495BF2E6FF9C91A7834C1BA4FDD244A5E8AA4E537BD38AEAE4B073AA PUSH2 0x126A PUSH2 0x12C2 JUMP JUMPDEST PUSH1 0x40 MLOAD PUSH2 0x1277 SWAP2 SWAP1 PUSH2 0x145A JUMP JUMPDEST PUSH1 0x40 MLOAD DUP1 SWAP2 SUB SWAP1 LOG1 JUMP JUMPDEST PUSH2 0x1289 PUSH2 0xA83 JUMP JUMPDEST ISZERO PUSH2 0x12C0 JUMPI PUSH1 0x40 MLOAD PUSH32 0xD93C066500000000000000000000000000000000000000000000000000000000 DUP2 MSTORE PUSH1 0x4 ADD PUSH1 0x40 MLOAD DUP1 SWAP2 SUB SWAP1 REVERT JUMPDEST JUMP JUMPDEST PUSH0 CALLER SWAP1 POP SWAP1 JUMP JUMPDEST PUSH2 0x12D1 PUSH2 0xA83 JUMP JUMPDEST PUSH2 0x1307 JUMPI PUSH1 0x40 MLOAD PUSH32 0x8DFC202B00000000000000000000000000000000000000000000000000000000 DUP2 MSTORE PUSH1 0x4 ADD PUSH1 0x40 MLOAD DUP1 SWAP2 SUB SWAP1 REVERT JUMPDEST JUMP JUMPDEST PUSH0 PUSH0 REVERT JUMPDEST PUSH0 DUP2 SWAP1 POP SWAP2 SWAP1 POP JUMP JUMPDEST PUSH2 0x131F DUP2 PUSH2 0x130D JUMP JUMPDEST DUP2 EQ PUSH2 0x1329 JUMPI PUSH0 PUSH0 REVERT JUMPDEST POP JUMP JUMPDEST PUSH0 DUP2 CALLDATALOAD SWAP1 POP PUSH2 0x133A DUP2 PUSH2 0x1316 JUMP JUMPDEST SWAP3 SWAP2 POP POP JUMP JUMPDEST PUSH0 PUSH1 0x20 DUP3 DUP5 SUB SLT ISZERO PUSH2 0x1355 JUMPI PUSH2 0x1354 PUSH2 0x1309 JUMP JUMPDEST JUMPDEST PUSH0 PUSH2 0x1362 DUP5 DUP3 DUP6 ADD PUSH2 0x132C JUMP JUMPDEST SWAP2 POP POP SWAP3 SWAP2 POP POP JUMP JUMPDEST PUSH2 0x1374 DUP2 PUSH2 0x130D JUMP JUMPDEST DUP3 MSTORE POP POP JUMP JUMPDEST PUSH0 PUSH1 0x20 DUP3 ADD SWAP1 POP PUSH2 0x138D PUSH0 DUP4 ADD DUP5 PUSH2 0x136B JUMP JUMPDEST SWAP3 SWAP2 POP POP JUMP JUMPDEST PUSH0 PUSH20 0xFFFFFFFFFFFFFFFFFFFFFFFFFFFFFFFFFFFFFFFF DUP3 AND SWAP1 POP SWAP2 SWAP1 POP JUMP JUMPDEST PUSH0 PUSH2 0x13BC DUP3 PUSH2 0x1393 JUMP JUMPDEST SWAP1 POP SWAP2 SWAP1 POP JUMP JUMPDEST PUSH2 0x13CC DUP2 PUSH2 0x13B2 JUMP JUMPDEST DUP2 EQ PUSH2 0x13D6 JUMPI PUSH0 PUSH0 REVERT JUMPDEST POP JUMP JUMPDEST PUSH0 DUP2 CALLDATALOAD SWAP1 POP PUSH2 0x13E7 DUP2 PUSH2 0x13C3 JUMP JUMPDEST SWAP3 SWAP2 POP POP JUMP JUMPDEST PUSH0 PUSH1 0x20 DUP3 DUP5 SUB SLT ISZERO PUSH2 0x1402 JUMPI PUSH2 0x1401 PUSH2 0x1309 JUMP JUMPDEST JUMPDEST PUSH0 PUSH2 0x140F DUP5 DUP3 DUP6 ADD PUSH2 0x13D9 JUMP JUMPDEST SWAP2 POP POP SWAP3 SWAP2 POP POP JUMP JUMPDEST PUSH0 DUP2 ISZERO ISZERO SWAP1 POP SWAP2 SWAP1 POP JUMP JUMPDEST PUSH2 0x142C DUP2 PUSH2 0x1418 JUMP JUMPDEST DUP3 MSTORE POP POP JUMP JUMPDEST PUSH0 PUSH1 0x20 DUP3 ADD SWAP1 POP PUSH2 0x1445 PUSH0 DUP4 ADD DUP5 PUSH2 0x1423 JUMP JUMPDEST SWAP3 SWAP2 POP POP JUMP JUMPDEST PUSH2 0x1454 DUP2 PUSH2 0x13B2 JUMP JUMPDEST DUP3 MSTORE POP POP JUMP JUMPDEST PUSH0 PUSH1 0x20 DUP3 ADD SWAP1 POP PUSH2 0x146D PUSH0 DUP4 ADD DUP5 PUSH2 0x144B JUMP JUMPDEST SWAP3 SWAP2 POP POP JUMP JUMPDEST PUSH2 0x147C DUP2 PUSH2 0x1418 JUMP JUMPDEST DUP2 EQ PUSH2 0x1486 JUMPI PUSH0 PUSH0 REVERT JUMPDEST POP JUMP JUMPDEST PUSH0 DUP2 CALLDATALOAD SWAP1 POP PUSH2 0x1497 DUP2 PUSH2 0x1473 JUMP JUMPDEST SWAP3 SWAP2 POP POP JUMP JUMPDEST PUSH0 PUSH0 PUSH1 0x40 DUP4 DUP6 SUB SLT ISZERO PUSH2 0x14B3 JUMPI PUSH2 0x14B2 PUSH2 0x1309 JUMP JUMPDEST JUMPDEST PUSH0 PUSH2 0x14C0 DUP6 DUP3 DUP7 ADD PUSH2 0x13D9 JUMP JUMPDEST SWAP3 POP POP PUSH1 0x20 PUSH2 0x14D1 DUP6 DUP3 DUP7 ADD PUSH2 0x1489 JUMP JUMPDEST SWAP2 POP POP SWAP3 POP SWAP3 SWAP1 POP JUMP JUMPDEST PUSH0 DUP2 SWAP1 POP SWAP2 SWAP1 POP JUMP JUMPDEST PUSH0 PUSH2 0x14FE PUSH2 0x14F9 PUSH2 0x14F4 DUP5 PUSH2 0x1393 JUMP JUMPDEST PUSH2 0x14DB JUMP JUMPDEST PUSH2 0x1393 JUMP JUMPDEST SWAP1 POP SWAP2 SWAP1 POP JUMP JUMPDEST PUSH0 PUSH2 0x150F DUP3 PUSH2 0x14E4 JUMP JUMPDEST SWAP1 POP SWAP2 SWAP1 POP JUMP JUMPDEST PUSH0 PUSH2 0x1520 DUP3 PUSH2 0x1505 JUMP JUMPDEST SWAP1 POP SWAP2 SWAP1 POP JUMP JUMPDEST PUSH2 0x1530 DUP2 PUSH2 0x1516 JUMP JUMPDEST DUP3 MSTORE POP POP JUMP JUMPDEST PUSH0 PUSH1 0x20 DUP3 ADD SWAP1 POP PUSH2 0x1549 PUSH0 DUP4 ADD DUP5 PUSH2 0x1527 JUMP JUMPDEST SWAP3 SWAP2 POP POP JUMP JUMPDEST PUSH0 DUP3 DUP3 MSTORE PUSH1 0x20 DUP3 ADD SWAP1 POP SWAP3 SWAP2 POP POP JUMP JUMPDEST PUSH32 0x4E6F7420617574686F72697A6564000000000000000000000000000000000000 PUSH0 DUP3 ADD MSTORE POP JUMP JUMPDEST PUSH0 PUSH2 0x1593 PUSH1 0xE DUP4 PUSH2 0x154F JUMP JUMPDEST SWAP2 POP PUSH2 0x159E DUP3 PUSH2 0x155F JUMP JUMPDEST PUSH1 0x20 DUP3 ADD SWAP1 POP SWAP2 SWAP1 POP JUMP JUMPDEST PUSH0 PUSH1 0x20 DUP3 ADD SWAP1 POP DUP2 DUP2 SUB PUSH0 DUP4 ADD MSTORE PUSH2 0x15C0 DUP2 PUSH2 0x1587 JUMP JUMPDEST SWAP1 POP SWAP2 SWAP1 POP JUMP JUMPDEST PUSH32 0x496E73756666696369656E742045544800000000000000000000000000000000 PUSH0 DUP3 ADD MSTORE POP JUMP JUMPDEST PUSH0 PUSH2 0x15FB PUSH1 0x10 DUP4 PUSH2 0x154F JUMP JUMPDEST SWAP2 POP PUSH2 0x1606 DUP3 PUSH2 0x15C7 JUMP JUMPDEST PUSH1 0x20 DUP3 ADD SWAP1 POP SWAP2 SWAP1 POP JUMP JUMPDEST PUSH0 PUSH1 0x20 DUP3 ADD SWAP1 POP DUP2 DUP2 SUB PUSH0 DUP4 ADD MSTORE PUSH2 0x1628 DUP2 PUSH2 0x15EF JUMP JUMPDEST SWAP1 POP SWAP2 SWAP1 POP JUMP JUMPDEST PUSH0 DUP2 SWAP1 POP SWAP3 SWAP2 POP POP JUMP JUMPDEST POP JUMP JUMPDEST PUSH0 PUSH2 0x1647 PUSH0 DUP4 PUSH2 0x162F JUMP JUMPDEST SWAP2 POP PUSH2 0x1652 DUP3 PUSH2 0x1639 JUMP JUMPDEST PUSH0 DUP3 ADD SWAP1 POP SWAP2 SWAP1 POP JUMP JUMPDEST PUSH0 PUSH2 0x1666 DUP3 PUSH2 0x163C JUMP JUMPDEST SWAP2 POP DUP2 SWAP1 POP SWAP2 SWAP1 POP JUMP JUMPDEST PUSH32 0x5769746864726177206661696C65640000000000000000000000000000000000 PUSH0 DUP3 ADD MSTORE POP JUMP JUMPDEST PUSH0 PUSH2 0x16A4 PUSH1 0xF DUP4 PUSH2 0x154F JUMP JUMPDEST SWAP2 POP PUSH2 0x16AF DUP3 PUSH2 0x1670 JUMP JUMPDEST PUSH1 0x20 DUP3 ADD SWAP1 POP SWAP2 SWAP1 POP JUMP JUMPDEST PUSH0 PUSH1 0x20 DUP3 ADD SWAP1 POP DUP2 DUP2 SUB PUSH0 DUP4 ADD MSTORE PUSH2 0x16D1 DUP2 PUSH2 0x1698 JUMP JUMPDEST SWAP1 POP SWAP2 SWAP1 POP JUMP JUMPDEST PUSH32 0x496E76616C696420636F6D706C69616E63650000000000000000000000000000 PUSH0 DUP3 ADD MSTORE POP JUMP JUMPDEST PUSH0 PUSH2 0x170C PUSH1 0x12 DUP4 PUSH2 0x154F JUMP JUMPDEST SWAP2 POP PUSH2 0x1717 DUP3 PUSH2 0x16D8 JUMP JUMPDEST PUSH1 0x20 DUP3 ADD SWAP1 POP SWAP2 SWAP1 POP JUMP JUMPDEST PUSH0 PUSH1 0x20 DUP3 ADD SWAP1 POP DUP2 DUP2 SUB PUSH0 DUP4 ADD MSTORE PUSH2 0x1739 DUP2 PUSH2 0x1700 JUMP JUMPDEST SWAP1 POP SWAP2 SWAP1 POP JUMP JUMPDEST PUSH32 0x53616C65206E6F74206163746976650000000000000000000000000000000000 PUSH0 DUP3 ADD MSTORE POP JUMP JUMPDEST PUSH0 PUSH2 0x1774 PUSH1 0xF DUP4 PUSH2 0x154F JUMP JUMPDEST SWAP2 POP PUSH2 0x177F DUP3 PUSH2 0x1740 JUMP JUMPDEST PUSH1 0x20 DUP3 ADD SWAP1 POP SWAP2 SWAP1 POP JUMP JUMPDEST PUSH0 PUSH1 0x20 DUP3 ADD SWAP1 POP DUP2 DUP2 SUB PUSH0 DUP4 ADD MSTORE PUSH2 0x17A1 DUP2 PUSH2 0x1768 JUMP JUMPDEST SWAP1 POP SWAP2 SWAP1 POP JUMP JUMPDEST PUSH32 0x4E6F742077686974656C69737465640000000000000000000000000000000000 PUSH0 DUP3 ADD MSTORE POP JUMP JUMPDEST PUSH0 PUSH2 0x17DC PUSH1 0xF DUP4 PUSH2 0x154F JUMP JUMPDEST SWAP2 POP PUSH2 0x17E7 DUP3 PUSH2 0x17A8 JUMP JUMPDEST PUSH1 0x20 DUP3 ADD SWAP1 POP SWAP2 SWAP1 POP JUMP JUMPDEST PUSH0 PUSH1 0x20 DUP3 ADD SWAP1 POP DUP2 DUP2 SUB PUSH0 DUP4 ADD MSTORE PUSH2 0x1809 DUP2 PUSH2 0x17D0 JUMP JUMPDEST SWAP1 POP SWAP2 SWAP1 POP JUMP JUMPDEST PUSH32 0x42656C6F77206D696E20636F6E747269627574696F6E00000000000000000000 PUSH0 DUP3 ADD MSTORE POP JUMP JUMPDEST PUSH0 PUSH2 0x1844 PUSH1 0x16 DUP4 PUSH2 0x154F JUMP JUMPDEST SWAP2 POP PUSH2 0x184F DUP3 PUSH2 0x1810 JUMP JUMPDEST PUSH1 0x20 DUP3 ADD SWAP1 POP SWAP2 SWAP1 POP JUMP JUMPDEST PUSH0 PUSH1 0x20 DUP3 ADD SWAP1 POP DUP2 DUP2 SUB PUSH0 DUP4 ADD MSTORE PUSH2 0x1871 DUP2 PUSH2 0x1838 JUMP JUMPDEST SWAP1 POP SWAP2 SWAP1 POP JUMP JUMPDEST PUSH32 0x4E487B7100000000000000000000000000000000000000000000000000000000 PUSH0 MSTORE PUSH1 0x11 PUSH1 0x4 MSTORE PUSH1 0x24 PUSH0 REVERT JUMPDEST PUSH0 PUSH2 0x18AF DUP3 PUSH2 0x130D JUMP JUMPDEST SWAP2 POP PUSH2 0x18BA DUP4 PUSH2 0x130D JUMP JUMPDEST SWAP3 POP DUP3 DUP3 ADD SWAP1 POP DUP1 DUP3 GT ISZERO PUSH2 0x18D2 JUMPI PUSH2 0x18D1 PUSH2 0x1878 JUMP JUMPDEST JUMPDEST SWAP3 SWAP2 POP POP JUMP JUMPDEST PUSH32 0x41626F7665206D617820636F6E747269627574696F6E00000000000000000000 PUSH0 DUP3 ADD MSTORE POP JUMP JUMPDEST PUSH0 PUSH2 0x190C PUSH1 0x16 DUP4 PUSH2 0x154F JUMP JUMPDEST SWAP2 POP PUSH2 0x1917 DUP3 PUSH2 0x18D8 JUMP JUMPDEST PUSH1 0x20 DUP3 ADD SWAP1 POP SWAP2 SWAP1 POP JUMP JUMPDEST PUSH0 PUSH1 0x20 DUP3 ADD SWAP1 POP DUP2 DUP2 SUB PUSH0 DUP4 ADD MSTORE PUSH2 0x1939 DUP2 PUSH2 0x1900 JUMP JUMPDEST SWAP1 POP SWAP2 SWAP1 POP JUMP JUMPDEST PUSH0 PUSH2 0x194A DUP3 PUSH2 0x130D JUMP JUMPDEST SWAP2 POP PUSH2 0x1955 DUP4 PUSH2 0x130D JUMP JUMPDEST SWAP3 POP DUP3 DUP3 MUL PUSH2 0x1963 DUP2 PUSH2 0x130D JUMP JUMPDEST SWAP2 POP DUP3 DUP3 DIV DUP5 EQ DUP4 ISZERO OR PUSH2 0x197A JUMPI PUSH2 0x1979 PUSH2 0x1878 JUMP JUMPDEST JUMPDEST POP SWAP3 SWAP2 POP POP JUMP JUMPDEST PUSH32 0x4861726420636170206578636565646564000000000000000000000000000000 PUSH0 DUP3 ADD MSTORE POP JUMP JUMPDEST PUSH0 PUSH2 0x19B5 PUSH1 0x11 DUP4 PUSH2 0x154F JUMP JUMPDEST SWAP2 POP PUSH2 0x19C0 DUP3 PUSH2 0x1981 JUMP JUMPDEST PUSH1 0x20 DUP3 ADD SWAP1 POP SWAP2 SWAP1 POP JUMP JUMPDEST PUSH0 PUSH1 0x20 DUP3 ADD SWAP1 POP DUP2 DUP2 SUB PUSH0 DUP4 ADD MSTORE PUSH2 0x19E2 DUP2 PUSH2 0x19A9 JUMP JUMPDEST SWAP1 POP SWAP2 SWAP1 POP JUMP JUMPDEST PUSH0 PUSH1 0x40 DUP3 ADD SWAP1 POP PUSH2 0x19FC PUSH0 DUP4 ADD DUP6 PUSH2 0x144B JUMP JUMPDEST PUSH2 0x1A09 PUSH1 0x20 DUP4 ADD DUP5 PUSH2 0x136B JUMP JUMPDEST SWAP4 SWAP3 POP POP POP JUMP JUMPDEST PUSH0 PUSH1 0x40 DUP3 ADD SWAP1 POP PUSH2 0x1A23 PUSH0 DUP4 ADD DUP6 PUSH2 0x136B JUMP JUMPDEST PUSH2 0x1A30 PUSH1 0x20 DUP4 ADD DUP5 PUSH2 0x136B JUMP JUMPDEST SWAP4 SWAP3 POP POP POP JUMP JUMPDEST PUSH32 0x496E76616C696420747265617375727900000000000000000000000000000000 PUSH0 DUP3 ADD MSTORE POP JUMP JUMPDEST PUSH0 PUSH2 0x1A6B PUSH1 0x10 DUP4 PUSH2 0x154F JUMP JUMPDEST SWAP2 POP PUSH2 0x1A76 DUP3 PUSH2 0x1A37 JUMP JUMPDEST PUSH1 0x20 DUP3 ADD SWAP1 POP SWAP2 SWAP1 POP JUMP JUMPDEST PUSH0 PUSH1 0x20 DUP3 ADD SWAP1 POP DUP2 DUP2 SUB PUSH0 DUP4 ADD MSTORE PUSH2 0x1A98 DUP2 PUSH2 0x1A5F JUMP JUMPDEST SWAP1 POP SWAP2 SWAP1 POP JUMP INVALID LOG2 PUSH5 0x6970667358 0x22 SLT KECCAK256 EXTSTATICCALL LOG1 LOG0 PUSH4 0x1866392 0xB8 COINBASE 0xAE BLOCKHASH 0x2A JUMPI STOP TSTORE SDIV JUMPDEST 0xDD GASPRICE DUP11 0x4B LT BLOBHASH PUSH32 0x9685F5A0E1BEF364736F6C634300081E00330000000000000000000000000000 "
				},
				"gasEstimates": {
					"creation": {
						"codeDepositCost": "1373800",
						"executionCost": "infinite",
						"totalCost": "infinite"
					},
					"external": {
						"buyTokens()": "infinite",
						"complianceOfficer()": "2530",
						"contributionOf(address)": "2868",
						"eduToken()": "infinite",
						"hardCapTokens()": "2537",
						"isSaleActive()": "6893",
						"isWhitelisted(address)": "2901",
						"maxContributionWei()": "2513",
						"minContributionWei()": "2492",
						"owner()": "2559",
						"pauseSale()": "infinite",
						"paused()": "2612",
						"rate()": "2471",
						"renounceOwnership()": "infinite",
						"saleEnd()": "2558",
						"saleStart()": "2514",
						"setComplianceOfficer(address)": "infinite",
						"setTreasuryManager(address)": "infinite",
						"setWhitelist(address,bool)": "infinite",
						"totalTokensSold()": "2536",
						"transferOwnership(address)": "infinite",
						"treasuryManager()": "2598",
						"unpauseSale()": "infinite",
						"withdrawFunds(uint256)": "infinite"
					}
				},
				"methodIdentifiers": {
					"buyTokens()": "d0febe4c",
					"complianceOfficer()": "c4a56fc8",
					"contributionOf(address)": "d7805ece",
					"eduToken()": "8d878889",
					"hardCapTokens()": "4b749535",
					"isSaleActive()": "564566a8",
					"isWhitelisted(address)": "3af32abf",
					"maxContributionWei()": "e5f6186d",
					"minContributionWei()": "91294ed1",
					"owner()": "8da5cb5b",
					"pauseSale()": "55367ba9",
					"paused()": "5c975abb",
					"rate()": "2c4e722e",
					"renounceOwnership()": "715018a6",
					"saleEnd()": "c10b9358",
					"saleStart()": "ab0bcc41",
					"setComplianceOfficer(address)": "547c191a",
					"setTreasuryManager(address)": "fe47a9f2",
					"setWhitelist(address,bool)": "53d6fd59",
					"totalTokensSold()": "63b20117",
					"transferOwnership(address)": "f2fde38b",
					"treasuryManager()": "3cea70d9",
					"unpauseSale()": "bb33d729",
					"withdrawFunds(uint256)": "155dd5ee"
				}
			},
			"storageLayout": {
				"storage": [
					{
						"astId": 8,
						"contract": "contracts/EduTokenSale.sol:EduTokenSale",
						"label": "_owner",
						"offset": 0,
						"slot": "0",
						"type": "t_address"
					},
					{
						"astId": 942,
						"contract": "contracts/EduTokenSale.sol:EduTokenSale",
						"label": "_paused",
						"offset": 20,
						"slot": "0",
						"type": "t_bool"
					},
					{
						"astId": 1105,
						"contract": "contracts/EduTokenSale.sol:EduTokenSale",
						"label": "treasuryManager",
						"offset": 0,
						"slot": "1",
						"type": "t_address"
					},
					{
						"astId": 1107,
						"contract": "contracts/EduTokenSale.sol:EduTokenSale",
						"label": "complianceOfficer",
						"offset": 0,
						"slot": "2",
						"type": "t_address"
					},
					{
						"astId": 1109,
						"contract": "contracts/EduTokenSale.sol:EduTokenSale",
						"label": "rate",
						"offset": 0,
						"slot": "3",
						"type": "t_uint256"
					},
					{
						"astId": 1111,
						"contract": "contracts/EduTokenSale.sol:EduTokenSale",
						"label": "saleStart",
						"offset": 0,
						"slot": "4",
						"type": "t_uint256"
					},
					{
						"astId": 1113,
						"contract": "contracts/EduTokenSale.sol:EduTokenSale",
						"label": "saleEnd",
						"offset": 0,
						"slot": "5",
						"type": "t_uint256"
					},
					{
						"astId": 1115,
						"contract": "contracts/EduTokenSale.sol:EduTokenSale",
						"label": "minContributionWei",
						"offset": 0,
						"slot": "6",
						"type": "t_uint256"
					},
					{
						"astId": 1117,
						"contract": "contracts/EduTokenSale.sol:EduTokenSale",
						"label": "maxContributionWei",
						"offset": 0,
						"slot": "7",
						"type": "t_uint256"
					},
					{
						"astId": 1119,
						"contract": "contracts/EduTokenSale.sol:EduTokenSale",
						"label": "hardCapTokens",
						"offset": 0,
						"slot": "8",
						"type": "t_uint256"
					},
					{
						"astId": 1121,
						"contract": "contracts/EduTokenSale.sol:EduTokenSale",
						"label": "totalTokensSold",
						"offset": 0,
						"slot": "9",
						"type": "t_uint256"
					},
					{
						"astId": 1125,
						"contract": "contracts/EduTokenSale.sol:EduTokenSale",
						"label": "isWhitelisted",
						"offset": 0,
						"slot": "10",
						"type": "t_mapping(t_address,t_bool)"
					},
					{
						"astId": 1129,
						"contract": "contracts/EduTokenSale.sol:EduTokenSale",
						"label": "contributionOf",
						"offset": 0,
						"slot": "11",
						"type": "t_mapping(t_address,t_uint256)"
					}
				],
				"types": {
					"t_address": {
						"encoding": "inplace",
						"label": "address",
						"numberOfBytes": "20"
					},
					"t_bool": {
						"encoding": "inplace",
						"label": "bool",
						"numberOfBytes": "1"
					},
					"t_mapping(t_address,t_bool)": {
						"encoding": "mapping",
						"key": "t_address",
						"label": "mapping(address => bool)",
						"numberOfBytes": "32",
						"value": "t_bool"
					},
					"t_mapping(t_address,t_uint256)": {
						"encoding": "mapping",
						"key": "t_address",
						"label": "mapping(address => uint256)",
						"numberOfBytes": "32",
						"value": "t_uint256"
					},
					"t_uint256": {
						"encoding": "inplace",
						"label": "uint256",
						"numberOfBytes": "32"
					}
				}
			},
			"userdoc": {
				"kind": "user",
				"methods": {},
				"version": 1
			}
		}
	}
}