{
  "_format": "hh-sol-artifact-1",
  "contractName": "EduToken",
  "sourceName": "contracts/EduToken.sol",
  "abi": [
    {
      "inputs": [
        {
          "internalType": "address",
          "name": "_initialOwner",
          "type": "address"
        }
      ],
      "stateMutability": "nonpayable",
      "type": "constructor"
    },
    {
      "inputs": [
        {
          "internalType": "address",
          "name": "spender",
          "type": "address"
        },
        {
          "internalType": "uint256",
          "name": "allowance",
          "type": "uint256"
        },
        {
          "internalType": "uint256",
          "name": "needed",
          "type": "uint256"
        }
      ],
      "name": "ERC20InsufficientAllowance",
      "type": "error"
    },
    {
      "inputs": [
        {
          "internalType": "address",
          "name": "sender",
          "type": "address"
        },
        {
          "internalType": "uint256",
          "name": "balance",
          "type": "uint256"
        },
        {
          "internalType": "uint256",
          "name": "needed",
          "type": "uint256"
        }
      ],
      "name": "ERC20InsufficientBalance",
      "type": "error"
    },
    {
      "inputs": [
        {
          "internalType": "address",
          "name": "approver",
          "type": "address"
        }
      ],
      "name": "ERC20InvalidApprover",
      "type": "error"
    },
    {
      "inputs": [
        {
          "internalType": "address",
          "name": "receiver",
          "type": "address"
        }
      ],
      "name": "ERC20InvalidReceiver",
      "type": "error"
    },
    {
      "inputs": [
        {
          "internalType": "address",
          "name": "sender",
          "type": "address"
        }
      ],
      "name": "ERC20InvalidSender",
      "type": "error"
    },
    {
      "inputs": [
        {
          "internalType": "address",
          "name": "spender",
          "type": "address"
        }
      ],
      "name": "ERC20InvalidSpender",
      "type": "error"
    },
    {
      "inputs": [
        {
          "internalType": "address",
          "name": "owner",
          "type": "address"
        }
      ],
      "name": "OwnableInvalidOwner",
      "type": "error"
    },
    {
      "inputs": [
        {
          "internalType": "address",
          "name": "account",
          "type": "address"
        }
      ],
      "name": "OwnableUnauthorizedAccount",
      "type": "error"
    },
    {
      "anonymous": false,
      "inputs": [
        {
          "indexed": true,
          "internalType": "address",
          "name": "owner",
          "type": "address"
        },
        {
          "indexed": true,
          "internalType": "address",
          "name": "spender",
          "type": "address"
        },
        {
          "indexed": false,
          "internalType": "uint256",
          "name": "value",
          "type": "uint256"
        }
      ],
      "name": "Approval",
      "type": "event"
    },
    {
      "anonymous": false,
      "inputs": [
        {
          "indexed": true,
          "internalType": "address",
          "name": "previousOwner",
          "type": "address"
        },
        {
          "indexed": true,
          "internalType": "address",
          "name": "newOwner",
          "type": "address"
        }
      ],
      "name": "OwnershipTransferred",
      "type": "event"
    },
    {
      "anonymous": false,
      "inputs": [
        {
          "indexed": true,
          "internalType": "address",
          "name": "from",
          "type": "address"
        },
        {
          "indexed": true,
          "internalType": "address",
          "name": "to",
          "type": "address"
        },
        {
          "indexed": false,
          "internalType": "uint256",
          "name": "value",
          "type": "uint256"
        }
      ],
      "name": "Transfer",
      "type": "event"
    },
    {
      "inputs": [],
      "name": "INITIAL_SUPPLY",
      "outputs": [
        {
          "internalType": "uint256",
          "name": "",
          "type": "uint256"
        }
      ],
      "stateMutability": "view",
      "type": "function"
    },
    {
      "inputs": [
        {
          "internalType": "address",
          "name": "owner",
          "type": "address"
        },
        {
          "internalType": "address",
          "name": "spender",
          "type": "address"
        }
      ],
      "name": "allowance",
      "outputs": [
        {
          "internalType": "uint256",
          "name": "",
          "type": "uint256"
        }
      ],
      "stateMutability": "view",
      "type": "function"
    },
    {
      "inputs": [
        {
          "internalType": "address",
          "name": "spender",
          "type": "address"
        },
        {
          "internalType": "uint256",
          "name": "value",
          "type": "uint256"
        }
      ],
      "name": "approve",
      "outputs": [
        {
          "internalType": "bool",
          "name": "",
          "type": "bool"
        }
      ],
      "stateMutability": "nonpayable",
      "type": "function"
    },
    {
      "inputs": [
        {
          "internalType": "address",
          "name": "account",
          "type": "address"
        }
      ],
      "name": "balanceOf",
      "outputs": [
        {
          "internalType": "uint256",
          "name": "",
          "type": "uint256"
        }
      ],
      "stateMutability": "view",
      "type": "function"
    },
    {
      "inputs": [],
      "name": "decimals",
      "outputs": [
        {
          "internalType": "uint8",
          "name": "",
          "type": "uint8"
        }
      ],
      "stateMutability": "view",
      "type": "function"
    },
    {
      "inputs": [],
      "name": "name",
      "outputs": [
        {
          "internalType": "string",
          "name": "",
          "type": "string"
        }
      ],
      "stateMutability": "view",
      "type": "function"
    },
    {
      "inputs": [],
      "name": "owner",
      "outputs": [
        {
          "internalType": "address",
          "name": "",
          "type": "address"
        }
      ],
      "stateMutability": "view",
      "type": "function"
    },
    {
      "inputs": [],
      "name": "renounceOwnership",
      "outputs": [],
      "stateMutability": "nonpayable",
      "type": "function"
    },
    {
      "inputs": [],
      "name": "symbol",
      "outputs": [
        {
          "internalType": "string",
          "name": "",
          "type": "string"
        }
      ],
      "stateMutability": "view",
      "type": "function"
    },
    {
      "inputs": [],
      "name": "totalSupply",
      "outputs": [
        {
          "internalType": "uint256",
          "name": "",
          "type": "uint256"
        }
      ],
      "stateMutability": "view",
      "type": "function"
    },
    {
      "inputs": [
        {
          "internalType": "address",
          "name": "to",
          "type": "address"
        },
        {
          "internalType": "uint256",
          "name": "value",
          "type": "uint256"
        }
      ],
      "name": "transfer",
      "outputs": [
        {
          "internalType": "bool",
          "name": "",
          "type": "bool"
        }
      ],
      "stateMutability": "nonpayable",
      "type": "function"
    },
    {
      "inputs": [
        {
          "internalType": "address",
          "name": "from",
          "type": "address"
        },
        {
          "internalType": "address",
          "name": "to",
          "type": "address"
        },
        {
          "internalType": "uint256",
          "name": "value",
          "type": "uint256"
        }
      ],
      "name": "transferFrom",
      "outputs": [
        {
          "internalType": "bool",
          "name": "",
          "type": "bool"
        }
      ],
      "stateMutability": "nonpayable",
      "type": "function"
    },
    {
      "inputs": [
        {
          "internalType": "address",
          "name": "newOwner",
          "type": "address"
        }
      ],
      "name": "transferOwnership",
      "outputs": [],
      "stateMutability": "nonpayable",
      "type": "function"
    }
  ],
  "bytecode": "0x608060405234801561001057600080fd5b50604051611a98380380611a9883398181016040528101906100329190610539565b806040518060400160405280600d81526020017f4564754372656420546f6b656e000000000000000000000000000000000000008152506040518060400160405280600381526020017f454455000000000000000000000000000000000000000000000000000000000081525081600390816100ae91906107b6565b5080600490816100be91906107b6565b505050600073ffffffffffffffffffffffffffffffffffffffff168173ffffffffffffffffffffffffffffffffffffffff16036101335760006040517f1e4fbdf700000000000000000000000000000000000000000000000000000000815260040161012a9190610897565b60405180910390fd5b6101428161016360201b60201c565b5061015d8169d3c21bcecceda100000061022960201b60201c565b50610976565b6000600560009054906101000a900473ffffffffffffffffffffffffffffffffffffffff16905081600560006101000a81548173ffffffffffffffffffffffffffffffffffffffff021916908373ffffffffffffffffffffffffffffffffffffffff1602179055508173ffffffffffffffffffffffffffffffffffffffff168173ffffffffffffffffffffffffffffffffffffffff167f8be0079c531659141344cd1fd0a4f28419497f9722a3daafe3b4186f6b6457e060405160405180910390a35050565b600073ffffffffffffffffffffffffffffffffffffffff168273ffffffffffffffffffffffffffffffffffffffff160361029b5760006040517fec442f050000000000000000000000000000000000000000000000000000000081526004016102929190610897565b60405180910390fd5b6102ad600083836102b160201b60201c565b5050565b600073ffffffffffffffffffffffffffffffffffffffff168373ffffffffffffffffffffffffffffffffffffffff16036103035780600260008282546102f791906108e1565b925050819055506103d6565b60008060008573ffffffffffffffffffffffffffffffffffffffff1673ffffffffffffffffffffffffffffffffffffffff1681526020019081526020016000205490508181101561038f578381836040517fe450d38c00000000000000000000000000000000000000000000000000000000815260040161038693929190610924565b60405180910390fd5b8181036000808673ffffffffffffffffffffffffffffffffffffffff1673ffffffffffffffffffffffffffffffffffffffff16815260200190815260200160002081905550505b600073ffffffffffffffffffffffffffffffffffffffff168273ffffffffffffffffffffffffffffffffffffffff160361041f578060026000828254039250508190555061046c565b806000808473ffffffffffffffffffffffffffffffffffffffff1673ffffffffffffffffffffffffffffffffffffffff168152602001908152602001600020600082825401925050819055505b8173ffffffffffffffffffffffffffffffffffffffff168373ffffffffffffffffffffffffffffffffffffffff167fddf252ad1be2c89b69c2b068fc378daa952ba7f163c4a11628f55a4df523b3ef836040516104c9919061095b565b60405180910390a3505050565b600080fd5b600073ffffffffffffffffffffffffffffffffffffffff82169050919050565b6000610506826104db565b9050919050565b610516816104fb565b811461052157600080fd5b50565b6000815190506105338161050d565b92915050565b60006020828403121561054f5761054e6104d6565b5b600061055d84828501610524565b91505092915050565b600081519050919050565b7f4e487b7100000000000000000000000000000000000000000000000000000000600052604160045260246000fd5b7f4e487b7100000000000000000000000000000000000000000000000000000000600052602260045260246000fd5b600060028204905060018216806105e757607f821691505b6020821081036105fa576105f96105a0565b5b50919050565b60008190508160005260206000209050919050565b60006020601f8301049050919050565b600082821b905092915050565b6000600883026106627fffffffffffffffffffffffffffffffffffffffffffffffffffffffffffffffff82610625565b61066c8683610625565b95508019841693508086168417925050509392505050565b6000819050919050565b6000819050919050565b60006106b36106ae6106a984610684565b61068e565b610684565b9050919050565b6000819050919050565b6106cd83610698565b6106e16106d9826106ba565b848454610632565b825550505050565b600090565b6106f66106e9565b6107018184846106c4565b505050565b5b818110156107255761071a6000826106ee565b600181019050610707565b5050565b601f82111561076a5761073b81610600565b61074484610615565b81016020851015610753578190505b61076761075f85610615565b830182610706565b50505b505050565b600082821c905092915050565b600061078d6000198460080261076f565b1980831691505092915050565b60006107a6838361077c565b9150826002028217905092915050565b6107bf82610566565b67ffffffffffffffff8111156107d8576107d7610571565b5b6107e282546105cf565b6107ed828285610729565b600060209050601f831160018114610820576000841561080e578287015190505b610818858261079a565b865550610880565b601f19841661082e86610600565b60005b8281101561085657848901518255600182019150602085019450602081019050610831565b86831015610873578489015161086f601f89168261077c565b8355505b6001600288020188555050505b505050505050565b610891816104fb565b82525050565b60006020820190506108ac6000830184610888565b92915050565b7f4e487b7100000000000000000000000000000000000000000000000000000000600052601160045260246000fd5b60006108ec82610684565b91506108f783610684565b925082820190508082111561090f5761090e6108b2565b5b92915050565b61091e81610684565b82525050565b60006060820190506109396000830186610888565b6109466020830185610915565b6109536040830184610915565b949350505050565b60006020820190506109706000830184610915565b92915050565b611113806109856000396000f3fe608060405234801561001057600080fd5b50600436106100cf5760003560e01c806370a082311161008c57806395d89b411161006657806395d89b4114610204578063a9059cbb14610222578063dd62ed3e14610252578063f2fde38b14610282576100cf565b806370a08231146101ac578063715018a6146101dc5780638da5cb5b146101e6576100cf565b806306fdde03146100d4578063095ea7b3146100f257806318160ddd1461012257806323b872dd146101405780632ff2e9dc14610170578063313ce5671461018e575b600080fd5b6100dc61029e565b6040516100e99190610d67565b60405180910390f35b61010c60048036038101906101079190610e22565b610330565b6040516101199190610e7d565b60405180910390f35b61012a610353565b6040516101379190610ea7565b60405180910390f35b61015a60048036038101906101559190610ec2565b61035d565b6040516101679190610e7d565b60405180910390f35b61017861038c565b6040516101859190610ea7565b60405180910390f35b61019661039a565b6040516101a39190610f31565b60405180910390f35b6101c660048036038101906101c19190610f4c565b6103a3565b6040516101d39190610ea7565b60405180910390f35b6101e46103eb565b005b6101ee6103ff565b6040516101fb9190610f88565b60405180910390f35b61020c610429565b6040516102199190610d67565b60405180910390f35b61023c60048036038101906102379190610e22565b6104bb565b6040516102499190610e7d565b60405180910390f35b61026c60048036038101906102679190610fa3565b6104de565b6040516102799190610ea7565b60405180910390f35b61029c60048036038101906102979190610f4c565b610565565b005b6060600380546102ad90611012565b80601f01602080910402602001604051908101604052809291908181526020018280546102d990611012565b80156103265780601f106102fb57610100808354040283529160200191610326565b820191906000526020600020905b81548152906001019060200180831161030957829003601f168201915b5050505050905090565b60008061033b6105eb565b90506103488185856105f3565b600191505092915050565b6000600254905090565b6000806103686105eb565b9050610375858285610605565b61038085858561069a565b60019150509392505050565b69d3c21bcecceda100000081565b60006012905090565b60008060008373ffffffffffffffffffffffffffffffffffffffff1673ffffffffffffffffffffffffffffffffffffffff168152602001908152602001600020549050919050565b6103f361078e565b6103fd6000610815565b565b6000600560009054906101000a900473ffffffffffffffffffffffffffffffffffffffff16905090565b60606004805461043890611012565b80601f016020809104026020016040519081016040528092919081815260200182805461046490611012565b80156104b15780601f10610486576101008083540402835291602001916104b1565b820191906000526020600020905b81548152906001019060200180831161049457829003601f168201915b5050505050905090565b6000806104c66105eb565b90506104d381858561069a565b600191505092915050565b6000600160008473ffffffffffffffffffffffffffffffffffffffff1673ffffffffffffffffffffffffffffffffffffffff16815260200190815260200160002060008373ffffffffffffffffffffffffffffffffffffffff1673ffffffffffffffffffffffffffffffffffffffff16815260200190815260200160002054905092915050565b61056d61078e565b600073ffffffffffffffffffffffffffffffffffffffff168173ffffffffffffffffffffffffffffffffffffffff16036105df5760006040517f1e4fbdf70000000000000000000000000000000000000000000000000000000081526004016105d69190610f88565b60405180910390fd5b6105e881610815565b50565b600033905090565b61060083838360016108db565b505050565b600061061184846104de565b90507fffffffffffffffffffffffffffffffffffffffffffffffffffffffffffffffff8110156106945781811015610684578281836040517ffb8f41b200000000000000000000000000000000000000000000000000000000815260040161067b93929190611043565b60405180910390fd5b610693848484840360006108db565b5b50505050565b600073ffffffffffffffffffffffffffffffffffffffff168373ffffffffffffffffffffffffffffffffffffffff160361070c5760006040517f96c6fd1e0000000000000000000000000000000000000000000000000000000081526004016107039190610f88565b60405180910390fd5b600073ffffffffffffffffffffffffffffffffffffffff168273ffffffffffffffffffffffffffffffffffffffff160361077e5760006040517fec442f050000000000000000000000000000000000000000000000000000000081526004016107759190610f88565b60405180910390fd5b610789838383610ab2565b505050565b6107966105eb565b73ffffffffffffffffffffffffffffffffffffffff166107b46103ff565b73ffffffffffffffffffffffffffffffffffffffff1614610813576107d76105eb565b6040517f118cdaa700000000000000000000000000000000000000000000000000000000815260040161080a9190610f88565b60405180910390fd5b565b6000600560009054906101000a900473ffffffffffffffffffffffffffffffffffffffff16905081600560006101000a81548173ffffffffffffffffffffffffffffffffffffffff021916908373ffffffffffffffffffffffffffffffffffffffff1602179055508173ffffffffffffffffffffffffffffffffffffffff168173ffffffffffffffffffffffffffffffffffffffff167f8be0079c531659141344cd1fd0a4f28419497f9722a3daafe3b4186f6b6457e060405160405180910390a35050565b600073ffffffffffffffffffffffffffffffffffffffff168473ffffffffffffffffffffffffffffffffffffffff160361094d5760006040517fe602df050000000000000000000000000000000000000000000000000000000081526004016109449190610f88565b60405180910390fd5b600073ffffffffffffffffffffffffffffffffffffffff168373ffffffffffffffffffffffffffffffffffffffff16036109bf5760006040517f94280d620000000000000000000000000000000000000000000000000000000081526004016109b69190610f88565b60405180910390fd5b81600160008673ffffffffffffffffffffffffffffffffffffffff1673ffffffffffffffffffffffffffffffffffffffff16815260200190815260200160002060008573ffffffffffffffffffffffffffffffffffffffff1673ffffffffffffffffffffffffffffffffffffffff168152602001908152602001600020819055508015610aac578273ffffffffffffffffffffffffffffffffffffffff168473ffffffffffffffffffffffffffffffffffffffff167f8c5be1e5ebec7d5bd14f71427d1e84f3dd0314c0f7b2291e5b200ac8c7c3b92584604051610aa39190610ea7565b60405180910390a35b50505050565b600073ffffffffffffffffffffffffffffffffffffffff168373ffffffffffffffffffffffffffffffffffffffff1603610b04578060026000828254610af891906110a9565b92505081905550610bd7565b60008060008573ffffffffffffffffffffffffffffffffffffffff1673ffffffffffffffffffffffffffffffffffffffff16815260200190815260200160002054905081811015610b90578381836040517fe450d38c000000000000000000000000000000000000000000000000000000008152600401610b8793929190611043565b60405180910390fd5b8181036000808673ffffffffffffffffffffffffffffffffffffffff1673ffffffffffffffffffffffffffffffffffffffff16815260200190815260200160002081905550505b600073ffffffffffffffffffffffffffffffffffffffff168273ffffffffffffffffffffffffffffffffffffffff1603610c205780600260008282540392505081905550610c6d565b806000808473ffffffffffffffffffffffffffffffffffffffff1673ffffffffffffffffffffffffffffffffffffffff168152602001908152602001600020600082825401925050819055505b8173ffffffffffffffffffffffffffffffffffffffff168373ffffffffffffffffffffffffffffffffffffffff167fddf252ad1be2c89b69c2b068fc378daa952ba7f163c4a11628f55a4df523b3ef83604051610cca9190610ea7565b60405180910390a3505050565b600081519050919050565b600082825260208201905092915050565b60005b83811015610d11578082015181840152602081019050610cf6565b60008484015250505050565b6000601f19601f8301169050919050565b6000610d3982610cd7565b610d438185610ce2565b9350610d53818560208601610cf3565b610d5c81610d1d565b840191505092915050565b60006020820190508181036000830152610d818184610d2e565b905092915050565b600080fd5b600073ffffffffffffffffffffffffffffffffffffffff82169050919050565b6000610db982610d8e565b9050919050565b610dc981610dae565b8114610dd457600080fd5b50565b600081359050610de681610dc0565b92915050565b6000819050919050565b610dff81610dec565b8114610e0a57600080fd5b50565b600081359050610e1c81610df6565b92915050565b60008060408385031215610e3957610e38610d89565b5b6000610e4785828601610dd7565b9250506020610e5885828601610e0d565b9150509250929050565b60008115159050919050565b610e7781610e62565b82525050565b6000602082019050610e926000830184610e6e565b92915050565b610ea181610dec565b82525050565b6000602082019050610ebc6000830184610e98565b92915050565b600080600060608486031215610edb57610eda610d89565b5b6000610ee986828701610dd7565b9350506020610efa86828701610dd7565b9250506040610f0b86828701610e0d565b9150509250925092565b600060ff82169050919050565b610f2b81610f15565b82525050565b6000602082019050610f466000830184610f22565b92915050565b600060208284031215610f6257610f61610d89565b5b6000610f7084828501610dd7565b91505092915050565b610f8281610dae565b82525050565b6000602082019050610f9d6000830184610f79565b92915050565b60008060408385031215610fba57610fb9610d89565b5b6000610fc885828601610dd7565b9250506020610fd985828601610dd7565b9150509250929050565b7f4e487b7100000000000000000000000000000000000000000000000000000000600052602260045260246000fd5b6000600282049050600182168061102a57607f821691505b60208210810361103d5761103c610fe3565b5b50919050565b60006060820190506110586000830186610f79565b6110656020830185610e98565b6110726040830184610e98565b949350505050565b7f4e487b7100000000000000000000000000000000000000000000000000000000600052601160045260246000fd5b60006110b482610dec565b91506110bf83610dec565b92508282019050808211156110d7576110d661107a565b5b9291505056fea2646970667358221220a2fe21cf859a2e7c5ffa5d8107221978a800c66449f491adc77755cee53ae66b64736f6c634300081c0033",
  "linkReferences": {},
  "deployedLinkReferences": {}
}