{
  "_format": "hh-sol-artifact-1",
  "contractName": "EduTokenSale",
  "sourceName": "contracts/EduTokenSale.sol",
  "abi": [
    {
      "inputs": [
        {
          "internalType": "address",
          "name": "_initialOwner",
          "type": "address"
        },
        {
          "internalType": "address",
          "name": "_tokenAddress",
          "type": "address"
        },
        {
          "internalType": "address",
          "name": "_treasuryManager",
          "type": "address"
        },
        {
          "internalType": "address",
          "name": "_complianceOfficer",
          "type": "address"
        },
        {
          "internalType": "uint256",
          "name": "_rate",
          "type": "uint256"
        },
        {
          "internalType": "uint256",
          "name": "_saleStart",
          "type": "uint256"
        },
        {
          "internalType": "uint256",
          "name": "_saleEnd",
          "type": "uint256"
        },
        {
          "internalType": "uint256",
          "name": "_minContributionWei",
          "type": "uint256"
        },
        {
          "internalType": "uint256",
          "name": "_maxContributionWei",
          "type": "uint256"
        },
        {
          "internalType": "uint256",
          "name": "_hardCapTokens",
          "type": "uint256"
        }
      ],
      "stateMutability": "nonpayable",
      "type": "constructor"
    },
    {
      "inputs": [],
      "name": "EnforcedPause",
      "type": "error"
    },
    {
      "inputs": [],
      "name": "ExpectedPause",
      "type": "error"
    },
    {
      "inputs": [
        {
          "internalType": "address",
          "name": "owner",
          "type": "address"
        }
      ],
      "name": "OwnableInvalidOwner",
      "type": "error"
    },
    {
      "inputs": [
        {
          "internalType": "address",
          "name": "account",
          "type": "address"
        }
      ],
      "name": "OwnableUnauthorizedAccount",
      "type": "error"
    },
    {
      "anonymous": false,
      "inputs": [
        {
          "indexed": true,
          "internalType": "address",
          "name": "_newComplianceOfficer",
          "type": "address"
        }
      ],
      "name": "ComplianceOfficerUpdated",
      "type": "event"
    },
    {
      "anonymous": false,
      "inputs": [
        {
          "indexed": true,
          "internalType": "address",
          "name": "_toAddress",
          "type": "address"
        },
        {
          "indexed": false,
          "internalType": "uint256",
          "name": "_amountWei",
          "type": "uint256"
        }
      ],
      "name": "FundsWithdrawn",
      "type": "event"
    },
    {
      "anonymous": false,
      "inputs": [
        {
          "indexed": true,
          "internalType": "address",
          "name": "previousOwner",
          "type": "address"
        },
        {
          "indexed": true,
          "internalType": "address",
          "name": "newOwner",
          "type": "address"
        }
      ],
      "name": "OwnershipTransferred",
      "type": "event"
    },
    {
      "anonymous": false,
      "inputs": [
        {
          "indexed": false,
          "internalType": "address",
          "name": "account",
          "type": "address"
        }
      ],
      "name": "Paused",
      "type": "event"
    },
    {
      "anonymous": false,
      "inputs": [
        {
          "indexed": true,
          "internalType": "address",
          "name": "_byAddress",
          "type": "address"
        }
      ],
      "name": "SalePaused",
      "type": "event"
    },
    {
      "anonymous": false,
      "inputs": [
        {
          "indexed": true,
          "internalType": "address",
          "name": "_byAddress",
          "type": "address"
        }
      ],
      "name": "SaleUnpaused",
      "type": "event"
    },
    {
      "anonymous": false,
      "inputs": [
        {
          "indexed": true,
          "internalType": "address",
          "name": "_buyerAddress",
          "type": "address"
        },
        {
          "indexed": false,
          "internalType": "uint256",
          "name": "_ethAmountWei",
          "type": "uint256"
        },
        {
          "indexed": false,
          "internalType": "uint256",
          "name": "_tokenAmount",
          "type": "uint256"
        }
      ],
      "name": "TokensPurchased",
      "type": "event"
    },
    {
      "anonymous": false,
      "inputs": [
        {
          "indexed": true,
          "internalType": "address",
          "name": "_newTreasuryManager",
          "type": "address"
        }
      ],
      "name": "TreasuryManagerUpdated",
      "type": "event"
    },
    {
      "anonymous": false,
      "inputs": [
        {
          "indexed": false,
          "internalType": "address",
          "name": "account",
          "type": "address"
        }
      ],
      "name": "Unpaused",
      "type": "event"
    },
    {
      "anonymous": false,
      "inputs": [
        {
          "indexed": true,
          "internalType": "address",
          "name": "_walletAddress",
          "type": "address"
        },
        {
          "indexed": false,
          "internalType": "bool",
          "name": "_status",
          "type": "bool"
        }
      ],
      "name": "WhitelistUpdated",
      "type": "event"
    },
    {
      "inputs": [],
      "name": "buyTokens",
      "outputs": [],
      "stateMutability": "payable",
      "type": "function"
    },
    {
      "inputs": [],
      "name": "complianceOfficer",
      "outputs": [
        {
          "internalType": "address",
          "name": "",
          "type": "address"
        }
      ],
      "stateMutability": "view",
      "type": "function"
    },
    {
      "inputs": [
        {
          "internalType": "address",
          "name": "",
          "type": "address"
        }
      ],
      "name": "contributionOf",
      "outputs": [
        {
          "internalType": "uint256",
          "name": "",
          "type": "uint256"
        }
      ],
      "stateMutability": "view",
      "type": "function"
    },
    {
      "inputs": [],
      "name": "eduToken",
      "outputs": [
        {
          "internalType": "contract EduToken",
          "name": "",
          "type": "address"
        }
      ],
      "stateMutability": "view",
      "type": "function"
    },
    {
      "inputs": [],
      "name": "hardCapTokens",
      "outputs": [
        {
          "internalType": "uint256",
          "name": "",
          "type": "uint256"
        }
      ],
      "stateMutability": "view",
      "type": "function"
    },
    {
      "inputs": [],
      "name": "isSaleActive",
      "outputs": [
        {
          "internalType": "bool",
          "name": "",
          "type": "bool"
        }
      ],
      "stateMutability": "view",
      "type": "function"
    },
    {
      "inputs": [
        {
          "internalType": "address",
          "name": "",
          "type": "address"
        }
      ],
      "name": "isWhitelisted",
      "outputs": [
        {
          "internalType": "bool",
          "name": "",
          "type": "bool"
        }
      ],
      "stateMutability": "view",
      "type": "function"
    },
    {
      "inputs": [],
      "name": "maxContributionWei",
      "outputs": [
        {
          "internalType": "uint256",
          "name": "",
          "type": "uint256"
        }
      ],
      "stateMutability": "view",
      "type": "function"
    },
    {
      "inputs": [],
      "name": "minContributionWei",
      "outputs": [
        {
          "internalType": "uint256",
          "name": "",
          "type": "uint256"
        }
      ],
      "stateMutability": "view",
      "type": "function"
    },
    {
      "inputs": [],
      "name": "owner",
      "outputs": [
        {
          "internalType": "address",
          "name": "",
          "type": "address"
        }
      ],
      "stateMutability": "view",
      "type": "function"
    },
    {
      "inputs": [],
      "name": "pauseSale",
      "outputs": [],
      "stateMutability": "nonpayable",
      "type": "function"
    },
    {
      "inputs": [],
      "name": "paused",
      "outputs": [
        {
          "internalType": "bool",
          "name": "",
          "type": "bool"
        }
      ],
      "stateMutability": "view",
      "type": "function"
    },
    {
      "inputs": [],
      "name": "rate",
      "outputs": [
        {
          "internalType": "uint256",
          "name": "",
          "type": "uint256"
        }
      ],
      "stateMutability": "view",
      "type": "function"
    },
    {
      "inputs": [],
      "name": "renounceOwnership",
      "outputs": [],
      "stateMutability": "nonpayable",
      "type": "function"
    },
    {
      "inputs": [],
      "name": "saleEnd",
      "outputs": [
        {
          "internalType": "uint256",
          "name": "",
          "type": "uint256"
        }
      ],
      "stateMutability": "view",
      "type": "function"
    },
    {
      "inputs": [],
      "name": "saleStart",
      "outputs": [
        {
          "internalType": "uint256",
          "name": "",
          "type": "uint256"
        }
      ],
      "stateMutability": "view",
      "type": "function"
    },
    {
      "inputs": [
        {
          "internalType": "address",
          "name": "_newComplianceOfficer",
          "type": "address"
        }
      ],
      "name": "setComplianceOfficer",
      "outputs": [],
      "stateMutability": "nonpayable",
      "type": "function"
    },
    {
      "inputs": [
        {
          "internalType": "address",
          "name": "_newTreasuryManager",
          "type": "address"
        }
      ],
      "name": "setTreasuryManager",
      "outputs": [],
      "stateMutability": "nonpayable",
      "type": "function"
    },
    {
      "inputs": [
        {
          "internalType": "address",
          "name": "_walletAddress",
          "type": "address"
        },
        {
          "internalType": "bool",
          "name": "_status",
          "type": "bool"
        }
      ],
      "name": "setWhitelist",
      "outputs": [],
      "stateMutability": "nonpayable",
      "type": "function"
    },
    {
      "inputs": [],
      "name": "totalTokensSold",
      "outputs": [
        {
          "internalType": "uint256",
          "name": "",
          "type": "uint256"
        }
      ],
      "stateMutability": "view",
      "type": "function"
    },
    {
      "inputs": [
        {
          "internalType": "address",
          "name": "newOwner",
          "type": "address"
        }
      ],
      "name": "transferOwnership",
      "outputs": [],
      "stateMutability": "nonpayable",
      "type": "function"
    },
    {
      "inputs": [],
      "name": "treasuryManager",
      "outputs": [
        {
          "internalType": "address",
          "name": "",
          "type": "address"
        }
      ],
      "stateMutability": "view",
      "type": "function"
    },
    {
      "inputs": [],
      "name": "unpauseSale",
      "outputs": [],
      "stateMutability": "nonpayable",
      "type": "function"
    },
    {
      "inputs": [
        {
          "internalType": "uint256",
          "name": "_amountWei",
          "type": "uint256"
        }
      ],
      "name": "withdrawFunds",
      "outputs": [],
      "stateMutability": "nonpayable",
      "type": "function"
    }
  ],
  "bytecode": "0x60a060405234801561001057600080fd5b506040516126e33803806126e383398181016040528101906100329190610516565b89600073ffffffffffffffffffffffffffffffffffffffff168173ffffffffffffffffffffffffffffffffffffffff16036100a55760006040517f1e4fbdf700000000000000000000000000000000000000000000000000000000815260040161009c9190610604565b60405180910390fd5b6100b4816103b960201b60201c565b50600073ffffffffffffffffffffffffffffffffffffffff168973ffffffffffffffffffffffffffffffffffffffff1603610124576040517f08c379a000000000000000000000000000000000000000000000000000000000815260040161011b9061067c565b60405180910390fd5b600073ffffffffffffffffffffffffffffffffffffffff168873ffffffffffffffffffffffffffffffffffffffff1603610193576040517f08c379a000000000000000000000000000000000000000000000000000000000815260040161018a906106e8565b60405180910390fd5b600073ffffffffffffffffffffffffffffffffffffffff168773ffffffffffffffffffffffffffffffffffffffff1603610202576040517f08c379a00000000000000000000000000000000000000000000000000000000081526004016101f990610754565b60405180910390fd5b848411610244576040517f08c379a000000000000000000000000000000000000000000000000000000000815260040161023b906107c0565b60405180910390fd5b82821015610287576040517f08c379a000000000000000000000000000000000000000000000000000000000815260040161027e9061082c565b60405180910390fd5b600086116102ca576040517f08c379a00000000000000000000000000000000000000000000000000000000081526004016102c190610898565b60405180910390fd5b8873ffffffffffffffffffffffffffffffffffffffff1660808173ffffffffffffffffffffffffffffffffffffffff168152505087600160006101000a81548173ffffffffffffffffffffffffffffffffffffffff021916908373ffffffffffffffffffffffffffffffffffffffff16021790555086600260006101000a81548173ffffffffffffffffffffffffffffffffffffffff021916908373ffffffffffffffffffffffffffffffffffffffff160217905550856003819055508460048190555083600581905550826006819055508160078190555080600881905550505050505050505050506108b8565b60008060009054906101000a900473ffffffffffffffffffffffffffffffffffffffff169050816000806101000a81548173ffffffffffffffffffffffffffffffffffffffff021916908373ffffffffffffffffffffffffffffffffffffffff1602179055508173ffffffffffffffffffffffffffffffffffffffff168173ffffffffffffffffffffffffffffffffffffffff167f8be0079c531659141344cd1fd0a4f28419497f9722a3daafe3b4186f6b6457e060405160405180910390a35050565b600080fd5b600073ffffffffffffffffffffffffffffffffffffffff82169050919050565b60006104ad82610482565b9050919050565b6104bd816104a2565b81146104c857600080fd5b50565b6000815190506104da816104b4565b92915050565b6000819050919050565b6104f3816104e0565b81146104fe57600080fd5b50565b600081519050610510816104ea565b92915050565b6000806000806000806000806000806101408b8d03121561053a5761053961047d565b5b60006105488d828e016104cb565b9a505060206105598d828e016104cb565b995050604061056a8d828e016104cb565b985050606061057b8d828e016104cb565b975050608061058c8d828e01610501565b96505060a061059d8d828e01610501565b95505060c06105ae8d828e01610501565b94505060e06105bf8d828e01610501565b9350506101006105d18d828e01610501565b9250506101206105e38d828e01610501565b9150509295989b9194979a5092959850565b6105fe816104a2565b82525050565b600060208201905061061960008301846105f5565b92915050565b600082825260208201905092915050565b7f496e76616c696420746f6b656e00000000000000000000000000000000000000600082015250565b6000610666600d8361061f565b915061067182610630565b602082019050919050565b6000602082019050818103600083015261069581610659565b9050919050565b7f496e76616c696420747265617375727900000000000000000000000000000000600082015250565b60006106d260108361061f565b91506106dd8261069c565b602082019050919050565b60006020820190508181036000830152610701816106c5565b9050919050565b7f496e76616c696420636f6d706c69616e63650000000000000000000000000000600082015250565b600061073e60128361061f565b915061074982610708565b602082019050919050565b6000602082019050818103600083015261076d81610731565b9050919050565b7f496e76616c69642073616c652077696e646f7700000000000000000000000000600082015250565b60006107aa60138361061f565b91506107b582610774565b602082019050919050565b600060208201905081810360008301526107d98161079d565b9050919050565b7f496e76616c696420636f6e747269627574696f6e2072616e6765000000000000600082015250565b6000610816601a8361061f565b9150610821826107e0565b602082019050919050565b6000602082019050818103600083015261084581610809565b9050919050565b7f496e76616c696420726174650000000000000000000000000000000000000000600082015250565b6000610882600c8361061f565b915061088d8261084c565b602082019050919050565b600060208201905081810360008301526108b181610875565b9050919050565b608051611e026108e160003960008181610ae001528181610ddf0152610f190152611e026000f3fe60806040526004361061014b5760003560e01c80638d878889116100b6578063c4a56fc81161006f578063c4a56fc814610426578063d0febe4c14610451578063d7805ece1461045b578063e5f6186d14610498578063f2fde38b146104c3578063fe47a9f2146104ec5761014b565b80638d878889146103385780638da5cb5b1461036357806391294ed11461038e578063ab0bcc41146103b9578063bb33d729146103e4578063c10b9358146103fb5761014b565b8063547c191a11610108578063547c191a1461026057806355367ba914610289578063564566a8146102a05780635c975abb146102cb57806363b20117146102f6578063715018a6146103215761014b565b8063155dd5ee146101505780632c4e722e146101795780633af32abf146101a45780633cea70d9146101e15780634b7495351461020c57806353d6fd5914610237575b600080fd5b34801561015c57600080fd5b50610177600480360381019061017291906114c2565b610515565b005b34801561018557600080fd5b5061018e610767565b60405161019b91906114fe565b60405180910390f35b3480156101b057600080fd5b506101cb60048036038101906101c69190611577565b61076d565b6040516101d891906115bf565b60405180910390f35b3480156101ed57600080fd5b506101f661078d565b60405161020391906115e9565b60405180910390f35b34801561021857600080fd5b506102216107b3565b60405161022e91906114fe565b60405180910390f35b34801561024357600080fd5b5061025e60048036038101906102599190611630565b6107b9565b005b34801561026c57600080fd5b5061028760048036038101906102829190611577565b61092f565b005b34801561029557600080fd5b5061029e610a2d565b005b3480156102ac57600080fd5b506102b5610a82565b6040516102c291906115bf565b60405180910390f35b3480156102d757600080fd5b506102e0610aae565b6040516102ed91906115bf565b60405180910390f35b34801561030257600080fd5b5061030b610ac4565b60405161031891906114fe565b60405180910390f35b34801561032d57600080fd5b50610336610aca565b005b34801561034457600080fd5b5061034d610ade565b60405161035a91906116cf565b60405180910390f35b34801561036f57600080fd5b50610378610b02565b60405161038591906115e9565b60405180910390f35b34801561039a57600080fd5b506103a3610b2b565b6040516103b091906114fe565b60405180910390f35b3480156103c557600080fd5b506103ce610b31565b6040516103db91906114fe565b60405180910390f35b3480156103f057600080fd5b506103f9610b37565b005b34801561040757600080fd5b50610410610b8c565b60405161041d91906114fe565b60405180910390f35b34801561043257600080fd5b5061043b610b92565b60405161044891906115e9565b60405180910390f35b610459610bb8565b005b34801561046757600080fd5b50610482600480360381019061047d9190611577565b61104c565b60405161048f91906114fe565b60405180910390f35b3480156104a457600080fd5b506104ad611064565b6040516104ba91906114fe565b60405180910390f35b3480156104cf57600080fd5b506104ea60048036038101906104e59190611577565b61106a565b005b3480156104f857600080fd5b50610513600480360381019061050e9190611577565b6110f0565b005b600160009054906101000a900473ffffffffffffffffffffffffffffffffffffffff1673ffffffffffffffffffffffffffffffffffffffff163373ffffffffffffffffffffffffffffffffffffffff1614806105a35750610574610b02565b73ffffffffffffffffffffffffffffffffffffffff163373ffffffffffffffffffffffffffffffffffffffff16145b6105e2576040517f08c379a00000000000000000000000000000000000000000000000000000000081526004016105d990611747565b60405180910390fd5b80471015610625576040517f08c379a000000000000000000000000000000000000000000000000000000000815260040161061c906117b3565b60405180910390fd5b6000600160009054906101000a900473ffffffffffffffffffffffffffffffffffffffff1673ffffffffffffffffffffffffffffffffffffffff168260405161066d90611804565b60006040518083038185875af1925050503d80600081146106aa576040519150601f19603f3d011682016040523d82523d6000602084013e6106af565b606091505b50509050806106f3576040517f08c379a00000000000000000000000000000000000000000000000000000000081526004016106ea90611865565b60405180910390fd5b600160009054906101000a900473ffffffffffffffffffffffffffffffffffffffff1673ffffffffffffffffffffffffffffffffffffffff167feaff4b37086828766ad3268786972c0cd24259d4c87a80f9d3963a3c3d999b0d8360405161075b91906114fe565b60405180910390a25050565b60035481565b600a6020528060005260406000206000915054906101000a900460ff1681565b600160009054906101000a900473ffffffffffffffffffffffffffffffffffffffff1681565b60085481565b600260009054906101000a900473ffffffffffffffffffffffffffffffffffffffff1673ffffffffffffffffffffffffffffffffffffffff163373ffffffffffffffffffffffffffffffffffffffff1614806108475750610818610b02565b73ffffffffffffffffffffffffffffffffffffffff163373ffffffffffffffffffffffffffffffffffffffff16145b610886576040517f08c379a000000000000000000000000000000000000000000000000000000000815260040161087d90611747565b60405180910390fd5b80600a60008473ffffffffffffffffffffffffffffffffffffffff1673ffffffffffffffffffffffffffffffffffffffff16815260200190815260200160002060006101000a81548160ff0219169083151502179055508173ffffffffffffffffffffffffffffffffffffffff167ff93f9a76c1bf3444d22400a00cb9fe990e6abe9dbb333fda48859cfee864543d8260405161092391906115bf565b60405180910390a25050565b6109376111ee565b600073ffffffffffffffffffffffffffffffffffffffff168173ffffffffffffffffffffffffffffffffffffffff16036109a6576040517f08c379a000000000000000000000000000000000000000000000000000000000815260040161099d906118d1565b60405180910390fd5b80600260006101000a81548173ffffffffffffffffffffffffffffffffffffffff021916908373ffffffffffffffffffffffffffffffffffffffff1602179055508073ffffffffffffffffffffffffffffffffffffffff167f18a9ec34afbceac1ea30fd2b9b5d78e31a0840f468234b6714209860ff5d184f60405160405180910390a250565b610a356111ee565b610a3d611275565b3373ffffffffffffffffffffffffffffffffffffffff167fd5e13ff83aeff77a13ff79d42763d4321ee52cd9176d6a6942a44abb945a39a960405160405180910390a2565b6000610a8c610aae565b158015610a9b57506004544210155b8015610aa957506005544211155b905090565b60008060149054906101000a900460ff16905090565b60095481565b610ad26111ee565b610adc60006112d8565b565b7f000000000000000000000000000000000000000000000000000000000000000081565b60008060009054906101000a900473ffffffffffffffffffffffffffffffffffffffff16905090565b60065481565b60045481565b610b3f6111ee565b610b4761139c565b3373ffffffffffffffffffffffffffffffffffffffff167fa3b142bf6879b63da2acae6c3cba67984f0c343ef0b43e6e3f349bfe1f470cf260405160405180910390a2565b60055481565b600260009054906101000a900473ffffffffffffffffffffffffffffffffffffffff1681565b610bc06113fe565b6004544210158015610bd457506005544211155b610c13576040517f08c379a0000000000000000000000000000000000000000000000000000000008152600401610c0a9061193d565b60405180910390fd5b600a60003373ffffffffffffffffffffffffffffffffffffffff1673ffffffffffffffffffffffffffffffffffffffff16815260200190815260200160002060009054906101000a900460ff16610c9f576040517f08c379a0000000000000000000000000000000000000000000000000000000008152600401610c96906119a9565b60405180910390fd5b600654341015610ce4576040517f08c379a0000000000000000000000000000000000000000000000000000000008152600401610cdb90611a15565b60405180910390fd5b600034600b60003373ffffffffffffffffffffffffffffffffffffffff1673ffffffffffffffffffffffffffffffffffffffff16815260200190815260200160002054610d319190611a64565b9050600754811115610d78576040517f08c379a0000000000000000000000000000000000000000000000000000000008152600401610d6f90611ae4565b60405180910390fd5b600060035434610d889190611b04565b905060085481600954610d9b9190611a64565b1115610ddc576040517f08c379a0000000000000000000000000000000000000000000000000000000008152600401610dd390611b92565b60405180910390fd5b807f000000000000000000000000000000000000000000000000000000000000000073ffffffffffffffffffffffffffffffffffffffff166370a08231306040518263ffffffff1660e01b8152600401610e3691906115e9565b602060405180830381865afa158015610e53573d6000803e3d6000fd5b505050506040513d601f19601f82011682018060405250810190610e779190611bc7565b1015610eb8576040517f08c379a0000000000000000000000000000000000000000000000000000000008152600401610eaf90611c40565b60405180910390fd5b81600b60003373ffffffffffffffffffffffffffffffffffffffff1673ffffffffffffffffffffffffffffffffffffffff168152602001908152602001600020819055508060096000828254610f0e9190611a64565b9250508190555060007f000000000000000000000000000000000000000000000000000000000000000073ffffffffffffffffffffffffffffffffffffffff1663a9059cbb33846040518363ffffffff1660e01b8152600401610f72929190611c60565b6020604051808303816000875af1158015610f91573d6000803e3d6000fd5b505050506040513d601f19601f82011682018060405250810190610fb59190611c9e565b905080610ff7576040517f08c379a0000000000000000000000000000000000000000000000000000000008152600401610fee90611d17565b60405180910390fd5b3373ffffffffffffffffffffffffffffffffffffffff167f8fafebcaf9d154343dad25669bfa277f4fbacd7ac6b0c4fed522580e040a0f33348460405161103f929190611d37565b60405180910390a2505050565b600b6020528060005260406000206000915090505481565b60075481565b6110726111ee565b600073ffffffffffffffffffffffffffffffffffffffff168173ffffffffffffffffffffffffffffffffffffffff16036110e45760006040517f1e4fbdf70000000000000000000000000000000000000000000000000000000081526004016110db91906115e9565b60405180910390fd5b6110ed816112d8565b50565b6110f86111ee565b600073ffffffffffffffffffffffffffffffffffffffff168173ffffffffffffffffffffffffffffffffffffffff1603611167576040517f08c379a000000000000000000000000000000000000000000000000000000000815260040161115e90611dac565b60405180910390fd5b80600160006101000a81548173ffffffffffffffffffffffffffffffffffffffff021916908373ffffffffffffffffffffffffffffffffffffffff1602179055508073ffffffffffffffffffffffffffffffffffffffff167fd16d2cf254200e4dc6dc82512e9d11673e06a798c40b90cef7583729b4f7a8d460405160405180910390a250565b6111f661143f565b73ffffffffffffffffffffffffffffffffffffffff16611214610b02565b73ffffffffffffffffffffffffffffffffffffffff16146112735761123761143f565b6040517f118cdaa700000000000000000000000000000000000000000000000000000000815260040161126a91906115e9565b60405180910390fd5b565b61127d6113fe565b6001600060146101000a81548160ff0219169083151502179055507f62e78cea01bee320cd4e420270b5ea74000d11b0c9f74754ebdbfc544b05a2586112c161143f565b6040516112ce91906115e9565b60405180910390a1565b60008060009054906101000a900473ffffffffffffffffffffffffffffffffffffffff169050816000806101000a81548173ffffffffffffffffffffffffffffffffffffffff021916908373ffffffffffffffffffffffffffffffffffffffff1602179055508173ffffffffffffffffffffffffffffffffffffffff168173ffffffffffffffffffffffffffffffffffffffff167f8be0079c531659141344cd1fd0a4f28419497f9722a3daafe3b4186f6b6457e060405160405180910390a35050565b6113a4611447565b60008060146101000a81548160ff0219169083151502179055507f5db9ee0a495bf2e6ff9c91a7834c1ba4fdd244a5e8aa4e537bd38aeae4b073aa6113e761143f565b6040516113f491906115e9565b60405180910390a1565b611406610aae565b1561143d576040517fd93c066500000000000000000000000000000000000000000000000000000000815260040160405180910390fd5b565b600033905090565b61144f610aae565b611485576040517f8dfc202b00000000000000000000000000000000000000000000000000000000815260040160405180910390fd5b565b600080fd5b6000819050919050565b61149f8161148c565b81146114aa57600080fd5b50565b6000813590506114bc81611496565b92915050565b6000602082840312156114d8576114d7611487565b5b60006114e6848285016114ad565b91505092915050565b6114f88161148c565b82525050565b600060208201905061151360008301846114ef565b92915050565b600073ffffffffffffffffffffffffffffffffffffffff82169050919050565b600061154482611519565b9050919050565b61155481611539565b811461155f57600080fd5b50565b6000813590506115718161154b565b92915050565b60006020828403121561158d5761158c611487565b5b600061159b84828501611562565b91505092915050565b60008115159050919050565b6115b9816115a4565b82525050565b60006020820190506115d460008301846115b0565b92915050565b6115e381611539565b82525050565b60006020820190506115fe60008301846115da565b92915050565b61160d816115a4565b811461161857600080fd5b50565b60008135905061162a81611604565b92915050565b6000806040838503121561164757611646611487565b5b600061165585828601611562565b92505060206116668582860161161b565b9150509250929050565b6000819050919050565b600061169561169061168b84611519565b611670565b611519565b9050919050565b60006116a78261167a565b9050919050565b60006116b98261169c565b9050919050565b6116c9816116ae565b82525050565b60006020820190506116e460008301846116c0565b92915050565b600082825260208201905092915050565b7f4e6f7420617574686f72697a6564000000000000000000000000000000000000600082015250565b6000611731600e836116ea565b915061173c826116fb565b602082019050919050565b6000602082019050818103600083015261176081611724565b9050919050565b7f496e73756666696369656e742045544800000000000000000000000000000000600082015250565b600061179d6010836116ea565b91506117a882611767565b602082019050919050565b600060208201905081810360008301526117cc81611790565b9050919050565b600081905092915050565b50565b60006117ee6000836117d3565b91506117f9826117de565b600082019050919050565b600061180f826117e1565b9150819050919050565b7f5769746864726177206661696c65640000000000000000000000000000000000600082015250565b600061184f600f836116ea565b915061185a82611819565b602082019050919050565b6000602082019050818103600083015261187e81611842565b9050919050565b7f496e76616c696420636f6d706c69616e63650000000000000000000000000000600082015250565b60006118bb6012836116ea565b91506118c682611885565b602082019050919050565b600060208201905081810360008301526118ea816118ae565b9050919050565b7f53616c65206e6f74206163746976650000000000000000000000000000000000600082015250565b6000611927600f836116ea565b9150611932826118f1565b602082019050919050565b600060208201905081810360008301526119568161191a565b9050919050565b7f4e6f742077686974656c69737465640000000000000000000000000000000000600082015250565b6000611993600f836116ea565b915061199e8261195d565b602082019050919050565b600060208201905081810360008301526119c281611986565b9050919050565b7f42656c6f77206d696e20636f6e747269627574696f6e00000000000000000000600082015250565b60006119ff6016836116ea565b9150611a0a826119c9565b602082019050919050565b60006020820190508181036000830152611a2e816119f2565b9050919050565b7f4e487b7100000000000000000000000000000000000000000000000000000000600052601160045260246000fd5b6000611a6f8261148c565b9150611a7a8361148c565b9250828201905080821115611a9257611a91611a35565b5b92915050565b7f41626f7665206d617820636f6e747269627574696f6e00000000000000000000600082015250565b6000611ace6016836116ea565b9150611ad982611a98565b602082019050919050565b60006020820190508181036000830152611afd81611ac1565b9050919050565b6000611b0f8261148c565b9150611b1a8361148c565b9250828202611b288161148c565b91508282048414831517611b3f57611b3e611a35565b5b5092915050565b7f4861726420636170206578636565646564000000000000000000000000000000600082015250565b6000611b7c6011836116ea565b9150611b8782611b46565b602082019050919050565b60006020820190508181036000830152611bab81611b6f565b9050919050565b600081519050611bc181611496565b92915050565b600060208284031215611bdd57611bdc611487565b5b6000611beb84828501611bb2565b91505092915050565b7f496e73756666696369656e7420746f6b656e206c697175696469747900000000600082015250565b6000611c2a601c836116ea565b9150611c3582611bf4565b602082019050919050565b60006020820190508181036000830152611c5981611c1d565b9050919050565b6000604082019050611c7560008301856115da565b611c8260208301846114ef565b9392505050565b600081519050611c9881611604565b92915050565b600060208284031215611cb457611cb3611487565b5b6000611cc284828501611c89565b91505092915050565b7f546f6b656e207472616e73666572206661696c65640000000000000000000000600082015250565b6000611d016015836116ea565b9150611d0c82611ccb565b602082019050919050565b60006020820190508181036000830152611d3081611cf4565b9050919050565b6000604082019050611d4c60008301856114ef565b611d5960208301846114ef565b9392505050565b7f496e76616c696420747265617375727900000000000000000000000000000000600082015250565b6000611d966010836116ea565b9150611da182611d60565b602082019050919050565b60006020820190508181036000830152611dc581611d89565b905091905056fea2646970667358221220a2c60daedeebd665dcc8cb4c0b1a629bf61b21439b536b35c0b170b02fc1ad2564736f6c634300081c0033",
  "linkReferences": {},
  "deployedLinkReferences": {}
}